{
  "_format": "hh-sol-artifact-1",
  "contractName": "RockPaperScissorsFactory",
  "sourceName": "contracts/RockPaperScissorsFactory.sol",
  "abi": [
    {
      "inputs": [],
      "stateMutability": "nonpayable",
      "type": "constructor"
    },
    {
      "inputs": [
        {
          "internalType": "string",
          "name": "_name",
          "type": "string"
        }
      ],
      "name": "createRPS",
      "outputs": [],
      "stateMutability": "payable",
      "type": "function"
    },
    {
      "inputs": [],
      "name": "getRPS",
      "outputs": [
        {
          "internalType": "contract RockPaperScissors[]",
          "name": "",
          "type": "address[]"
        }
      ],
      "stateMutability": "view",
      "type": "function"
    }
  ],
  "bytecode": "0x608060405234801561001057600080fd5b50612f86806100206000396000f3fe6080604052600436106200002c5760003560e01c8063125a125914620000315780631e2298761462000051575b600080fd5b6200004f60048036038101906200004991906200020f565b62000081565b005b3480156200005e57600080fd5b506200006962000124565b60405162000078919062000320565b60405180910390f35b60003483836040516200009490620001b4565b620000a192919062000344565b6040518091039082f0905080158015620000bf573d6000803e3d6000fd5b509080600181540180825580915050600190039060005260206000200160009091909190916101000a81548173ffffffffffffffffffffffffffffffffffffffff021916908373ffffffffffffffffffffffffffffffffffffffff1602179055505050565b60606000805480602002602001604051908101604052809291908181526020018280548015620001aa57602002820191906000526020600020905b8160009054906101000a900473ffffffffffffffffffffffffffffffffffffffff1673ffffffffffffffffffffffffffffffffffffffff16815260200190600101908083116200015f575b5050505050905090565b612b34806200041d83390190565b60008083601f840112620001d557600080fd5b8235905067ffffffffffffffff811115620001ef57600080fd5b6020830191508360018202830111156200020857600080fd5b9250929050565b600080602083850312156200022357600080fd5b600083013567ffffffffffffffff8111156200023e57600080fd5b6200024c85828601620001c2565b92509250509250929050565b6000620002668383620002dc565b60208301905092915050565b60006200027f826200037a565b6200028b818562000392565b935062000298836200036a565b8060005b83811015620002cf578151620002b3888262000258565b9750620002c08362000385565b9250506001810190506200029c565b5085935050505092915050565b620002e781620003d4565b82525050565b6000620002fb8385620003a3565b93506200030a838584620003fc565b62000315836200040b565b840190509392505050565b600060208201905081810360008301526200033c818462000272565b905092915050565b6000602082019050818103600083015262000361818486620002ed565b90509392505050565b6000819050602082019050919050565b600081519050919050565b6000602082019050919050565b600082825260208201905092915050565b600082825260208201905092915050565b600073ffffffffffffffffffffffffffffffffffffffff82169050919050565b6000620003e182620003e8565b9050919050565b6000620003f582620003b4565b9050919050565b82818337600083830152505050565b6000601f19601f830116905091905056fe608060405260405162002b3438038062002b348339818101604052810190620000299190620009f7565b806000908051906020019062000041929190620008d5565b5033600160006101000a81548173ffffffffffffffffffffffffffffffffffffffff021916908373ffffffffffffffffffffffffffffffffffffffff16021790555034600381905550600160026200009a919062000aa3565b600460006101000a81548160ff021916908360ff160217905550604051806060016040528060006003811115620000fa577f4e487b7100000000000000000000000000000000000000000000000000000000600052602160045260246000fd5b815260200160001515815260200160011515815250600560003373ffffffffffffffffffffffffffffffffffffffff1673ffffffffffffffffffffffffffffffffffffffff16815260200190815260200160002060008201518160000160006101000a81548160ff02191690836003811115620001a0577f4e487b7100000000000000000000000000000000000000000000000000000000600052602160045260246000fd5b021790555060208201518160000160016101000a81548160ff02191690831515021790555060408201518160000160026101000a81548160ff021916908315150217905550905050620001f8620001ff60201b60201c565b5062000be4565b6000600660006001600381111562000240577f4e487b7100000000000000000000000000000000000000000000000000000000600052602160045260246000fd5b600381111562000279577f4e487b7100000000000000000000000000000000000000000000000000000000600052602160045260246000fd5b81526020019081526020016000206000600380811115620002c3577f4e487b7100000000000000000000000000000000000000000000000000000000600052602160045260246000fd5b6003811115620002fc577f4e487b7100000000000000000000000000000000000000000000000000000000600052602160045260246000fd5b815260200190815260200160002060006101000a81548160ff021916908360ff1602179055506001600660006001600381111562000363577f4e487b7100000000000000000000000000000000000000000000000000000000600052602160045260246000fd5b60038111156200039c577f4e487b7100000000000000000000000000000000000000000000000000000000600052602160045260246000fd5b8152602001908152602001600020600060026003811115620003e7577f4e487b7100000000000000000000000000000000000000000000000000000000600052602160045260246000fd5b600381111562000420577f4e487b7100000000000000000000000000000000000000000000000000000000600052602160045260246000fd5b815260200190815260200160002060006101000a81548160ff021916908360ff1602179055506000600660006002600381111562000487577f4e487b7100000000000000000000000000000000000000000000000000000000600052602160045260246000fd5b6003811115620004c0577f4e487b7100000000000000000000000000000000000000000000000000000000600052602160045260246000fd5b81526020019081526020016000206000600160038111156200050b577f4e487b7100000000000000000000000000000000000000000000000000000000600052602160045260246000fd5b600381111562000544577f4e487b7100000000000000000000000000000000000000000000000000000000600052602160045260246000fd5b815260200190815260200160002060006101000a81548160ff021916908360ff16021790555060016006600060026003811115620005ab577f4e487b7100000000000000000000000000000000000000000000000000000000600052602160045260246000fd5b6003811115620005e4577f4e487b7100000000000000000000000000000000000000000000000000000000600052602160045260246000fd5b815260200190815260200160002060006003808111156200062e577f4e487b7100000000000000000000000000000000000000000000000000000000600052602160045260246000fd5b600381111562000667577f4e487b7100000000000000000000000000000000000000000000000000000000600052602160045260246000fd5b815260200190815260200160002060006101000a81548160ff021916908360ff160217905550600160066000600380811115620006cd577f4e487b7100000000000000000000000000000000000000000000000000000000600052602160045260246000fd5b600381111562000706577f4e487b7100000000000000000000000000000000000000000000000000000000600052602160045260246000fd5b815260200190815260200160002060006001600381111562000751577f4e487b7100000000000000000000000000000000000000000000000000000000600052602160045260246000fd5b60038111156200078a577f4e487b7100000000000000000000000000000000000000000000000000000000600052602160045260246000fd5b815260200190815260200160002060006101000a81548160ff021916908360ff160217905550600060066000600380811115620007f0577f4e487b7100000000000000000000000000000000000000000000000000000000600052602160045260246000fd5b600381111562000829577f4e487b7100000000000000000000000000000000000000000000000000000000600052602160045260246000fd5b815260200190815260200160002060006002600381111562000874577f4e487b7100000000000000000000000000000000000000000000000000000000600052602160045260246000fd5b6003811115620008ad577f4e487b7100000000000000000000000000000000000000000000000000000000600052602160045260246000fd5b815260200190815260200160002060006101000a81548160ff021916908360ff160217905550565b828054620008e39062000b21565b90600052602060002090601f01602090048101928262000907576000855562000953565b82601f106200092257805160ff191683800117855562000953565b8280016001018555821562000953579182015b828111156200095257825182559160200191906001019062000935565b5b50905062000962919062000966565b5090565b5b808211156200098157600081600090555060010162000967565b5090565b60006200099c620009968462000a70565b62000a3c565b905082815260208101848484011115620009b557600080fd5b620009c284828562000aeb565b509392505050565b600082601f830112620009dc57600080fd5b8151620009ee84826020860162000985565b91505092915050565b60006020828403121562000a0a57600080fd5b600082015167ffffffffffffffff81111562000a2557600080fd5b62000a3384828501620009ca565b91505092915050565b6000604051905081810181811067ffffffffffffffff8211171562000a665762000a6562000bb5565b5b8060405250919050565b600067ffffffffffffffff82111562000a8e5762000a8d62000bb5565b5b601f19601f8301169050602081019050919050565b600062000ab08262000ade565b915062000abd8362000ade565b92508282101562000ad35762000ad262000b57565b5b828203905092915050565b600060ff82169050919050565b60005b8381101562000b0b57808201518184015260208101905062000aee565b8381111562000b1b576000848401525b50505050565b6000600282049050600182168062000b3a57607f821691505b6020821081141562000b515762000b5062000b86565b5b50919050565b7f4e487b7100000000000000000000000000000000000000000000000000000000600052601160045260246000fd5b7f4e487b7100000000000000000000000000000000000000000000000000000000600052602260045260246000fd5b7f4e487b7100000000000000000000000000000000000000000000000000000000600052604160045260246000fd5b611f408062000bf46000396000f3fe6080604052600436106100865760003560e01c80635a9b0b89116100595780635a9b0b89146101355780638da5cb5b14610160578063b688a3631461018b578063dfbf53ae14610195578063e2eb41ff146101c057610086565b806306fdde031461008b57806311610c25146100b657806341e6ffb4146100e1578063496b5ed91461010c575b600080fd5b34801561009757600080fd5b506100a06101ff565b6040516100ad919061195b565b60405180910390f35b3480156100c257600080fd5b506100cb61028d565b6040516100d89190611b5f565b60405180910390f35b3480156100ed57600080fd5b506100f6610293565b6040516101039190611b7a565b60405180910390f35b34801561011857600080fd5b50610133600480360381019061012e919061129f565b6102a6565b005b34801561014157600080fd5b5061014a610d65565b6040516101579190611b3d565b60405180910390f35b34801561016c57600080fd5b50610175610e51565b60405161018291906118c4565b60405180910390f35b610193610e77565b005b3480156101a157600080fd5b506101aa611154565b6040516101b791906118c4565b60405180910390f35b3480156101cc57600080fd5b506101e760048036038101906101e29190611276565b61117a565b6040516101f693929190611924565b60405180910390f35b6000805461020c90611d83565b80601f016020809104026020016040519081016040528092919081815260200182805461023890611d83565b80156102855780601f1061025a57610100808354040283529160200191610285565b820191906000526020600020905b81548152906001019060200180831161026857829003601f168201915b505050505081565b60035481565b600460009054906101000a900460ff1681565b600073ffffffffffffffffffffffffffffffffffffffff16600260009054906101000a900473ffffffffffffffffffffffffffffffffffffffff1673ffffffffffffffffffffffffffffffffffffffff1614610337576040517f08c379a000000000000000000000000000000000000000000000000000000000815260040161032e90611abd565b60405180910390fd5b600260ff168282905014610380576040517f08c379a00000000000000000000000000000000000000000000000000000000081526004016103779061199d565b60405180910390fd5b6000600460009054906101000a900460ff1660ff16146103d5576040517f08c379a00000000000000000000000000000000000000000000000000000000081526004016103cc90611a9d565b60405180910390fd5b6000806000806000805b878790508110156108805736888883818110610424577f4e487b7100000000000000000000000000000000000000000000000000000000600052603260045260246000fd5b90506020028101906104369190611bec565b9050600073ffffffffffffffffffffffffffffffffffffffff168160000160208101906104639190611276565b73ffffffffffffffffffffffffffffffffffffffff1614156104ba576040517f08c379a00000000000000000000000000000000000000000000000000000000081526004016104b190611a3d565b60405180910390fd5b60418180606001906104cc9190611b95565b90501461050e576040517f08c379a000000000000000000000000000000000000000000000000000000000815260040161050590611add565b60405180910390fd5b6000600560008360000160208101906105279190611276565b73ffffffffffffffffffffffffffffffffffffffff1673ffffffffffffffffffffffffffffffffffffffff16815260200190815260200160002090508060000160029054906101000a900460ff166105b4576040517f08c379a00000000000000000000000000000000000000000000000000000000081526004016105ab906119fd565b60405180910390fd5b8060000160019054906101000a900460ff1615610606576040517f08c379a00000000000000000000000000000000000000000000000000000000081526004016105fd90611afd565b60405180910390fd5b816040013582602001602081019061061e91906112e4565b60405160200161062f929190611898565b604051602081830303815290604052805190602001206040516020016106559190611872565b604051602081830303815290604052805190602001209750600082806060019061067f9190611b95565b8080601f016020809104026020016040519081016040528093929190818152602001838380828437600081840152601f19601f8201169050808301925050505050505090506020810151975060408101519650606081015160001a9550600060018a888b8b6040516000815260200160405260405161070194939291906118df565b6020604051602081039080840390855afa158015610723573d6000803e3d6000fd5b5050506020604051035190508360000160208101906107429190611276565b73ffffffffffffffffffffffffffffffffffffffff168173ffffffffffffffffffffffffffffffffffffffff16146107af576040517f08c379a00000000000000000000000000000000000000000000000000000000081526004016107a6906119dd565b60405180910390fd5b60018360000160016101000a81548160ff0219169083151502179055508360200160208101906107df91906112e4565b8360000160006101000a81548160ff0219169083600381111561082b577f4e487b7100000000000000000000000000000000000000000000000000000000600052602160045260246000fd5b02179055508073ffffffffffffffffffffffffffffffffffffffff163373ffffffffffffffffffffffffffffffffffffffff16141561086957600195505b50505050808061087890611db5565b9150506103df565b50806108c1576040517f08c379a00000000000000000000000000000000000000000000000000000000081526004016108b890611a7d565b60405180910390fd5b6000878760008181106108fd577f4e487b7100000000000000000000000000000000000000000000000000000000600052603260045260246000fd5b905060200281019061090f9190611bec565b602001602081019061092191906112e4565b905060008888600181811061095f577f4e487b7100000000000000000000000000000000000000000000000000000000600052603260045260246000fd5b90506020028101906109719190611bec565b602001602081019061098391906112e4565b90508060038111156109be577f4e487b7100000000000000000000000000000000000000000000000000000000600052602160045260246000fd5b8260038111156109f7577f4e487b7100000000000000000000000000000000000000000000000000000000600052602160045260246000fd5b1415610a38576040517f08c379a0000000000000000000000000000000000000000000000000000000008152600401610a2f90611b1d565b60405180910390fd5b888860066000856003811115610a77577f4e487b7100000000000000000000000000000000000000000000000000000000600052602160045260246000fd5b6003811115610aaf577f4e487b7100000000000000000000000000000000000000000000000000000000600052602160045260246000fd5b81526020019081526020016000206000846003811115610af8577f4e487b7100000000000000000000000000000000000000000000000000000000600052602160045260246000fd5b6003811115610b30577f4e487b7100000000000000000000000000000000000000000000000000000000600052602160045260246000fd5b815260200190815260200160002060009054906101000a900460ff1660ff16818110610b85577f4e487b7100000000000000000000000000000000000000000000000000000000600052603260045260246000fd5b9050602002810190610b979190611bec565b6000016020810190610ba99190611276565b600260006101000a81548173ffffffffffffffffffffffffffffffffffffffff021916908373ffffffffffffffffffffffffffffffffffffffff160217905550600073ffffffffffffffffffffffffffffffffffffffff16600260009054906101000a900473ffffffffffffffffffffffffffffffffffffffff1673ffffffffffffffffffffffffffffffffffffffff161415610c7b576040517f08c379a0000000000000000000000000000000000000000000000000000000008152600401610c7290611a1d565b60405180910390fd5b60006003541115610d0157600260009054906101000a900473ffffffffffffffffffffffffffffffffffffffff1673ffffffffffffffffffffffffffffffffffffffff166108fc600260ff16600354610cd49190611c48565b9081150290604051600060405180830381858888f19350505050158015610cff573d6000803e3d6000fd5b505b7fe6782ef5425ff7b9fdd779270f985cd651ea84df7bcf21f9ed6d9f29dceeb1c9600260009054906101000a900473ffffffffffffffffffffffffffffffffffffffff16604051610d5291906118c4565b60405180910390a1505050505050505050565b610d6d6111cb565b604051806060016040528060008054610d8590611d83565b80601f0160208091040260200160405190810160405280929190818152602001828054610db190611d83565b8015610dfe5780601f10610dd357610100808354040283529160200191610dfe565b820191906000526020600020905b815481529060010190602001808311610de157829003601f168201915b50505050508152602001600160009054906101000a900473ffffffffffffffffffffffffffffffffffffffff1673ffffffffffffffffffffffffffffffffffffffff168152602001600354815250905090565b600160009054906101000a900473ffffffffffffffffffffffffffffffffffffffff1681565b6003543414610ebb576040517f08c379a0000000000000000000000000000000000000000000000000000000008152600401610eb290611a5d565b60405180910390fd5b6000600460009054906101000a900460ff1660ff1611610f10576040517f08c379a0000000000000000000000000000000000000000000000000000000008152600401610f07906119bd565b60405180910390fd5b600560003373ffffffffffffffffffffffffffffffffffffffff1673ffffffffffffffffffffffffffffffffffffffff16815260200190815260200160002060000160029054906101000a900460ff1615610fa0576040517f08c379a0000000000000000000000000000000000000000000000000000000008152600401610f979061197d565b60405180910390fd5b6004600081819054906101000a900460ff1680929190610fbf90611d59565b91906101000a81548160ff021916908360ff160217905550506000600460009054906101000a900460ff1660ff161415611020577fd8cea0ecd56872ff072e771658b5682ffe4de16d752947f79597d600ea56f7a960405160405180910390a15b604051806060016040528060006003811115611065577f4e487b7100000000000000000000000000000000000000000000000000000000600052602160045260246000fd5b815260200160001515815260200160011515815250600560003373ffffffffffffffffffffffffffffffffffffffff1673ffffffffffffffffffffffffffffffffffffffff16815260200190815260200160002060008201518160000160006101000a81548160ff0219169083600381111561110a577f4e487b7100000000000000000000000000000000000000000000000000000000600052602160045260246000fd5b021790555060208201518160000160016101000a81548160ff02191690831515021790555060408201518160000160026101000a81548160ff021916908315150217905550905050565b600260009054906101000a900473ffffffffffffffffffffffffffffffffffffffff1681565b60056020528060005260406000206000915090508060000160009054906101000a900460ff16908060000160019054906101000a900460ff16908060000160029054906101000a900460ff16905083565b604051806060016040528060608152602001600073ffffffffffffffffffffffffffffffffffffffff168152602001600081525090565b60008135905061121181611ee3565b92915050565b60008083601f84011261122957600080fd5b8235905067ffffffffffffffff81111561124257600080fd5b60208301915083602082028301111561125a57600080fd5b9250929050565b60008135905061127081611efa565b92915050565b60006020828403121561128857600080fd5b600061129684828501611202565b91505092915050565b600080602083850312156112b257600080fd5b600083013567ffffffffffffffff8111156112cc57600080fd5b6112d885828601611217565b92509250509250929050565b6000602082840312156112f657600080fd5b600061130484828501611261565b91505092915050565b61131681611ca2565b82525050565b61132581611ca2565b82525050565b61133481611cb4565b82525050565b61134381611cc0565b82525050565b61135a61135582611cc0565b611dfe565b82525050565b61136981611d14565b82525050565b61138061137b82611d14565b611e12565b82525050565b600061139182611c10565b61139b8185611c1b565b93506113ab818560208601611d26565b6113b481611eb1565b840191505092915050565b60006113ca82611c10565b6113d48185611c2c565b93506113e4818560208601611d26565b6113ed81611eb1565b840191505092915050565b6000611405601e83611c2c565b91507f706c6179657220616c7265616479206a6f696e6564207468652067616d6500006000830152602082019050919050565b6000611445601c83611c3d565b91507f19457468657265756d205369676e6564204d6573736167653a0a3332000000006000830152601c82019050919050565b6000611485601c83611c2c565b91507f77726f6e67206e756d626572206f6620706c61796572206d6f766573000000006000830152602082019050919050565b60006114c5600c83611c2c565b91507f6e6f20667265652073706f7400000000000000000000000000000000000000006000830152602082019050919050565b6000611505601683611c2c565b91507f696e76616c6964207369676e65722061646472657373000000000000000000006000830152602082019050919050565b6000611545601583611c2c565b91507f706c6179657220646f6573206e6f7420657869737400000000000000000000006000830152602082019050919050565b6000611585601683611c2c565b91507f696e76616c6964206d6f7665732070726f7669646564000000000000000000006000830152602082019050919050565b60006115c5600f83611c2c565b91507f696e76616c6964206164647265737300000000000000000000000000000000006000830152602082019050919050565b6000611605601f83611c2c565b91507f76616c756520646f6573206e6f7420657175616c20746f2074686520626574006000830152602082019050919050565b6000611645602883611c2c565b91507f7468652067616d652063616e2062652066696e6973686564206f6e6c7920627960008301527f20706c61796572730000000000000000000000000000000000000000000000006020830152604082019050919050565b60006116ab601783611c2c565b91507f7468652067616d65206973206e6f7420737461727465640000000000000000006000830152602082019050919050565b60006116eb601c83611c2c565b91507f7468652067616d6520697320616c72656164792066696e6973686564000000006000830152602082019050919050565b600061172b601883611c2c565b91507f696e76616c6964207369676e6174757265206c656e67746800000000000000006000830152602082019050919050565b600061176b601a83611c2c565b91507f706c6179657220697320616c72656164792076657269666965640000000000006000830152602082019050919050565b60006117ab600483611c2c565b91507f64726177000000000000000000000000000000000000000000000000000000006000830152602082019050919050565b600060608301600083015184820360008601526117fb8282611386565b9150506020830151611810602086018261130d565b506040830151611823604086018261182e565b508091505092915050565b61183781611cfd565b82525050565b61184681611cfd565b82525050565b61185d61185882611cfd565b611e08565b82525050565b61186c81611d07565b82525050565b600061187d82611438565b91506118898284611349565b60208201915081905092915050565b60006118a4828561184c565b6020820191506118b4828461136f565b6001820191508190509392505050565b60006020820190506118d9600083018461131c565b92915050565b60006080820190506118f4600083018761133a565b6119016020830186611863565b61190e604083018561133a565b61191b606083018461133a565b95945050505050565b60006060820190506119396000830186611360565b611946602083018561132b565b611953604083018461132b565b949350505050565b6000602082019050818103600083015261197581846113bf565b905092915050565b60006020820190508181036000830152611996816113f8565b9050919050565b600060208201905081810360008301526119b681611478565b9050919050565b600060208201905081810360008301526119d6816114b8565b9050919050565b600060208201905081810360008301526119f6816114f8565b9050919050565b60006020820190508181036000830152611a1681611538565b9050919050565b60006020820190508181036000830152611a3681611578565b9050919050565b60006020820190508181036000830152611a56816115b8565b9050919050565b60006020820190508181036000830152611a76816115f8565b9050919050565b60006020820190508181036000830152611a9681611638565b9050919050565b60006020820190508181036000830152611ab68161169e565b9050919050565b60006020820190508181036000830152611ad6816116de565b9050919050565b60006020820190508181036000830152611af68161171e565b9050919050565b60006020820190508181036000830152611b168161175e565b9050919050565b60006020820190508181036000830152611b368161179e565b9050919050565b60006020820190508181036000830152611b5781846117de565b905092915050565b6000602082019050611b74600083018461183d565b92915050565b6000602082019050611b8f6000830184611863565b92915050565b60008083356001602003843603038112611bae57600080fd5b80840192508235915067ffffffffffffffff821115611bcc57600080fd5b602083019250600182023603831315611be457600080fd5b509250929050565b600082356001608003833603038112611c0457600080fd5b80830191505092915050565b600081519050919050565b600082825260208201905092915050565b600082825260208201905092915050565b600081905092915050565b6000611c5382611cfd565b9150611c5e83611cfd565b9250817fffffffffffffffffffffffffffffffffffffffffffffffffffffffffffffffff0483118215151615611c9757611c96611e24565b5b828202905092915050565b6000611cad82611cdd565b9050919050565b60008115159050919050565b6000819050919050565b6000819050611cd882611ecf565b919050565b600073ffffffffffffffffffffffffffffffffffffffff82169050919050565b6000819050919050565b600060ff82169050919050565b6000611d1f82611cca565b9050919050565b60005b83811015611d44578082015181840152602081019050611d29565b83811115611d53576000848401525b50505050565b6000611d6482611d07565b91506000821415611d7857611d77611e24565b5b600182039050919050565b60006002820490506001821680611d9b57607f821691505b60208210811415611daf57611dae611e82565b5b50919050565b6000611dc082611cfd565b91507fffffffffffffffffffffffffffffffffffffffffffffffffffffffffffffffff821415611df357611df2611e24565b5b600182019050919050565b6000819050919050565b6000819050919050565b6000611e1d82611ec2565b9050919050565b7f4e487b7100000000000000000000000000000000000000000000000000000000600052601160045260246000fd5b7f4e487b7100000000000000000000000000000000000000000000000000000000600052602160045260246000fd5b7f4e487b7100000000000000000000000000000000000000000000000000000000600052602260045260246000fd5b6000601f19601f8301169050919050565b60008160f81b9050919050565b60048110611ee057611edf611e53565b5b50565b611eec81611ca2565b8114611ef757600080fd5b50565b60048110611f0757600080fd5b5056fea264697066735822122090ef267711c9a6a88a9f198a5828d5b282544755e30f863d0122c6d861be90b764736f6c63430008000033a26469706673582212208b8456c446d40532cdd014f4b05cf581c5e90e1116ee1ad047f0dbddb4b8c37464736f6c63430008000033",
  "linkReferences": {},
  "deployedLinkReferences": {}
}