{
  "_format": "hh-sol-artifact-1",
  "contractName": "Election",
  "sourceName": "contracts/Election.sol",
  "abi": [
    {
      "inputs": [
        {
          "internalType": "address",
          "name": "_owner",
          "type": "address"
        },
        {
          "internalType": "string",
          "name": "_name",
          "type": "string"
        }
      ],
      "stateMutability": "nonpayable",
      "type": "constructor"
    },
    {
      "inputs": [
        {
          "components": [
            {
              "internalType": "string",
              "name": "name",
              "type": "string"
            },
            {
              "internalType": "string",
              "name": "surname",
              "type": "string"
            },
            {
              "internalType": "string",
              "name": "imageValue",
              "type": "string"
            },
            {
              "internalType": "uint256",
              "name": "votes",
              "type": "uint256"
            },
            {
              "internalType": "bool",
              "name": "active",
              "type": "bool"
            }
          ],
          "internalType": "struct Candidate[]",
          "name": "_candidates",
          "type": "tuple[]"
        }
      ],
      "name": "addCandidates",
      "outputs": [
        {
          "internalType": "uint256",
          "name": "",
          "type": "uint256"
        }
      ],
      "stateMutability": "nonpayable",
      "type": "function"
    },
    {
      "inputs": [
        {
          "internalType": "uint256",
          "name": "",
          "type": "uint256"
        }
      ],
      "name": "candidates",
      "outputs": [
        {
          "internalType": "string",
          "name": "name",
          "type": "string"
        },
        {
          "internalType": "string",
          "name": "surname",
          "type": "string"
        },
        {
          "internalType": "string",
          "name": "imageValue",
          "type": "string"
        },
        {
          "internalType": "uint256",
          "name": "votes",
          "type": "uint256"
        },
        {
          "internalType": "bool",
          "name": "active",
          "type": "bool"
        }
      ],
      "stateMutability": "view",
      "type": "function"
    },
    {
      "inputs": [],
      "name": "getInfo",
      "outputs": [
        {
          "components": [
            {
              "internalType": "bool",
              "name": "started",
              "type": "bool"
            },
            {
              "internalType": "address",
              "name": "owner",
              "type": "address"
            },
            {
              "internalType": "string",
              "name": "name",
              "type": "string"
            },
            {
              "internalType": "uint256",
              "name": "expiresAt",
              "type": "uint256"
            },
            {
              "internalType": "uint256",
              "name": "votes",
              "type": "uint256"
            },
            {
              "components": [
                {
                  "internalType": "string",
                  "name": "name",
                  "type": "string"
                },
                {
                  "internalType": "string",
                  "name": "surname",
                  "type": "string"
                },
                {
                  "internalType": "string",
                  "name": "imageValue",
                  "type": "string"
                },
                {
                  "internalType": "uint256",
                  "name": "votes",
                  "type": "uint256"
                },
                {
                  "internalType": "bool",
                  "name": "active",
                  "type": "bool"
                }
              ],
              "internalType": "struct Candidate[]",
              "name": "candidates",
              "type": "tuple[]"
            }
          ],
          "internalType": "struct ElectionInfo",
          "name": "",
          "type": "tuple"
        }
      ],
      "stateMutability": "view",
      "type": "function"
    },
    {
      "inputs": [],
      "name": "getVote",
      "outputs": [
        {
          "components": [
            {
              "internalType": "uint256",
              "name": "candidateID",
              "type": "uint256"
            },
            {
              "internalType": "uint256",
              "name": "expiresAt",
              "type": "uint256"
            },
            {
              "internalType": "bool",
              "name": "exists",
              "type": "bool"
            }
          ],
          "internalType": "struct Vote",
          "name": "",
          "type": "tuple"
        }
      ],
      "stateMutability": "view",
      "type": "function"
    },
    {
      "inputs": [],
      "name": "retract",
      "outputs": [
        {
          "internalType": "bool",
          "name": "",
          "type": "bool"
        }
      ],
      "stateMutability": "nonpayable",
      "type": "function"
    },
    {
      "inputs": [
        {
          "internalType": "uint256",
          "name": "_expiresIn",
          "type": "uint256"
        }
      ],
      "name": "start",
      "outputs": [
        {
          "internalType": "bool",
          "name": "",
          "type": "bool"
        }
      ],
      "stateMutability": "nonpayable",
      "type": "function"
    },
    {
      "inputs": [
        {
          "internalType": "uint256",
          "name": "_candidateId",
          "type": "uint256"
        }
      ],
      "name": "vote",
      "outputs": [
        {
          "internalType": "bool",
          "name": "",
          "type": "bool"
        }
      ],
      "stateMutability": "nonpayable",
      "type": "function"
    }
  ],
  "bytecode": "0x60806040523480156200001157600080fd5b5060405162001e0e38038062001e0e8339818101604052810190620000379190620001d1565b816000806101000a81548173ffffffffffffffffffffffffffffffffffffffff021916908373ffffffffffffffffffffffffffffffffffffffff16021790555080600190805190602001906200008f92919062000098565b505050620003aa565b828054620000a690620002fc565b90600052602060002090601f016020900481019282620000ca576000855562000116565b82601f10620000e557805160ff191683800117855562000116565b8280016001018555821562000116579182015b8281111562000115578251825591602001919060010190620000f8565b5b50905062000125919062000129565b5090565b5b80821115620001445760008160009055506001016200012a565b5090565b60006200015f62000159846200025f565b6200022b565b9050828152602081018484840111156200017857600080fd5b62000185848285620002c6565b509392505050565b6000815190506200019e8162000390565b92915050565b600082601f830112620001b657600080fd5b8151620001c884826020860162000148565b91505092915050565b60008060408385031215620001e557600080fd5b6000620001f5858286016200018d565b925050602083015167ffffffffffffffff8111156200021357600080fd5b6200022185828601620001a4565b9150509250929050565b6000604051905081810181811067ffffffffffffffff8211171562000255576200025462000361565b5b8060405250919050565b600067ffffffffffffffff8211156200027d576200027c62000361565b5b601f19601f8301169050602081019050919050565b60006200029f82620002a6565b9050919050565b600073ffffffffffffffffffffffffffffffffffffffff82169050919050565b60005b83811015620002e6578082015181840152602081019050620002c9565b83811115620002f6576000848401525b50505050565b600060028204905060018216806200031557607f821691505b602082108114156200032c576200032b62000332565b5b50919050565b7f4e487b7100000000000000000000000000000000000000000000000000000000600052602260045260246000fd5b7f4e487b7100000000000000000000000000000000000000000000000000000000600052604160045260246000fd5b6200039b8162000292565b8114620003a757600080fd5b50565b611a5480620003ba6000396000f3fe608060405234801561001057600080fd5b506004361061007d5760003560e01c806347f57b321161005b57806347f57b32146101045780635a9b0b891461012257806395805dad146101405780639bc90d00146101705761007d565b80630121b93f146100825780630242f351146100b25780633477ee2e146100d0575b600080fd5b61009c60048036038101906100979190610f47565b6101a0565b6040516100a9919061120c565b60405180910390f35b6100ba6103a9565b6040516100c791906112b1565b60405180910390f35b6100ea60048036038101906100e59190610f47565b61042f565b6040516100fb959493929190611227565b60405180910390f35b61010c61061a565b604051610119919061120c565b60405180910390f35b61012a6107b3565b604051610137919061128f565b60405180910390f35b61015a60048036038101906101559190610f47565b610bc3565b604051610167919061120c565b60405180910390f35b61018a60048036038101906101859190610f02565b610c27565b60405161019791906112cc565b60405180910390f35b6000600360009054906101000a900460ff166101bb57600080fd5b60025442106101c957600080fd5b600560003373ffffffffffffffffffffffffffffffffffffffff1673ffffffffffffffffffffffffffffffffffffffff16815260200190815260200160002060020160009054906101000a900460ff161561022357600080fd5b600480549050821061023457600080fd5b6004828154811061026e577f4e487b7100000000000000000000000000000000000000000000000000000000600052603260045260246000fd5b906000526020600020906005020160040160009054906101000a900460ff1661029657600080fd5b6040518060600160405280838152602001610258426102b591906113e8565b815260200160011515815250600560003373ffffffffffffffffffffffffffffffffffffffff1673ffffffffffffffffffffffffffffffffffffffff168152602001908152602001600020600082015181600001556020820151816001015560408201518160020160006101000a81548160ff021916908315150217905550905050600060048381548110610373577f4e487b7100000000000000000000000000000000000000000000000000000000600052603260045260246000fd5b90600052602060002090600502019050600181600301600082825461039891906113e8565b925050819055506001915050919050565b6103b1610e32565b600560003373ffffffffffffffffffffffffffffffffffffffff1673ffffffffffffffffffffffffffffffffffffffff16815260200190815260200160002060405180606001604052908160008201548152602001600182015481526020016002820160009054906101000a900460ff161515151581525050905090565b6004818154811061043f57600080fd5b906000526020600020906005020160009150905080600001805461046290611640565b80601f016020809104026020016040519081016040528092919081815260200182805461048e90611640565b80156104db5780601f106104b0576101008083540402835291602001916104db565b820191906000526020600020905b8154815290600101906020018083116104be57829003601f168201915b5050505050908060010180546104f090611640565b80601f016020809104026020016040519081016040528092919081815260200182805461051c90611640565b80156105695780601f1061053e57610100808354040283529160200191610569565b820191906000526020600020905b81548152906001019060200180831161054c57829003601f168201915b50505050509080600201805461057e90611640565b80601f01602080910402602001604051908101604052809291908181526020018280546105aa90611640565b80156105f75780601f106105cc576101008083540402835291602001916105f7565b820191906000526020600020905b8154815290600101906020018083116105da57829003601f168201915b5050505050908060030154908060040160009054906101000a900460ff16905085565b6000600360009054906101000a900460ff1661063557600080fd5b600254421061064357600080fd5b6000600560003373ffffffffffffffffffffffffffffffffffffffff1673ffffffffffffffffffffffffffffffffffffffff16815260200190815260200160002060405180606001604052908160008201548152602001600182015481526020016002820160009054906101000a900460ff161515151581525050905080604001516106ce57600080fd5b806020015142106106de57600080fd5b6001600482600001518154811061071e577f4e487b7100000000000000000000000000000000000000000000000000000000600052603260045260246000fd5b9060005260206000209060050201600301600082825461073e919061143e565b92505081905550600560003373ffffffffffffffffffffffffffffffffffffffff1673ffffffffffffffffffffffffffffffffffffffff16815260200190815260200160002060008082016000905560018201600090556002820160006101000a81549060ff02191690555050600191505090565b6107bb610e55565b60006004805480602002602001604051908101604052809291908181526020016000905b828210156109ec57838290600052602060002090600502016040518060a001604052908160008201805461081290611640565b80601f016020809104026020016040519081016040528092919081815260200182805461083e90611640565b801561088b5780601f106108605761010080835404028352916020019161088b565b820191906000526020600020905b81548152906001019060200180831161086e57829003601f168201915b505050505081526020016001820180546108a490611640565b80601f01602080910402602001604051908101604052809291908181526020018280546108d090611640565b801561091d5780601f106108f25761010080835404028352916020019161091d565b820191906000526020600020905b81548152906001019060200180831161090057829003601f168201915b5050505050815260200160028201805461093690611640565b80601f016020809104026020016040519081016040528092919081815260200182805461096290611640565b80156109af5780601f10610984576101008083540402835291602001916109af565b820191906000526020600020905b81548152906001019060200180831161099257829003601f168201915b50505050508152602001600382015481526020016004820160009054906101000a900460ff161515151581525050815260200190600101906107df565b5050505090506000600254421015610abc5760005b8251811015610aba57828181518110610a43577f4e487b7100000000000000000000000000000000000000000000000000000000600052603260045260246000fd5b60200260200101516060015182610a5a91906113e8565b91506000838281518110610a97577f4e487b7100000000000000000000000000000000000000000000000000000000600052603260045260246000fd5b602002602001015160600181815250508080610ab29061168e565b915050610a01565b505b6040518060c00160405280600360009054906101000a900460ff161515815260200160008054906101000a900473ffffffffffffffffffffffffffffffffffffffff1673ffffffffffffffffffffffffffffffffffffffff16815260200160018054610b2790611640565b80601f0160208091040260200160405190810160405280929190818152602001828054610b5390611640565b8015610ba05780601f10610b7557610100808354040283529160200191610ba0565b820191906000526020600020905b815481529060010190602001808311610b8357829003601f168201915b505050505081526020016002548152602001828152602001838152509250505090565b6000600360009054906101000a900460ff1615610bdf57600080fd5b600060048054905011610bf157600080fd5b8142610bfd91906113e8565b6002819055506001600360006101000a81548160ff02191690831515021790555060019050919050565b60003373ffffffffffffffffffffffffffffffffffffffff1660008054906101000a900473ffffffffffffffffffffffffffffffffffffffff1673ffffffffffffffffffffffffffffffffffffffff1614610c8157600080fd5b600360009054906101000a900460ff1615610c9b57600080fd5b60005b83839050811015610e17576004848483818110610ce4577f4e487b7100000000000000000000000000000000000000000000000000000000600052603260045260246000fd5b9050602002810190610cf6919061133e565b90806001815401808255809150506001900390600052602060002090600502016000909190919091508181610d2b91906118fa565b5050600060046001600480549050610d43919061143e565b81548110610d7a577f4e487b7100000000000000000000000000000000000000000000000000000000600052603260045260246000fd5b906000526020600020906005020160030181905550600160046001600480549050610da5919061143e565b81548110610ddc577f4e487b7100000000000000000000000000000000000000000000000000000000600052603260045260246000fd5b906000526020600020906005020160040160006101000a81548160ff0219169083151502179055508080610e0f9061168e565b915050610c9e565b506001600480549050610e2a919061143e565b905092915050565b604051806060016040528060008152602001600081526020016000151581525090565b6040518060c00160405280600015158152602001600073ffffffffffffffffffffffffffffffffffffffff168152602001606081526020016000815260200160008152602001606081525090565b60008083601f840112610eb557600080fd5b8235905067ffffffffffffffff811115610ece57600080fd5b602083019150836020820283011115610ee657600080fd5b9250929050565b600081359050610efc81611a02565b92915050565b60008060208385031215610f1557600080fd5b600083013567ffffffffffffffff811115610f2f57600080fd5b610f3b85828601610ea3565b92509250509250929050565b600060208284031215610f5957600080fd5b6000610f6784828501610eed565b91505092915050565b6000610f7c8383611098565b905092915050565b610f8d81611472565b82525050565b6000610f9e82611387565b610fa881856113b5565b935083602082028501610fba85611362565b8060005b85811015610ff65784840389528151610fd78582610f70565b9450610fe2836113a8565b925060208a01995050600181019050610fbe565b50829750879550505050505092915050565b61101181611484565b82525050565b61102081611484565b82525050565b60006110318261139d565b61103b81856113c6565b935061104b81856020860161160d565b611054816117c2565b840191505092915050565b600061106a8261139d565b61107481856113d7565b935061108481856020860161160d565b61108d816117c2565b840191505092915050565b600060a08301600083015184820360008601526110b58282611026565b915050602083015184820360208601526110cf8282611026565b915050604083015184820360408601526110e98282611026565b91505060608301516110fe60608601826111ee565b5060808301516111116080860182611008565b508091505092915050565b600060c0830160008301516111346000860182611008565b5060208301516111476020860182610f84565b506040830151848203604086015261115f8282611026565b915050606083015161117460608601826111ee565b50608083015161118760808601826111ee565b5060a083015184820360a086015261119f8282610f93565b9150508091505092915050565b6060820160008201516111c260008501826111ee565b5060208201516111d560208501826111ee565b5060408201516111e86040850182611008565b50505050565b6111f7816114b0565b82525050565b611206816114b0565b82525050565b60006020820190506112216000830184611017565b92915050565b600060a0820190508181036000830152611241818861105f565b90508181036020830152611255818761105f565b90508181036040830152611269818661105f565b905061127860608301856111fd565b6112856080830184611017565b9695505050505050565b600060208201905081810360008301526112a9818461111c565b905092915050565b60006060820190506112c660008301846111ac565b92915050565b60006020820190506112e160008301846111fd565b92915050565b6000808335600160200384360303811261130057600080fd5b80840192508235915067ffffffffffffffff82111561131e57600080fd5b60208301925060018202360383131561133657600080fd5b509250929050565b60008235600160a00383360303811261135657600080fd5b80830191505092915050565b6000819050602082019050919050565b60008190508160005260206000209050919050565b600081519050919050565b600082905092915050565b600081519050919050565b6000602082019050919050565b600082825260208201905092915050565b600082825260208201905092915050565b600082825260208201905092915050565b60006113f3826114b0565b91506113fe836114b0565b9250827fffffffffffffffffffffffffffffffffffffffffffffffffffffffffffffffff03821115611433576114326116f5565b5b828201905092915050565b6000611449826114b0565b9150611454836114b0565b925082821015611467576114666116f5565b5b828203905092915050565b600061147d82611490565b9050919050565b60008115159050919050565b600073ffffffffffffffffffffffffffffffffffffffff82169050919050565b6000819050919050565b5b818110156114d9576114ce6000826117fa565b6001810190506114bb565b5050565b60006114e882611484565b9050919050565b60006114fa826114b0565b9050919050565b61150b8383611392565b67ffffffffffffffff81111561152457611523611753565b5b61152e8254611640565b600080601f8411601f8411171561154b5761154885611372565b90505b601f83111561157e576020601f8501048101602085101561156a578190505b61157c6020601f8601048301826114ba565b505b601f8411600181146115ab5760008515611599578388013590505b6115a38682611672565b875550611603565b601f1985168260005b828110156115d957858a013582556001820191506020860195506020810190506115b4565b878310156115f657858a01356115f2601f8a16826116d7565b8355505b6001600289020189555050505b5050505050505050565b60005b8381101561162b578082015181840152602081019050611610565b8381111561163a576000848401525b50505050565b6000600282049050600182168061165857607f821691505b6020821081141561166c5761166b611724565b5b50919050565b600061167e83836116d7565b9150826002028217905092915050565b6000611699826114b0565b91507fffffffffffffffffffffffffffffffffffffffffffffffffffffffffffffffff8214156116cc576116cb6116f5565b5b600182019050919050565b60006116e8600019846008026117ed565b1980831691505092915050565b7f4e487b7100000000000000000000000000000000000000000000000000000000600052601160045260246000fd5b7f4e487b7100000000000000000000000000000000000000000000000000000000600052602260045260246000fd5b7f4e487b7100000000000000000000000000000000000000000000000000000000600052604160045260246000fd5b6000819050919050565b6000819050919050565b600081356117a3816119eb565b80915050919050565b600081356117b981611a02565b80915050919050565b6000601f19601f8301169050919050565b60008160001b9050919050565b600082821b905092915050565b600082821c905092915050565b61180c611805611a19565b83836119c6565b5050565b600060ff61181d846117d3565b9350801983169250808416831791505092915050565b60007fffffffffffffffffffffffffffffffffffffffffffffffffffffffffffffffff61185f846117d3565b9350801983169250808416831791505092915050565b6000600883026118a57fffffffffffffffffffffffffffffffffffffffffffffffffffffffffffffffff826117e0565b6118af86836117e0565b95508019841693508086168417925050509392505050565b6118d0826114dd565b6118e36118dc82611782565b8354611810565b8255505050565b6118f5838383611501565b505050565b600081016000830161190c81856112e7565b6119178183866118ea565b50505050600181016020830161192d81856112e7565b6119388183866118ea565b50505050600281016040830161194e81856112e7565b6119598183866118ea565b5050505060038101606083018061196f816117ac565b905061197b81846119a3565b50505060048101608083018061199081611796565b905061199c81846118c7565b5050505050565b6119ac826114ef565b6119bf6119b88261178c565b8354611833565b8255505050565b6119cf836114ef565b6119e36119db8261178c565b848454611875565b825550505050565b6119f481611484565b81146119ff57600080fd5b50565b611a0b816114b0565b8114611a1657600080fd5b50565b60009056fea2646970667358221220afcc3f7941ae11781480bdd9cae5ee10d89a5d36a6f6cf7b4f0e9a2510a3e64a64736f6c63430008000033",
  "linkReferences": {},
  "deployedLinkReferences": {}
}