{
  "_format": "hh-sol-artifact-1",
  "contractName": "RockPaperScissors",
  "sourceName": "contracts/RockPaperScissors.sol",
  "abi": [
    {
      "inputs": [
        {
          "internalType": "uint256",
          "name": "_bet",
          "type": "uint256"
        }
      ],
      "stateMutability": "payable",
      "type": "constructor"
    },
    {
      "anonymous": false,
      "inputs": [
        {
          "indexed": false,
          "internalType": "address",
          "name": "winner",
          "type": "address"
        }
      ],
      "name": "Finished",
      "type": "event"
    },
    {
      "anonymous": false,
      "inputs": [],
      "name": "Started",
      "type": "event"
    },
    {
      "inputs": [],
      "name": "bet",
      "outputs": [
        {
          "internalType": "uint256",
          "name": "",
          "type": "uint256"
        }
      ],
      "stateMutability": "view",
      "type": "function"
    },
    {
      "inputs": [
        {
          "components": [
            {
              "internalType": "address",
              "name": "from",
              "type": "address"
            },
            {
              "internalType": "enum Move",
              "name": "move",
              "type": "uint8"
            },
            {
              "internalType": "uint256",
              "name": "nonce",
              "type": "uint256"
            },
            {
              "internalType": "bytes",
              "name": "signature",
              "type": "bytes"
            }
          ],
          "internalType": "struct PlayerMove[]",
          "name": "_moves",
          "type": "tuple[]"
        }
      ],
      "name": "finish",
      "outputs": [],
      "stateMutability": "nonpayable",
      "type": "function"
    },
    {
      "inputs": [],
      "name": "freeSpots",
      "outputs": [
        {
          "internalType": "uint8",
          "name": "",
          "type": "uint8"
        }
      ],
      "stateMutability": "view",
      "type": "function"
    },
    {
      "inputs": [],
      "name": "join",
      "outputs": [],
      "stateMutability": "payable",
      "type": "function"
    },
    {
      "inputs": [],
      "name": "owner",
      "outputs": [
        {
          "internalType": "address",
          "name": "",
          "type": "address"
        }
      ],
      "stateMutability": "view",
      "type": "function"
    },
    {
      "inputs": [
        {
          "internalType": "address",
          "name": "",
          "type": "address"
        }
      ],
      "name": "players",
      "outputs": [
        {
          "internalType": "enum Move",
          "name": "move",
          "type": "uint8"
        },
        {
          "internalType": "bool",
          "name": "verified",
          "type": "bool"
        },
        {
          "internalType": "bool",
          "name": "exists",
          "type": "bool"
        }
      ],
      "stateMutability": "view",
      "type": "function"
    },
    {
      "inputs": [],
      "name": "winner",
      "outputs": [
        {
          "internalType": "address",
          "name": "",
          "type": "address"
        }
      ],
      "stateMutability": "view",
      "type": "function"
    }
  ],
  "bytecode": "0x60806040526040516200255b3803806200255b833981810160405281019062000029919062000917565b336000806101000a81548173ffffffffffffffffffffffffffffffffffffffff021916908373ffffffffffffffffffffffffffffffffffffffff160217905550348114620000ae576040517f08c379a0000000000000000000000000000000000000000000000000000000008152600401620000a59062000985565b60405180910390fd5b8060028190555060016002620000c59190620009b8565b600360006101000a81548160ff021916908360ff16021790555060405180606001604052806000600381111562000125577f4e487b7100000000000000000000000000000000000000000000000000000000600052602160045260246000fd5b815260200160001515815260200160011515815250600460003373ffffffffffffffffffffffffffffffffffffffff1673ffffffffffffffffffffffffffffffffffffffff16815260200190815260200160002060008201518160000160006101000a81548160ff02191690836003811115620001cb577f4e487b7100000000000000000000000000000000000000000000000000000000600052602160045260246000fd5b021790555060208201518160000160016101000a81548160ff02191690831515021790555060408201518160000160026101000a81548160ff021916908315150217905550905050620002236200022a60201b60201c565b5062000a53565b600060056000600160038111156200026b577f4e487b7100000000000000000000000000000000000000000000000000000000600052602160045260246000fd5b6003811115620002a4577f4e487b7100000000000000000000000000000000000000000000000000000000600052602160045260246000fd5b81526020019081526020016000206000600380811115620002ee577f4e487b7100000000000000000000000000000000000000000000000000000000600052602160045260246000fd5b600381111562000327577f4e487b7100000000000000000000000000000000000000000000000000000000600052602160045260246000fd5b815260200190815260200160002060006101000a81548160ff021916908360ff160217905550600160056000600160038111156200038e577f4e487b7100000000000000000000000000000000000000000000000000000000600052602160045260246000fd5b6003811115620003c7577f4e487b7100000000000000000000000000000000000000000000000000000000600052602160045260246000fd5b815260200190815260200160002060006002600381111562000412577f4e487b7100000000000000000000000000000000000000000000000000000000600052602160045260246000fd5b60038111156200044b577f4e487b7100000000000000000000000000000000000000000000000000000000600052602160045260246000fd5b815260200190815260200160002060006101000a81548160ff021916908360ff16021790555060006005600060026003811115620004b2577f4e487b7100000000000000000000000000000000000000000000000000000000600052602160045260246000fd5b6003811115620004eb577f4e487b7100000000000000000000000000000000000000000000000000000000600052602160045260246000fd5b815260200190815260200160002060006001600381111562000536577f4e487b7100000000000000000000000000000000000000000000000000000000600052602160045260246000fd5b60038111156200056f577f4e487b7100000000000000000000000000000000000000000000000000000000600052602160045260246000fd5b815260200190815260200160002060006101000a81548160ff021916908360ff16021790555060016005600060026003811115620005d6577f4e487b7100000000000000000000000000000000000000000000000000000000600052602160045260246000fd5b60038111156200060f577f4e487b7100000000000000000000000000000000000000000000000000000000600052602160045260246000fd5b8152602001908152602001600020600060038081111562000659577f4e487b7100000000000000000000000000000000000000000000000000000000600052602160045260246000fd5b600381111562000692577f4e487b7100000000000000000000000000000000000000000000000000000000600052602160045260246000fd5b815260200190815260200160002060006101000a81548160ff021916908360ff160217905550600160056000600380811115620006f8577f4e487b7100000000000000000000000000000000000000000000000000000000600052602160045260246000fd5b600381111562000731577f4e487b7100000000000000000000000000000000000000000000000000000000600052602160045260246000fd5b81526020019081526020016000206000600160038111156200077c577f4e487b7100000000000000000000000000000000000000000000000000000000600052602160045260246000fd5b6003811115620007b5577f4e487b7100000000000000000000000000000000000000000000000000000000600052602160045260246000fd5b815260200190815260200160002060006101000a81548160ff021916908360ff1602179055506000600560006003808111156200081b577f4e487b7100000000000000000000000000000000000000000000000000000000600052602160045260246000fd5b600381111562000854577f4e487b7100000000000000000000000000000000000000000000000000000000600052602160045260246000fd5b81526020019081526020016000206000600260038111156200089f577f4e487b7100000000000000000000000000000000000000000000000000000000600052602160045260246000fd5b6003811115620008d8577f4e487b7100000000000000000000000000000000000000000000000000000000600052602160045260246000fd5b815260200190815260200160002060006101000a81548160ff021916908360ff160217905550565b600081519050620009118162000a39565b92915050565b6000602082840312156200092a57600080fd5b60006200093a8482850162000900565b91505092915050565b600062000952600d83620009a7565b91507f696e76616c69642076616c7565000000000000000000000000000000000000006000830152602082019050919050565b60006020820190508181036000830152620009a08162000943565b9050919050565b600082825260208201905092915050565b6000620009c582620009fd565b9150620009d283620009fd565b925082821015620009e857620009e762000a0a565b5b828203905092915050565b6000819050919050565b600060ff82169050919050565b7f4e487b7100000000000000000000000000000000000000000000000000000000600052601160045260246000fd5b62000a4481620009f3565b811462000a5057600080fd5b50565b611af88062000a636000396000f3fe6080604052600436106100705760003560e01c80638da5cb5b1161004e5780638da5cb5b146100f4578063b688a3631461011f578063dfbf53ae14610129578063e2eb41ff1461015457610070565b806311610c251461007557806341e6ffb4146100a0578063496b5ed9146100cb575b600080fd5b34801561008157600080fd5b5061008a610193565b60405161009791906117f7565b60405180910390f35b3480156100ac57600080fd5b506100b5610199565b6040516100c29190611812565b60405180910390f35b3480156100d757600080fd5b506100f260048036038101906100ed9190611072565b6101ac565b005b34801561010057600080fd5b50610109610c5d565b60405161011691906115a0565b60405180910390f35b610127610c81565b005b34801561013557600080fd5b5061013e610f5e565b60405161014b91906115a0565b60405180910390f35b34801561016057600080fd5b5061017b60048036038101906101769190611049565b610f84565b60405161018a93929190611600565b60405180910390f35b60025481565b600360009054906101000a900460ff1681565b600073ffffffffffffffffffffffffffffffffffffffff16600160009054906101000a900473ffffffffffffffffffffffffffffffffffffffff1673ffffffffffffffffffffffffffffffffffffffff161461023d576040517f08c379a000000000000000000000000000000000000000000000000000000000815260040161023490611777565b60405180910390fd5b600260ff168282905014610286576040517f08c379a000000000000000000000000000000000000000000000000000000000815260040161027d90611657565b60405180910390fd5b6000600360009054906101000a900460ff1660ff16146102db576040517f08c379a00000000000000000000000000000000000000000000000000000000081526004016102d290611757565b60405180910390fd5b6000806000806000805b87879050811015610778573688888381811061032a577f4e487b7100000000000000000000000000000000000000000000000000000000600052603260045260246000fd5b905060200281019061033c9190611884565b9050600073ffffffffffffffffffffffffffffffffffffffff168160000160208101906103699190611049565b73ffffffffffffffffffffffffffffffffffffffff1614156103c0576040517f08c379a00000000000000000000000000000000000000000000000000000000081526004016103b7906116f7565b60405180910390fd5b60418180606001906103d2919061182d565b905014610414576040517f08c379a000000000000000000000000000000000000000000000000000000000815260040161040b90611797565b60405180910390fd5b60006004600083600001602081019061042d9190611049565b73ffffffffffffffffffffffffffffffffffffffff1673ffffffffffffffffffffffffffffffffffffffff16815260200190815260200160002090508060000160029054906101000a900460ff166104ba576040517f08c379a00000000000000000000000000000000000000000000000000000000081526004016104b1906116b7565b60405180910390fd5b8060000160019054906101000a900460ff161561050c576040517f08c379a0000000000000000000000000000000000000000000000000000000008152600401610503906117b7565b60405180910390fd5b81604001358260400135604051602001610527929190611574565b6040516020818303038152906040528051906020012060405160200161054d919061154e565b6040516020818303038152906040528051906020012097506000828060600190610577919061182d565b8080601f016020809104026020016040519081016040528093929190818152602001838380828437600081840152601f19601f8201169050808301925050505050505090506020810151975060408101519650606081015160001a9550600060018a888b8b604051600081526020016040526040516105f994939291906115bb565b6020604051602081039080840390855afa15801561061b573d6000803e3d6000fd5b50505060206040510351905083600001602081019061063a9190611049565b73ffffffffffffffffffffffffffffffffffffffff168173ffffffffffffffffffffffffffffffffffffffff16146106a7576040517f08c379a000000000000000000000000000000000000000000000000000000000815260040161069e90611697565b60405180910390fd5b60018360000160016101000a81548160ff0219169083151502179055508360200160208101906106d791906110b7565b8360000160006101000a81548160ff02191690836003811115610723577f4e487b7100000000000000000000000000000000000000000000000000000000600052602160045260246000fd5b02179055508073ffffffffffffffffffffffffffffffffffffffff163373ffffffffffffffffffffffffffffffffffffffff16141561076157600195505b505050508080610770906119cc565b9150506102e5565b50806107b9576040517f08c379a00000000000000000000000000000000000000000000000000000000081526004016107b090611737565b60405180910390fd5b6000878760008181106107f5577f4e487b7100000000000000000000000000000000000000000000000000000000600052603260045260246000fd5b90506020028101906108079190611884565b602001602081019061081991906110b7565b9050600088886001818110610857577f4e487b7100000000000000000000000000000000000000000000000000000000600052603260045260246000fd5b90506020028101906108699190611884565b602001602081019061087b91906110b7565b90508060038111156108b6577f4e487b7100000000000000000000000000000000000000000000000000000000600052602160045260246000fd5b8260038111156108ef577f4e487b7100000000000000000000000000000000000000000000000000000000600052602160045260246000fd5b1415610930576040517f08c379a0000000000000000000000000000000000000000000000000000000008152600401610927906117d7565b60405180910390fd5b88886005600085600381111561096f577f4e487b7100000000000000000000000000000000000000000000000000000000600052602160045260246000fd5b60038111156109a7577f4e487b7100000000000000000000000000000000000000000000000000000000600052602160045260246000fd5b815260200190815260200160002060008460038111156109f0577f4e487b7100000000000000000000000000000000000000000000000000000000600052602160045260246000fd5b6003811115610a28577f4e487b7100000000000000000000000000000000000000000000000000000000600052602160045260246000fd5b815260200190815260200160002060009054906101000a900460ff1660ff16818110610a7d577f4e487b7100000000000000000000000000000000000000000000000000000000600052603260045260246000fd5b9050602002810190610a8f9190611884565b6000016020810190610aa19190611049565b600160006101000a81548173ffffffffffffffffffffffffffffffffffffffff021916908373ffffffffffffffffffffffffffffffffffffffff160217905550600073ffffffffffffffffffffffffffffffffffffffff16600160009054906101000a900473ffffffffffffffffffffffffffffffffffffffff1673ffffffffffffffffffffffffffffffffffffffff161415610b73576040517f08c379a0000000000000000000000000000000000000000000000000000000008152600401610b6a906116d7565b60405180910390fd5b60006002541115610bf957600160009054906101000a900473ffffffffffffffffffffffffffffffffffffffff1673ffffffffffffffffffffffffffffffffffffffff166108fc600260ff16600254610bcc91906118c4565b9081150290604051600060405180830381858888f19350505050158015610bf7573d6000803e3d6000fd5b505b7fe6782ef5425ff7b9fdd779270f985cd651ea84df7bcf21f9ed6d9f29dceeb1c9600160009054906101000a900473ffffffffffffffffffffffffffffffffffffffff16604051610c4a91906115a0565b60405180910390a1505050505050505050565b60008054906101000a900473ffffffffffffffffffffffffffffffffffffffff1681565b6002543414610cc5576040517f08c379a0000000000000000000000000000000000000000000000000000000008152600401610cbc90611717565b60405180910390fd5b6000600360009054906101000a900460ff1660ff1611610d1a576040517f08c379a0000000000000000000000000000000000000000000000000000000008152600401610d1190611677565b60405180910390fd5b600460003373ffffffffffffffffffffffffffffffffffffffff1673ffffffffffffffffffffffffffffffffffffffff16815260200190815260200160002060000160029054906101000a900460ff1615610daa576040517f08c379a0000000000000000000000000000000000000000000000000000000008152600401610da190611637565b60405180910390fd5b6003600081819054906101000a900460ff1680929190610dc9906119a2565b91906101000a81548160ff021916908360ff160217905550506000600360009054906101000a900460ff1660ff161415610e2a577fd8cea0ecd56872ff072e771658b5682ffe4de16d752947f79597d600ea56f7a960405160405180910390a15b604051806060016040528060006003811115610e6f577f4e487b7100000000000000000000000000000000000000000000000000000000600052602160045260246000fd5b815260200160001515815260200160011515815250600460003373ffffffffffffffffffffffffffffffffffffffff1673ffffffffffffffffffffffffffffffffffffffff16815260200190815260200160002060008201518160000160006101000a81548160ff02191690836003811115610f14577f4e487b7100000000000000000000000000000000000000000000000000000000600052602160045260246000fd5b021790555060208201518160000160016101000a81548160ff02191690831515021790555060408201518160000160026101000a81548160ff021916908315150217905550905050565b600160009054906101000a900473ffffffffffffffffffffffffffffffffffffffff1681565b60046020528060005260406000206000915090508060000160009054906101000a900460ff16908060000160019054906101000a900460ff16908060000160029054906101000a900460ff16905083565b600081359050610fe481611a9b565b92915050565b60008083601f840112610ffc57600080fd5b8235905067ffffffffffffffff81111561101557600080fd5b60208301915083602082028301111561102d57600080fd5b9250929050565b60008135905061104381611ab2565b92915050565b60006020828403121561105b57600080fd5b600061106984828501610fd5565b91505092915050565b6000806020838503121561108557600080fd5b600083013567ffffffffffffffff81111561109f57600080fd5b6110ab85828601610fea565b92509250509250929050565b6000602082840312156110c957600080fd5b60006110d784828501611034565b91505092915050565b6110e98161191e565b82525050565b6110f881611930565b82525050565b6111078161193c565b82525050565b61111e6111198261193c565b611a15565b82525050565b61112d81611990565b82525050565b6000611140601e836118a8565b91507f706c6179657220616c7265616479206a6f696e6564207468652067616d6500006000830152602082019050919050565b6000611180601c836118b9565b91507f19457468657265756d205369676e6564204d6573736167653a0a3332000000006000830152601c82019050919050565b60006111c0601c836118a8565b91507f77726f6e67206e756d626572206f6620706c61796572206d6f766573000000006000830152602082019050919050565b6000611200600c836118a8565b91507f6e6f20667265652073706f7400000000000000000000000000000000000000006000830152602082019050919050565b60006112406016836118a8565b91507f696e76616c6964207369676e65722061646472657373000000000000000000006000830152602082019050919050565b60006112806015836118a8565b91507f706c6179657220646f6573206e6f7420657869737400000000000000000000006000830152602082019050919050565b60006112c06016836118a8565b91507f696e76616c6964206d6f7665732070726f7669646564000000000000000000006000830152602082019050919050565b6000611300600f836118a8565b91507f696e76616c6964206164647265737300000000000000000000000000000000006000830152602082019050919050565b6000611340601f836118a8565b91507f76616c756520646f6573206e6f7420657175616c20746f2074686520626574006000830152602082019050919050565b60006113806028836118a8565b91507f7468652067616d652063616e2062652066696e6973686564206f6e6c7920627960008301527f20706c61796572730000000000000000000000000000000000000000000000006020830152604082019050919050565b60006113e66017836118a8565b91507f7468652067616d65206973206e6f7420737461727465640000000000000000006000830152602082019050919050565b6000611426601c836118a8565b91507f7468652067616d6520697320616c72656164792066696e6973686564000000006000830152602082019050919050565b60006114666018836118a8565b91507f696e76616c6964207369676e6174757265206c656e67746800000000000000006000830152602082019050919050565b60006114a6601a836118a8565b91507f706c6179657220697320616c72656164792076657269666965640000000000006000830152602082019050919050565b60006114e66004836118a8565b91507f64726177000000000000000000000000000000000000000000000000000000006000830152602082019050919050565b61152281611979565b82525050565b61153961153482611979565b611a1f565b82525050565b61154881611983565b82525050565b600061155982611173565b9150611565828461110d565b60208201915081905092915050565b60006115808285611528565b6020820191506115908284611528565b6020820191508190509392505050565b60006020820190506115b560008301846110e0565b92915050565b60006080820190506115d060008301876110fe565b6115dd602083018661153f565b6115ea60408301856110fe565b6115f760608301846110fe565b95945050505050565b60006060820190506116156000830186611124565b61162260208301856110ef565b61162f60408301846110ef565b949350505050565b6000602082019050818103600083015261165081611133565b9050919050565b60006020820190508181036000830152611670816111b3565b9050919050565b60006020820190508181036000830152611690816111f3565b9050919050565b600060208201905081810360008301526116b081611233565b9050919050565b600060208201905081810360008301526116d081611273565b9050919050565b600060208201905081810360008301526116f0816112b3565b9050919050565b60006020820190508181036000830152611710816112f3565b9050919050565b6000602082019050818103600083015261173081611333565b9050919050565b6000602082019050818103600083015261175081611373565b9050919050565b60006020820190508181036000830152611770816113d9565b9050919050565b6000602082019050818103600083015261179081611419565b9050919050565b600060208201905081810360008301526117b081611459565b9050919050565b600060208201905081810360008301526117d081611499565b9050919050565b600060208201905081810360008301526117f0816114d9565b9050919050565b600060208201905061180c6000830184611519565b92915050565b6000602082019050611827600083018461153f565b92915050565b6000808335600160200384360303811261184657600080fd5b80840192508235915067ffffffffffffffff82111561186457600080fd5b60208301925060018202360383131561187c57600080fd5b509250929050565b60008235600160800383360303811261189c57600080fd5b80830191505092915050565b600082825260208201905092915050565b600081905092915050565b60006118cf82611979565b91506118da83611979565b9250817fffffffffffffffffffffffffffffffffffffffffffffffffffffffffffffffff048311821515161561191357611912611a29565b5b828202905092915050565b600061192982611959565b9050919050565b60008115159050919050565b6000819050919050565b600081905061195482611a87565b919050565b600073ffffffffffffffffffffffffffffffffffffffff82169050919050565b6000819050919050565b600060ff82169050919050565b600061199b82611946565b9050919050565b60006119ad82611983565b915060008214156119c1576119c0611a29565b5b600182039050919050565b60006119d782611979565b91507fffffffffffffffffffffffffffffffffffffffffffffffffffffffffffffffff821415611a0a57611a09611a29565b5b600182019050919050565b6000819050919050565b6000819050919050565b7f4e487b7100000000000000000000000000000000000000000000000000000000600052601160045260246000fd5b7f4e487b7100000000000000000000000000000000000000000000000000000000600052602160045260246000fd5b60048110611a9857611a97611a58565b5b50565b611aa48161191e565b8114611aaf57600080fd5b50565b60048110611abf57600080fd5b5056fea26469706673582212200fd6d95ed6299844d7c5fd3c153451af0f96ac7106becd17c23eeefffab796f064736f6c63430008000033",
  "linkReferences": {},
  "deployedLinkReferences": {}
}