{
  "_format": "hh-sol-artifact-1",
  "contractName": "RockPaperScissors",
  "sourceName": "contracts/RockPaperScissors.sol",
  "abi": [
    {
      "inputs": [
        {
          "internalType": "uint256",
          "name": "_bet",
          "type": "uint256"
        }
      ],
      "stateMutability": "payable",
      "type": "constructor"
    },
    {
      "anonymous": false,
      "inputs": [
        {
          "indexed": false,
          "internalType": "address",
          "name": "winner",
          "type": "address"
        }
      ],
      "name": "Finished",
      "type": "event"
    },
    {
      "anonymous": false,
      "inputs": [],
      "name": "Started",
      "type": "event"
    },
    {
      "inputs": [],
      "name": "bet",
      "outputs": [
        {
          "internalType": "uint256",
          "name": "",
          "type": "uint256"
        }
      ],
      "stateMutability": "view",
      "type": "function"
    },
    {
      "inputs": [
        {
          "components": [
            {
              "internalType": "address",
              "name": "from",
              "type": "address"
            },
            {
              "internalType": "enum Move",
              "name": "move",
              "type": "uint8"
            },
            {
              "internalType": "uint256",
              "name": "nonce",
              "type": "uint256"
            },
            {
              "internalType": "bytes",
              "name": "signature",
              "type": "bytes"
            }
          ],
          "internalType": "struct PlayerMove[]",
          "name": "_moves",
          "type": "tuple[]"
        }
      ],
      "name": "finish",
      "outputs": [],
      "stateMutability": "nonpayable",
      "type": "function"
    },
    {
      "inputs": [],
      "name": "freeSpots",
      "outputs": [
        {
          "internalType": "uint8",
          "name": "",
          "type": "uint8"
        }
      ],
      "stateMutability": "view",
      "type": "function"
    },
    {
      "inputs": [],
      "name": "join",
      "outputs": [],
      "stateMutability": "payable",
      "type": "function"
    },
    {
      "inputs": [],
      "name": "winner",
      "outputs": [
        {
          "internalType": "address",
          "name": "",
          "type": "address"
        }
      ],
      "stateMutability": "view",
      "type": "function"
    }
  ],
  "bytecode": "0x60806040526040516200238d3803806200238d833981810160405281019062000029919062000917565b336000806101000a81548173ffffffffffffffffffffffffffffffffffffffff021916908373ffffffffffffffffffffffffffffffffffffffff160217905550348114620000ae576040517f08c379a0000000000000000000000000000000000000000000000000000000008152600401620000a59062000985565b60405180910390fd5b8060028190555060016002620000c59190620009b8565b600360006101000a81548160ff021916908360ff16021790555060405180606001604052806000600381111562000125577f4e487b7100000000000000000000000000000000000000000000000000000000600052602160045260246000fd5b815260200160001515815260200160011515815250600460003373ffffffffffffffffffffffffffffffffffffffff1673ffffffffffffffffffffffffffffffffffffffff16815260200190815260200160002060008201518160000160006101000a81548160ff02191690836003811115620001cb577f4e487b7100000000000000000000000000000000000000000000000000000000600052602160045260246000fd5b021790555060208201518160000160016101000a81548160ff02191690831515021790555060408201518160000160026101000a81548160ff021916908315150217905550905050620002236200022a60201b60201c565b5062000a53565b600060056000600160038111156200026b577f4e487b7100000000000000000000000000000000000000000000000000000000600052602160045260246000fd5b6003811115620002a4577f4e487b7100000000000000000000000000000000000000000000000000000000600052602160045260246000fd5b81526020019081526020016000206000600380811115620002ee577f4e487b7100000000000000000000000000000000000000000000000000000000600052602160045260246000fd5b600381111562000327577f4e487b7100000000000000000000000000000000000000000000000000000000600052602160045260246000fd5b815260200190815260200160002060006101000a81548160ff021916908360ff160217905550600160056000600160038111156200038e577f4e487b7100000000000000000000000000000000000000000000000000000000600052602160045260246000fd5b6003811115620003c7577f4e487b7100000000000000000000000000000000000000000000000000000000600052602160045260246000fd5b815260200190815260200160002060006002600381111562000412577f4e487b7100000000000000000000000000000000000000000000000000000000600052602160045260246000fd5b60038111156200044b577f4e487b7100000000000000000000000000000000000000000000000000000000600052602160045260246000fd5b815260200190815260200160002060006101000a81548160ff021916908360ff16021790555060006005600060026003811115620004b2577f4e487b7100000000000000000000000000000000000000000000000000000000600052602160045260246000fd5b6003811115620004eb577f4e487b7100000000000000000000000000000000000000000000000000000000600052602160045260246000fd5b815260200190815260200160002060006001600381111562000536577f4e487b7100000000000000000000000000000000000000000000000000000000600052602160045260246000fd5b60038111156200056f577f4e487b7100000000000000000000000000000000000000000000000000000000600052602160045260246000fd5b815260200190815260200160002060006101000a81548160ff021916908360ff16021790555060016005600060026003811115620005d6577f4e487b7100000000000000000000000000000000000000000000000000000000600052602160045260246000fd5b60038111156200060f577f4e487b7100000000000000000000000000000000000000000000000000000000600052602160045260246000fd5b8152602001908152602001600020600060038081111562000659577f4e487b7100000000000000000000000000000000000000000000000000000000600052602160045260246000fd5b600381111562000692577f4e487b7100000000000000000000000000000000000000000000000000000000600052602160045260246000fd5b815260200190815260200160002060006101000a81548160ff021916908360ff160217905550600060056000600380811115620006f8577f4e487b7100000000000000000000000000000000000000000000000000000000600052602160045260246000fd5b600381111562000731577f4e487b7100000000000000000000000000000000000000000000000000000000600052602160045260246000fd5b81526020019081526020016000206000600160038111156200077c577f4e487b7100000000000000000000000000000000000000000000000000000000600052602160045260246000fd5b6003811115620007b5577f4e487b7100000000000000000000000000000000000000000000000000000000600052602160045260246000fd5b815260200190815260200160002060006101000a81548160ff021916908360ff1602179055506001600560006003808111156200081b577f4e487b7100000000000000000000000000000000000000000000000000000000600052602160045260246000fd5b600381111562000854577f4e487b7100000000000000000000000000000000000000000000000000000000600052602160045260246000fd5b81526020019081526020016000206000600260038111156200089f577f4e487b7100000000000000000000000000000000000000000000000000000000600052602160045260246000fd5b6003811115620008d8577f4e487b7100000000000000000000000000000000000000000000000000000000600052602160045260246000fd5b815260200190815260200160002060006101000a81548160ff021916908360ff160217905550565b600081519050620009118162000a39565b92915050565b6000602082840312156200092a57600080fd5b60006200093a8482850162000900565b91505092915050565b600062000952600d83620009a7565b91507f696e76616c69642076616c7565000000000000000000000000000000000000006000830152602082019050919050565b60006020820190508181036000830152620009a08162000943565b9050919050565b600082825260208201905092915050565b6000620009c582620009fd565b9150620009d283620009fd565b925082821015620009e857620009e762000a0a565b5b828203905092915050565b6000819050919050565b600060ff82169050919050565b7f4e487b7100000000000000000000000000000000000000000000000000000000600052601160045260246000fd5b62000a4481620009f3565b811462000a5057600080fd5b50565b61192a8062000a636000396000f3fe60806040526004361061004a5760003560e01c806311610c251461004f57806341e6ffb41461007a578063496b5ed9146100a5578063b688a363146100ce578063dfbf53ae146100d8575b600080fd5b34801561005b57600080fd5b50610064610103565b604051610071919061169d565b60405180910390f35b34801561008657600080fd5b5061008f610109565b60405161009c91906116b8565b60405180910390f35b3480156100b157600080fd5b506100cc60048036038101906100c79190610f6d565b61011c565b005b6100d6610bcd565b005b3480156100e457600080fd5b506100ed610eaa565b6040516100fa919061147d565b60405180910390f35b60025481565b600360009054906101000a900460ff1681565b600073ffffffffffffffffffffffffffffffffffffffff16600160009054906101000a900473ffffffffffffffffffffffffffffffffffffffff1673ffffffffffffffffffffffffffffffffffffffff16146101ad576040517f08c379a00000000000000000000000000000000000000000000000000000000081526004016101a49061161d565b60405180910390fd5b600260ff1682829050146101f6576040517f08c379a00000000000000000000000000000000000000000000000000000000081526004016101ed906114fd565b60405180910390fd5b6000600360009054906101000a900460ff1660ff161461024b576040517f08c379a0000000000000000000000000000000000000000000000000000000008152600401610242906115fd565b60405180910390fd5b6000806000806000805b878790508110156106e8573688888381811061029a577f4e487b7100000000000000000000000000000000000000000000000000000000600052603260045260246000fd5b90506020028101906102ac919061172a565b9050600073ffffffffffffffffffffffffffffffffffffffff168160000160208101906102d99190610f44565b73ffffffffffffffffffffffffffffffffffffffff161415610330576040517f08c379a00000000000000000000000000000000000000000000000000000000081526004016103279061159d565b60405180910390fd5b604181806060019061034291906116d3565b905014610384576040517f08c379a000000000000000000000000000000000000000000000000000000000815260040161037b9061163d565b60405180910390fd5b60006004600083600001602081019061039d9190610f44565b73ffffffffffffffffffffffffffffffffffffffff1673ffffffffffffffffffffffffffffffffffffffff16815260200190815260200160002090508060000160029054906101000a900460ff1661042a576040517f08c379a00000000000000000000000000000000000000000000000000000000081526004016104219061155d565b60405180910390fd5b8060000160019054906101000a900460ff161561047c576040517f08c379a00000000000000000000000000000000000000000000000000000000081526004016104739061165d565b60405180910390fd5b81604001358260400135604051602001610497929190611451565b604051602081830303815290604052805190602001206040516020016104bd919061142b565b60405160208183030381529060405280519060200120975060008280606001906104e791906116d3565b8080601f016020809104026020016040519081016040528093929190818152602001838380828437600081840152601f19601f8201169050808301925050505050505090506020810151975060408101519650606081015160001a9550600060018a888b8b604051600081526020016040526040516105699493929190611498565b6020604051602081039080840390855afa15801561058b573d6000803e3d6000fd5b5050506020604051035190508360000160208101906105aa9190610f44565b73ffffffffffffffffffffffffffffffffffffffff168173ffffffffffffffffffffffffffffffffffffffff1614610617576040517f08c379a000000000000000000000000000000000000000000000000000000000815260040161060e9061153d565b60405180910390fd5b60018360000160016101000a81548160ff0219169083151502179055508360200160208101906106479190610fb2565b8360000160006101000a81548160ff02191690836003811115610693577f4e487b7100000000000000000000000000000000000000000000000000000000600052602160045260246000fd5b02179055508073ffffffffffffffffffffffffffffffffffffffff163373ffffffffffffffffffffffffffffffffffffffff1614156106d157600195505b5050505080806106e090611841565b915050610255565b5080610729576040517f08c379a0000000000000000000000000000000000000000000000000000000008152600401610720906115dd565b60405180910390fd5b600087876000818110610765577f4e487b7100000000000000000000000000000000000000000000000000000000600052603260045260246000fd5b9050602002810190610777919061172a565b60200160208101906107899190610fb2565b90506000888860018181106107c7577f4e487b7100000000000000000000000000000000000000000000000000000000600052603260045260246000fd5b90506020028101906107d9919061172a565b60200160208101906107eb9190610fb2565b9050806003811115610826577f4e487b7100000000000000000000000000000000000000000000000000000000600052602160045260246000fd5b82600381111561085f577f4e487b7100000000000000000000000000000000000000000000000000000000600052602160045260246000fd5b14156108a0576040517f08c379a00000000000000000000000000000000000000000000000000000000081526004016108979061167d565b60405180910390fd5b8888600560008560038111156108df577f4e487b7100000000000000000000000000000000000000000000000000000000600052602160045260246000fd5b6003811115610917577f4e487b7100000000000000000000000000000000000000000000000000000000600052602160045260246000fd5b81526020019081526020016000206000846003811115610960577f4e487b7100000000000000000000000000000000000000000000000000000000600052602160045260246000fd5b6003811115610998577f4e487b7100000000000000000000000000000000000000000000000000000000600052602160045260246000fd5b815260200190815260200160002060009054906101000a900460ff1660ff168181106109ed577f4e487b7100000000000000000000000000000000000000000000000000000000600052603260045260246000fd5b90506020028101906109ff919061172a565b6000016020810190610a119190610f44565b600160006101000a81548173ffffffffffffffffffffffffffffffffffffffff021916908373ffffffffffffffffffffffffffffffffffffffff160217905550600073ffffffffffffffffffffffffffffffffffffffff16600160009054906101000a900473ffffffffffffffffffffffffffffffffffffffff1673ffffffffffffffffffffffffffffffffffffffff161415610ae3576040517f08c379a0000000000000000000000000000000000000000000000000000000008152600401610ada9061157d565b60405180910390fd5b60006002541115610b6957600160009054906101000a900473ffffffffffffffffffffffffffffffffffffffff1673ffffffffffffffffffffffffffffffffffffffff166108fc600260ff16600254610b3c919061176a565b9081150290604051600060405180830381858888f19350505050158015610b67573d6000803e3d6000fd5b505b7fe6782ef5425ff7b9fdd779270f985cd651ea84df7bcf21f9ed6d9f29dceeb1c9600160009054906101000a900473ffffffffffffffffffffffffffffffffffffffff16604051610bba919061147d565b60405180910390a1505050505050505050565b6002543414610c11576040517f08c379a0000000000000000000000000000000000000000000000000000000008152600401610c08906115bd565b60405180910390fd5b6000600360009054906101000a900460ff1660ff1611610c66576040517f08c379a0000000000000000000000000000000000000000000000000000000008152600401610c5d9061151d565b60405180910390fd5b600460003373ffffffffffffffffffffffffffffffffffffffff1673ffffffffffffffffffffffffffffffffffffffff16815260200190815260200160002060000160029054906101000a900460ff1615610cf6576040517f08c379a0000000000000000000000000000000000000000000000000000000008152600401610ced906114dd565b60405180910390fd5b6003600081819054906101000a900460ff1680929190610d1590611817565b91906101000a81548160ff021916908360ff160217905550506000600360009054906101000a900460ff1660ff161415610d76577fd8cea0ecd56872ff072e771658b5682ffe4de16d752947f79597d600ea56f7a960405160405180910390a15b604051806060016040528060006003811115610dbb577f4e487b7100000000000000000000000000000000000000000000000000000000600052602160045260246000fd5b815260200160001515815260200160011515815250600460003373ffffffffffffffffffffffffffffffffffffffff1673ffffffffffffffffffffffffffffffffffffffff16815260200190815260200160002060008201518160000160006101000a81548160ff02191690836003811115610e60577f4e487b7100000000000000000000000000000000000000000000000000000000600052602160045260246000fd5b021790555060208201518160000160016101000a81548160ff02191690831515021790555060408201518160000160026101000a81548160ff021916908315150217905550905050565b600160009054906101000a900473ffffffffffffffffffffffffffffffffffffffff1681565b600081359050610edf816118cd565b92915050565b60008083601f840112610ef757600080fd5b8235905067ffffffffffffffff811115610f1057600080fd5b602083019150836020820283011115610f2857600080fd5b9250929050565b600081359050610f3e816118e4565b92915050565b600060208284031215610f5657600080fd5b6000610f6484828501610ed0565b91505092915050565b60008060208385031215610f8057600080fd5b600083013567ffffffffffffffff811115610f9a57600080fd5b610fa685828601610ee5565b92509250509250929050565b600060208284031215610fc457600080fd5b6000610fd284828501610f2f565b91505092915050565b610fe4816117c4565b82525050565b610ff3816117d6565b82525050565b61100a611005826117d6565b61188a565b82525050565b600061101d601e8361174e565b91507f706c6179657220616c7265616479206a6f696e6564207468652067616d6500006000830152602082019050919050565b600061105d601c8361175f565b91507f19457468657265756d205369676e6564204d6573736167653a0a3332000000006000830152601c82019050919050565b600061109d601c8361174e565b91507f77726f6e67206e756d626572206f6620706c61796572206d6f766573000000006000830152602082019050919050565b60006110dd600c8361174e565b91507f6e6f20667265652073706f7400000000000000000000000000000000000000006000830152602082019050919050565b600061111d60168361174e565b91507f696e76616c6964207369676e65722061646472657373000000000000000000006000830152602082019050919050565b600061115d60158361174e565b91507f706c6179657220646f6573206e6f7420657869737400000000000000000000006000830152602082019050919050565b600061119d60168361174e565b91507f696e76616c6964206d6f7665732070726f7669646564000000000000000000006000830152602082019050919050565b60006111dd600f8361174e565b91507f696e76616c6964206164647265737300000000000000000000000000000000006000830152602082019050919050565b600061121d601f8361174e565b91507f76616c756520646f6573206e6f7420657175616c20746f2074686520626574006000830152602082019050919050565b600061125d60288361174e565b91507f7468652067616d652063616e2062652066696e6973686564206f6e6c7920627960008301527f20706c61796572730000000000000000000000000000000000000000000000006020830152604082019050919050565b60006112c360178361174e565b91507f7468652067616d65206973206e6f7420737461727465640000000000000000006000830152602082019050919050565b6000611303601c8361174e565b91507f7468652067616d6520697320616c72656164792066696e6973686564000000006000830152602082019050919050565b600061134360188361174e565b91507f696e76616c6964207369676e6174757265206c656e67746800000000000000006000830152602082019050919050565b6000611383601a8361174e565b91507f706c6179657220697320616c72656164792076657269666965640000000000006000830152602082019050919050565b60006113c360048361174e565b91507f64726177000000000000000000000000000000000000000000000000000000006000830152602082019050919050565b6113ff81611800565b82525050565b61141661141182611800565b611894565b82525050565b6114258161180a565b82525050565b600061143682611050565b91506114428284610ff9565b60208201915081905092915050565b600061145d8285611405565b60208201915061146d8284611405565b6020820191508190509392505050565b60006020820190506114926000830184610fdb565b92915050565b60006080820190506114ad6000830187610fea565b6114ba602083018661141c565b6114c76040830185610fea565b6114d46060830184610fea565b95945050505050565b600060208201905081810360008301526114f681611010565b9050919050565b6000602082019050818103600083015261151681611090565b9050919050565b60006020820190508181036000830152611536816110d0565b9050919050565b6000602082019050818103600083015261155681611110565b9050919050565b6000602082019050818103600083015261157681611150565b9050919050565b6000602082019050818103600083015261159681611190565b9050919050565b600060208201905081810360008301526115b6816111d0565b9050919050565b600060208201905081810360008301526115d681611210565b9050919050565b600060208201905081810360008301526115f681611250565b9050919050565b60006020820190508181036000830152611616816112b6565b9050919050565b60006020820190508181036000830152611636816112f6565b9050919050565b6000602082019050818103600083015261165681611336565b9050919050565b6000602082019050818103600083015261167681611376565b9050919050565b60006020820190508181036000830152611696816113b6565b9050919050565b60006020820190506116b260008301846113f6565b92915050565b60006020820190506116cd600083018461141c565b92915050565b600080833560016020038436030381126116ec57600080fd5b80840192508235915067ffffffffffffffff82111561170a57600080fd5b60208301925060018202360383131561172257600080fd5b509250929050565b60008235600160800383360303811261174257600080fd5b80830191505092915050565b600082825260208201905092915050565b600081905092915050565b600061177582611800565b915061178083611800565b9250817fffffffffffffffffffffffffffffffffffffffffffffffffffffffffffffffff04831182151516156117b9576117b861189e565b5b828202905092915050565b60006117cf826117e0565b9050919050565b6000819050919050565b600073ffffffffffffffffffffffffffffffffffffffff82169050919050565b6000819050919050565b600060ff82169050919050565b60006118228261180a565b915060008214156118365761183561189e565b5b600182039050919050565b600061184c82611800565b91507fffffffffffffffffffffffffffffffffffffffffffffffffffffffffffffffff82141561187f5761187e61189e565b5b600182019050919050565b6000819050919050565b6000819050919050565b7f4e487b7100000000000000000000000000000000000000000000000000000000600052601160045260246000fd5b6118d6816117c4565b81146118e157600080fd5b50565b600481106118f157600080fd5b5056fea2646970667358221220c91659d795a997fa3b52fe735a9b2d2ff31be844a23232a2f7d73cb584e56a3764736f6c63430008000033",
  "linkReferences": {},
  "deployedLinkReferences": {}
}