{
  "contractName": "Crowdfunding",
  "abi": [
    {
      "inputs": [
        {
          "internalType": "string",
          "name": "_name",
          "type": "string"
        },
        {
          "internalType": "string",
          "name": "_description",
          "type": "string"
        },
        {
          "internalType": "uint256",
          "name": "_targetAmount",
          "type": "uint256"
        },
        {
          "internalType": "address",
          "name": "_target",
          "type": "address"
        }
      ],
      "stateMutability": "nonpayable",
      "type": "constructor"
    },
    {
      "anonymous": false,
      "inputs": [
        {
          "indexed": false,
          "internalType": "string",
          "name": "message",
          "type": "string"
        },
        {
          "indexed": false,
          "internalType": "uint256",
          "name": "amount",
          "type": "uint256"
        }
      ],
      "name": "NewDonation",
      "type": "event"
    },
    {
      "stateMutability": "payable",
      "type": "receive",
      "payable": true
    },
    {
      "inputs": [
        {
          "internalType": "uint256",
          "name": "_expiresIn",
          "type": "uint256"
        }
      ],
      "name": "start",
      "outputs": [],
      "stateMutability": "nonpayable",
      "type": "function"
    },
    {
      "inputs": [],
      "name": "getInfo",
      "outputs": [
        {
          "components": [
            {
              "internalType": "address",
              "name": "owner",
              "type": "address"
            },
            {
              "internalType": "string",
              "name": "name",
              "type": "string"
            },
            {
              "internalType": "string",
              "name": "description",
              "type": "string"
            },
            {
              "internalType": "uint256",
              "name": "currentAmount",
              "type": "uint256"
            },
            {
              "internalType": "uint256",
              "name": "targetAmount",
              "type": "uint256"
            },
            {
              "internalType": "address",
              "name": "target",
              "type": "address"
            },
            {
              "internalType": "uint256",
              "name": "startedAt",
              "type": "uint256"
            },
            {
              "internalType": "uint256",
              "name": "expiresAt",
              "type": "uint256"
            },
            {
              "internalType": "bool",
              "name": "ended",
              "type": "bool"
            }
          ],
          "internalType": "struct CrowdfundingInfo",
          "name": "",
          "type": "tuple"
        }
      ],
      "stateMutability": "view",
      "type": "function",
      "constant": true
    },
    {
      "inputs": [
        {
          "internalType": "string",
          "name": "message",
          "type": "string"
        }
      ],
      "name": "donate",
      "outputs": [],
      "stateMutability": "payable",
      "type": "function",
      "payable": true
    },
    {
      "inputs": [],
      "name": "getDonation",
      "outputs": [
        {
          "components": [
            {
              "internalType": "string",
              "name": "message",
              "type": "string"
            },
            {
              "internalType": "uint256",
              "name": "amount",
              "type": "uint256"
            },
            {
              "internalType": "uint256",
              "name": "createdAt",
              "type": "uint256"
            }
          ],
          "internalType": "struct Donation",
          "name": "",
          "type": "tuple"
        }
      ],
      "stateMutability": "view",
      "type": "function",
      "constant": true
    },
    {
      "inputs": [],
      "name": "withdraw",
      "outputs": [],
      "stateMutability": "nonpayable",
      "type": "function"
    }
  ],
  "bytecode": "0x60806040523480156200001157600080fd5b5060405162001bc038038062001bc0833981810160405281019062000037919062000294565b600082116200004557600080fd5b600073ffffffffffffffffffffffffffffffffffffffff168173ffffffffffffffffffffffffffffffffffffffff1614156200008057600080fd5b336000806101000a81548173ffffffffffffffffffffffffffffffffffffffff021916908373ffffffffffffffffffffffffffffffffffffffff1602179055508360019080519060200190620000d892919062000144565b508260029080519060200190620000f192919062000144565b508160048190555080600560006101000a81548173ffffffffffffffffffffffffffffffffffffffff021916908373ffffffffffffffffffffffffffffffffffffffff16021790555050505050620004d5565b82805462000152906200040d565b90600052602060002090601f016020900481019282620001765760008555620001c2565b82601f106200019157805160ff1916838001178555620001c2565b82800160010185558215620001c2579182015b82811115620001c1578251825591602001919060010190620001a4565b5b509050620001d19190620001d5565b5090565b5b80821115620001f0576000816000905550600101620001d6565b5090565b60006200020b620002058462000366565b62000332565b9050828152602081018484840111156200022457600080fd5b62000231848285620003d7565b509392505050565b6000815190506200024a81620004a1565b92915050565b600082601f8301126200026257600080fd5b815162000274848260208601620001f4565b91505092915050565b6000815190506200028e81620004bb565b92915050565b60008060008060808587031215620002ab57600080fd5b600085015167ffffffffffffffff811115620002c657600080fd5b620002d48782880162000250565b945050602085015167ffffffffffffffff811115620002f257600080fd5b620003008782880162000250565b935050604062000313878288016200027d565b9250506060620003268782880162000239565b91505092959194509250565b6000604051905081810181811067ffffffffffffffff821117156200035c576200035b62000472565b5b8060405250919050565b600067ffffffffffffffff82111562000384576200038362000472565b5b601f19601f8301169050602081019050919050565b6000620003a682620003ad565b9050919050565b600073ffffffffffffffffffffffffffffffffffffffff82169050919050565b6000819050919050565b60005b83811015620003f7578082015181840152602081019050620003da565b8381111562000407576000848401525b50505050565b600060028204905060018216806200042657607f821691505b602082108114156200043d576200043c62000443565b5b50919050565b7f4e487b7100000000000000000000000000000000000000000000000000000000600052602260045260246000fd5b7f4e487b7100000000000000000000000000000000000000000000000000000000600052604160045260246000fd5b620004ac8162000399565b8114620004b857600080fd5b50565b620004c681620003cd565b8114620004d257600080fd5b50565b6116db80620004e56000396000f3fe60806040526004361061004e5760003560e01c80633ccfd60b146100935780634bf71729146100aa5780635a9b0b89146100d557806395805dad14610100578063b5aebc80146101295761008e565b3661008e576040517f08c379a000000000000000000000000000000000000000000000000000000000815260040161008590611368565b60405180910390fd5b600080fd5b34801561009f57600080fd5b506100a8610145565b005b3480156100b657600080fd5b506100bf6103c3565b6040516100cc919061148a565b60405180910390f35b3480156100e157600080fd5b506100ea6104c0565b6040516100f79190611468565b60405180910390f35b34801561010c57600080fd5b5061012760048036038101906101229190610dcf565b6106a8565b005b610143600480360381019061013e9190610d8a565b6107dc565b005b6000600560009054906101000a900473ffffffffffffffffffffffffffffffffffffffff1673ffffffffffffffffffffffffffffffffffffffff163373ffffffffffffffffffffffffffffffffffffffff1614156101f657600960009054906101000a900460ff166101ec576040517f08c379a00000000000000000000000000000000000000000000000000000000081526004016101e3906112e8565b60405180910390fd5b6003549050610356565b600960009054906101000a900460ff1615610246576040517f08c379a000000000000000000000000000000000000000000000000000000000815260040161023d906113c8565b60405180910390fd5b60085442101561028b576040517f08c379a000000000000000000000000000000000000000000000000000000000815260040161028290611388565b60405180910390fd5b6000600660003373ffffffffffffffffffffffffffffffffffffffff1673ffffffffffffffffffffffffffffffffffffffff1681526020019081526020016000206002015411610310576040517f08c379a0000000000000000000000000000000000000000000000000000000008152600401610307906113a8565b60405180910390fd5b600660003373ffffffffffffffffffffffffffffffffffffffff1673ffffffffffffffffffffffffffffffffffffffff1681526020019081526020016000206001015490505b60008111156103c0578060036000828254610371919061152f565b925050819055503373ffffffffffffffffffffffffffffffffffffffff166108fc829081150290604051600060405180830381858888f193505050501580156103be573d6000803e3d6000fd5b505b50565b6103cb610bed565b600660003373ffffffffffffffffffffffffffffffffffffffff1673ffffffffffffffffffffffffffffffffffffffff168152602001908152602001600020604051806060016040529081600082018054610425906115ed565b80601f0160208091040260200160405190810160405280929190818152602001828054610451906115ed565b801561049e5780601f106104735761010080835404028352916020019161049e565b820191906000526020600020905b81548152906001019060200180831161048157829003601f168201915b5050505050815260200160018201548152602001600282015481525050905090565b6104c8610c0e565b60405180610120016040528060008054906101000a900473ffffffffffffffffffffffffffffffffffffffff1673ffffffffffffffffffffffffffffffffffffffff1681526020016001805461051d906115ed565b80601f0160208091040260200160405190810160405280929190818152602001828054610549906115ed565b80156105965780601f1061056b57610100808354040283529160200191610596565b820191906000526020600020905b81548152906001019060200180831161057957829003601f168201915b50505050508152602001600280546105ad906115ed565b80601f01602080910402602001604051908101604052809291908181526020018280546105d9906115ed565b80156106265780601f106105fb57610100808354040283529160200191610626565b820191906000526020600020905b81548152906001019060200180831161060957829003601f168201915b5050505050815260200160035481526020016004548152602001600560009054906101000a900473ffffffffffffffffffffffffffffffffffffffff1673ffffffffffffffffffffffffffffffffffffffff16815260200160075481526020016008548152602001600960009054906101000a900460ff161515815250905090565b60008054906101000a900473ffffffffffffffffffffffffffffffffffffffff1673ffffffffffffffffffffffffffffffffffffffff163373ffffffffffffffffffffffffffffffffffffffff1614610736576040517f08c379a000000000000000000000000000000000000000000000000000000000815260040161072d90611448565b60405180910390fd5b60008111610779576040517f08c379a000000000000000000000000000000000000000000000000000000000815260040161077090611428565b60405180910390fd5b6000600854146107be576040517f08c379a00000000000000000000000000000000000000000000000000000000081526004016107b590611308565b60405180910390fd5b42600781905550806007546107d391906114d9565b60088190555050565b600560009054906101000a900473ffffffffffffffffffffffffffffffffffffffff1673ffffffffffffffffffffffffffffffffffffffff163373ffffffffffffffffffffffffffffffffffffffff16141561086d576040517f08c379a000000000000000000000000000000000000000000000000000000000815260040161086490611448565b60405180910390fd5b6000600660003373ffffffffffffffffffffffffffffffffffffffff1673ffffffffffffffffffffffffffffffffffffffff16815260200190815260200160002060020154146108f2576040517f08c379a00000000000000000000000000000000000000000000000000000000081526004016108e9906113e8565b60405180910390fd5b60006008541415610938576040517f08c379a000000000000000000000000000000000000000000000000000000000815260040161092f90611348565b60405180910390fd5b600854421061097c576040517f08c379a000000000000000000000000000000000000000000000000000000000815260040161097390611408565b60405180910390fd5b600034116109bf576040517f08c379a00000000000000000000000000000000000000000000000000000000081526004016109b690611328565b60405180910390fd5b60045460035410610a05576040517f08c379a00000000000000000000000000000000000000000000000000000000081526004016109fc906113c8565b60405180910390fd5b60003490508060036000828254610a1c91906114d9565b925050819055506004546003541115610ab3576000600454600354610a41919061152f565b90508082610a4f919061152f565b91508060036000828254610a63919061152f565b925050819055503373ffffffffffffffffffffffffffffffffffffffff166108fc829081150290604051600060405180830381858888f19350505050158015610ab0573d6000803e3d6000fd5b50505b6004546003541415610adb576001600960006101000a81548160ff0219169083151502179055505b604051806060016040528084848080601f016020809104026020016040519081016040528093929190818152602001838380828437600081840152601f19601f82011690508083019250505050505050815260200182815260200142815250600660003373ffffffffffffffffffffffffffffffffffffffff1673ffffffffffffffffffffffffffffffffffffffff1681526020019081526020016000206000820151816000019080519060200190610b95929190610c88565b5060208201518160010155604082015181600201559050507f4e0389c0d7ed837c1c99f31c66694ab042fa67bdf25d7f2f40d01273a65971ec838383604051610be0939291906112b6565b60405180910390a1505050565b60405180606001604052806060815260200160008152602001600081525090565b604051806101200160405280600073ffffffffffffffffffffffffffffffffffffffff16815260200160608152602001606081526020016000815260200160008152602001600073ffffffffffffffffffffffffffffffffffffffff16815260200160008152602001600081526020016000151581525090565b828054610c94906115ed565b90600052602060002090601f016020900481019282610cb65760008555610cfd565b82601f10610ccf57805160ff1916838001178555610cfd565b82800160010185558215610cfd579182015b82811115610cfc578251825591602001919060010190610ce1565b5b509050610d0a9190610d0e565b5090565b5b80821115610d27576000816000905550600101610d0f565b5090565b60008083601f840112610d3d57600080fd5b8235905067ffffffffffffffff811115610d5657600080fd5b602083019150836001820283011115610d6e57600080fd5b9250929050565b600081359050610d848161168e565b92915050565b60008060208385031215610d9d57600080fd5b600083013567ffffffffffffffff811115610db757600080fd5b610dc385828601610d2b565b92509250509250929050565b600060208284031215610de157600080fd5b6000610def84828501610d75565b91505092915050565b610e0181611563565b82525050565b610e1081611575565b82525050565b6000610e2283856114c8565b9350610e2f8385846115ab565b610e388361167d565b840190509392505050565b6000610e4e826114ac565b610e5881856114b7565b9350610e688185602086016115ba565b610e718161167d565b840191505092915050565b6000610e89601a836114c8565b91507f43463a20616d6f756e742069736e277420636f6c6c65637465640000000000006000830152602082019050919050565b6000610ec96013836114c8565b91507f43463a20616c72656164792073746172746564000000000000000000000000006000830152602082019050919050565b6000610f09600e836114c8565b91507f43463a2076616c756520697320300000000000000000000000000000000000006000830152602082019050919050565b6000610f49600f836114c8565b91507f43463a206e6f74207374617274656400000000000000000000000000000000006000830152602082019050919050565b6000610f896019836114c8565b91507f75736520646f6e617465206d6574686f6420696e7374656164000000000000006000830152602082019050919050565b6000610fc9601a836114c8565b91507f43463a20636f6e74726163742069736e277420657870697265640000000000006000830152602082019050919050565b60006110096016836114c8565b91507f43463a20646f6e6174696f6e206e6f7420666f756e64000000000000000000006000830152602082019050919050565b60006110496017836114c8565b91507f43463a20616d6f756e7420697320636f6c6c65637465640000000000000000006000830152602082019050919050565b60006110896013836114c8565b91507f43463a20616c726561647920646f6e61746564000000000000000000000000006000830152602082019050919050565b60006110c9600b836114c8565b91507f43463a20657870697265640000000000000000000000000000000000000000006000830152602082019050919050565b60006111096012836114c8565b91507f43463a2077726f6e67206475726174696f6e00000000000000000000000000006000830152602082019050919050565b60006111496011836114c8565b91507f43463a2077726f6e6720616464726573730000000000000000000000000000006000830152602082019050919050565b6000610120830160008301516111956000860182610df8565b50602083015184820360208601526111ad8282610e43565b915050604083015184820360408601526111c78282610e43565b91505060608301516111dc6060860182611298565b5060808301516111ef6080860182611298565b5060a083015161120260a0860182610df8565b5060c083015161121560c0860182611298565b5060e083015161122860e0860182611298565b5061010083015161123d610100860182610e07565b508091505092915050565b600060608301600083015184820360008601526112658282610e43565b915050602083015161127a6020860182611298565b50604083015161128d6040860182611298565b508091505092915050565b6112a1816115a1565b82525050565b6112b0816115a1565b82525050565b600060408201905081810360008301526112d1818587610e16565b90506112e060208301846112a7565b949350505050565b6000602082019050818103600083015261130181610e7c565b9050919050565b6000602082019050818103600083015261132181610ebc565b9050919050565b6000602082019050818103600083015261134181610efc565b9050919050565b6000602082019050818103600083015261136181610f3c565b9050919050565b6000602082019050818103600083015261138181610f7c565b9050919050565b600060208201905081810360008301526113a181610fbc565b9050919050565b600060208201905081810360008301526113c181610ffc565b9050919050565b600060208201905081810360008301526113e18161103c565b9050919050565b600060208201905081810360008301526114018161107c565b9050919050565b60006020820190508181036000830152611421816110bc565b9050919050565b60006020820190508181036000830152611441816110fc565b9050919050565b600060208201905081810360008301526114618161113c565b9050919050565b60006020820190508181036000830152611482818461117c565b905092915050565b600060208201905081810360008301526114a48184611248565b905092915050565b600081519050919050565b600082825260208201905092915050565b600082825260208201905092915050565b60006114e4826115a1565b91506114ef836115a1565b9250827fffffffffffffffffffffffffffffffffffffffffffffffffffffffffffffffff038211156115245761152361161f565b5b828201905092915050565b600061153a826115a1565b9150611545836115a1565b9250828210156115585761155761161f565b5b828203905092915050565b600061156e82611581565b9050919050565b60008115159050919050565b600073ffffffffffffffffffffffffffffffffffffffff82169050919050565b6000819050919050565b82818337600083830152505050565b60005b838110156115d85780820151818401526020810190506115bd565b838111156115e7576000848401525b50505050565b6000600282049050600182168061160557607f821691505b602082108114156116195761161861164e565b5b50919050565b7f4e487b7100000000000000000000000000000000000000000000000000000000600052601160045260246000fd5b7f4e487b7100000000000000000000000000000000000000000000000000000000600052602260045260246000fd5b6000601f19601f8301169050919050565b611697816115a1565b81146116a257600080fd5b5056fea264697066735822122043fbd4d4b09ae3e885156f70852f3f8718b24b043bf11897c78fc6b93d275bb664736f6c63430008000033",
  "immutableReferences": {},
  "source": "// SPDX-License-Identifier: MIT\npragma solidity ^0.8.0;\n\nimport \"./ICrowdfunding.sol\";\n\ncontract Crowdfunding is ICrowdfunding {\n    address owner;\n    string name;\n    string description;\n    uint currentAmount;\n    uint targetAmount;\n    address target;\n    mapping(address => Donation) donations;\n    uint startedAt;\n    uint expiresAt;\n    bool ended;\n\n    event NewDonation(string message, uint amount);\n\n    constructor(string memory _name, string memory _description, uint _targetAmount, address _target) {\n        require(_targetAmount > 0);\n        require(_target != address(0));\n\n        owner = msg.sender;\n        name = _name;\n        description = _description;\n        targetAmount = _targetAmount;\n        target = _target;\n    }\n\n    function start(uint _expiresIn) external override {\n        require(msg.sender == owner, \"CF: wrong address\");\n        require(_expiresIn > 0, \"CF: wrong duration\");\n        require(expiresAt == 0, \"CF: already started\");\n\n        startedAt = block.timestamp;\n        expiresAt = startedAt + _expiresIn;\n    }\n\n    function getInfo() external view override returns(CrowdfundingInfo memory) {\n        return CrowdfundingInfo({\n            owner: owner,\n            name: name,\n            description: description,\n            currentAmount: currentAmount,\n            targetAmount: targetAmount,\n            target: target,\n            startedAt: startedAt,\n            expiresAt: expiresAt,\n            ended: ended\n        });\n    }\n\n    function donate(string calldata message) external payable override {\n        require(msg.sender != target, \"CF: wrong address\");\n        require(donations[msg.sender].createdAt == 0, \"CF: already donated\");\n        require(expiresAt != 0, \"CF: not started\");\n        require(block.timestamp < expiresAt, \"CF: expired\");\n        require(msg.value > 0, \"CF: value is 0\");\n\n        require(currentAmount < targetAmount, \"CF: amount is collected\");\n\n        uint amount = msg.value;\n        currentAmount += amount;\n\n        if (currentAmount > targetAmount) {\n            uint rebate = currentAmount - targetAmount;\n            amount -= rebate;\n            currentAmount -= rebate;\n            payable (msg.sender).transfer(rebate);\n        }\n\n        if (currentAmount == targetAmount) {\n            ended = true;\n        }\n\n        donations[msg.sender] = Donation({\n            message: message,\n            amount: amount,\n            createdAt: block.timestamp\n        });\n\n        emit NewDonation(message, amount);\n    }\n\n    function getDonation() external view override returns(Donation memory) {\n        return donations[msg.sender];\n    }\n\n    function withdraw() external override {\n        uint amount;\n\n        if (msg.sender == target) {\n            require(ended, \"CF: amount isn't collected\");\n\n            amount = currentAmount;\n        } else {\n            require(!ended, \"CF: amount is collected\");\n            require(block.timestamp >= expiresAt, \"CF: contract isn't expired\");\n            require(donations[msg.sender].createdAt > 0, \"CF: donation not found\");\n\n            amount = donations[msg.sender].amount;\n        }\n\n        if (amount > 0) {\n            currentAmount -= amount;\n            payable(msg.sender).transfer(amount);\n        }\n    }\n\n    receive() external payable {\n        revert(\"use donate method instead\");\n    }\n}\n",
  "sourcePath": "/home/void/ethereum/js/vue-material/contracts/Crowdfunding.sol",
  "compiler": {
    "name": "solc",
    "version": "0.8.0+commit.c7dfd78e.Emscripten.clang"
  },
  "schemaVersion": "3.4.3",
  "updatedAt": "2021-10-28T20:01:22.621Z",
  "networkType": "ethereum",
  "devdoc": {
    "kind": "dev",
    "methods": {},
    "version": 1
  },
  "userdoc": {
    "kind": "user",
    "methods": {},
    "version": 1
  }
}