{
  "contractName": "Crowdfunding",
  "abi": [
    {
      "inputs": [
        {
          "internalType": "string",
          "name": "_description",
          "type": "string"
        },
        {
          "internalType": "uint256",
          "name": "_targetAmount",
          "type": "uint256"
        },
        {
          "internalType": "address",
          "name": "_target",
          "type": "address"
        }
      ],
      "stateMutability": "nonpayable",
      "type": "constructor"
    },
    {
      "anonymous": false,
      "inputs": [
        {
          "indexed": false,
          "internalType": "string",
          "name": "message",
          "type": "string"
        },
        {
          "indexed": false,
          "internalType": "uint256",
          "name": "amount",
          "type": "uint256"
        }
      ],
      "name": "NewDonation",
      "type": "event"
    },
    {
      "stateMutability": "payable",
      "type": "receive"
    },
    {
      "inputs": [
        {
          "internalType": "uint256",
          "name": "_expiresIn",
          "type": "uint256"
        }
      ],
      "name": "start",
      "outputs": [],
      "stateMutability": "nonpayable",
      "type": "function"
    },
    {
      "inputs": [],
      "name": "getInfo",
      "outputs": [
        {
          "components": [
            {
              "internalType": "address",
              "name": "owner",
              "type": "address"
            },
            {
              "internalType": "string",
              "name": "description",
              "type": "string"
            },
            {
              "internalType": "uint256",
              "name": "currentAmount",
              "type": "uint256"
            },
            {
              "internalType": "uint256",
              "name": "targetAmount",
              "type": "uint256"
            },
            {
              "internalType": "address",
              "name": "target",
              "type": "address"
            },
            {
              "internalType": "uint256",
              "name": "startedAt",
              "type": "uint256"
            },
            {
              "internalType": "uint256",
              "name": "expiresAt",
              "type": "uint256"
            }
          ],
          "internalType": "struct Info",
          "name": "",
          "type": "tuple"
        }
      ],
      "stateMutability": "view",
      "type": "function"
    },
    {
      "inputs": [
        {
          "internalType": "string",
          "name": "message",
          "type": "string"
        }
      ],
      "name": "donate",
      "outputs": [],
      "stateMutability": "payable",
      "type": "function"
    },
    {
      "inputs": [],
      "name": "getDonation",
      "outputs": [
        {
          "components": [
            {
              "internalType": "string",
              "name": "message",
              "type": "string"
            },
            {
              "internalType": "uint256",
              "name": "amount",
              "type": "uint256"
            },
            {
              "internalType": "uint256",
              "name": "createdAt",
              "type": "uint256"
            }
          ],
          "internalType": "struct Donation",
          "name": "",
          "type": "tuple"
        }
      ],
      "stateMutability": "view",
      "type": "function"
    },
    {
      "inputs": [],
      "name": "withdraw",
      "outputs": [],
      "stateMutability": "nonpayable",
      "type": "function"
    }
  ],
  "bytecode": "0x60806040523480156200001157600080fd5b50604051620012cb380380620012cb83398181016040528101906200003791906200027a565b600082116200004557600080fd5b600073ffffffffffffffffffffffffffffffffffffffff168173ffffffffffffffffffffffffffffffffffffffff1614156200008057600080fd5b336000806101000a81548173ffffffffffffffffffffffffffffffffffffffff021916908373ffffffffffffffffffffffffffffffffffffffff1602179055508260019080519060200190620000d89291906200012a565b508160028190555080600360006101000a81548173ffffffffffffffffffffffffffffffffffffffff021916908373ffffffffffffffffffffffffffffffffffffffff1602179055505050506200048c565b8280546200013890620003c4565b90600052602060002090601f0160209004810192826200015c5760008555620001a8565b82601f106200017757805160ff1916838001178555620001a8565b82800160010185558215620001a8579182015b82811115620001a75782518255916020019190600101906200018a565b5b509050620001b79190620001bb565b5090565b5b80821115620001d6576000816000905550600101620001bc565b5090565b6000620001f1620001eb846200031d565b620002e9565b9050828152602081018484840111156200020a57600080fd5b620002178482856200038e565b509392505050565b600081519050620002308162000458565b92915050565b600082601f8301126200024857600080fd5b81516200025a848260208601620001da565b91505092915050565b600081519050620002748162000472565b92915050565b6000806000606084860312156200029057600080fd5b600084015167ffffffffffffffff811115620002ab57600080fd5b620002b98682870162000236565b9350506020620002cc8682870162000263565b9250506040620002df868287016200021f565b9150509250925092565b6000604051905081810181811067ffffffffffffffff8211171562000313576200031262000429565b5b8060405250919050565b600067ffffffffffffffff8211156200033b576200033a62000429565b5b601f19601f8301169050602081019050919050565b60006200035d8262000364565b9050919050565b600073ffffffffffffffffffffffffffffffffffffffff82169050919050565b6000819050919050565b60005b83811015620003ae57808201518184015260208101905062000391565b83811115620003be576000848401525b50505050565b60006002820490506001821680620003dd57607f821691505b60208210811415620003f457620003f3620003fa565b5b50919050565b7f4e487b7100000000000000000000000000000000000000000000000000000000600052602260045260246000fd5b7f4e487b7100000000000000000000000000000000000000000000000000000000600052604160045260246000fd5b620004638162000350565b81146200046f57600080fd5b50565b6200047d8162000384565b81146200048957600080fd5b50565b610e2f806200049c6000396000f3fe60806040526004361061004e5760003560e01c80633ccfd60b146100935780634bf71729146100aa5780635a9b0b89146100d557806395805dad14610100578063b5aebc80146101295761008e565b3661008e576040517f08c379a000000000000000000000000000000000000000000000000000000000815260040161008590610ba8565b60405180910390fd5b600080fd5b34801561009f57600080fd5b506100a8610145565b005b3480156100b657600080fd5b506100bf6102be565b6040516100cc9190610bc8565b60405180910390f35b3480156100e157600080fd5b506100ea6103bb565b6040516100f79190610bea565b60405180910390f35b34801561010c57600080fd5b506101276004803603810190610122919061098e565b6104f9565b005b610143600480360381019061013e9190610949565b61057c565b005b600080479050600360009054906101000a900473ffffffffffffffffffffffffffffffffffffffff1673ffffffffffffffffffffffffffffffffffffffff163373ffffffffffffffffffffffffffffffffffffffff1614156101b75760025481146101af57600080fd5b809150610269565b60025481106101c557600080fd5b6006544210156101d457600080fd5b6000600460003373ffffffffffffffffffffffffffffffffffffffff1673ffffffffffffffffffffffffffffffffffffffff168152602001908152602001600020600201541161022357600080fd5b600460003373ffffffffffffffffffffffffffffffffffffffff1673ffffffffffffffffffffffffffffffffffffffff1681526020019081526020016000206001015491505b60008211156102ba573373ffffffffffffffffffffffffffffffffffffffff166108fc839081150290604051600060405180830381858888f193505050501580156102b8573d6000803e3d6000fd5b505b5050565b6102c66107bd565b600460003373ffffffffffffffffffffffffffffffffffffffff1673ffffffffffffffffffffffffffffffffffffffff16815260200190815260200160002060405180606001604052908160008201805461032090610d41565b80601f016020809104026020016040519081016040528092919081815260200182805461034c90610d41565b80156103995780601f1061036e57610100808354040283529160200191610399565b820191906000526020600020905b81548152906001019060200180831161037c57829003601f168201915b5050505050815260200160018201548152602001600282015481525050905090565b6103c36107de565b6040518060e0016040528060008054906101000a900473ffffffffffffffffffffffffffffffffffffffff1673ffffffffffffffffffffffffffffffffffffffff1681526020016001805461041790610d41565b80601f016020809104026020016040519081016040528092919081815260200182805461044390610d41565b80156104905780601f1061046557610100808354040283529160200191610490565b820191906000526020600020905b81548152906001019060200180831161047357829003601f168201915b505050505081526020014781526020016002548152602001600360009054906101000a900473ffffffffffffffffffffffffffffffffffffffff1673ffffffffffffffffffffffffffffffffffffffff1681526020016005548152602001600654815250905090565b60008054906101000a900473ffffffffffffffffffffffffffffffffffffffff1673ffffffffffffffffffffffffffffffffffffffff163373ffffffffffffffffffffffffffffffffffffffff161461055157600080fd5b6000811161055e57600080fd5b42600581905550806005546105739190610c39565b60068190555050565b600360009054906101000a900473ffffffffffffffffffffffffffffffffffffffff1673ffffffffffffffffffffffffffffffffffffffff163373ffffffffffffffffffffffffffffffffffffffff1614156105d757600080fd5b6000600460003373ffffffffffffffffffffffffffffffffffffffff1673ffffffffffffffffffffffffffffffffffffffff168152602001908152602001600020600201541461062657600080fd5b600654421061063457600080fd5b6000479050600254811061064757600080fd5b6000600254826106579190610c8f565b905060008111156106aa573373ffffffffffffffffffffffffffffffffffffffff166108fc829081150290604051600060405180830381858888f193505050501580156106a8573d6000803e3d6000fd5b505b604051806060016040528085858080601f016020809104026020016040519081016040528093929190818152602001838380828437600081840152601f19601f82011690508083019250505050505050815260200134815260200142815250600460003373ffffffffffffffffffffffffffffffffffffffff1673ffffffffffffffffffffffffffffffffffffffff1681526020019081526020016000206000820151816000019080519060200190610764929190610847565b5060208201518160010155604082015181600201559050507f4e0389c0d7ed837c1c99f31c66694ab042fa67bdf25d7f2f40d01273a65971ec8484346040516107af93929190610b76565b60405180910390a150505050565b60405180606001604052806060815260200160008152602001600081525090565b6040518060e00160405280600073ffffffffffffffffffffffffffffffffffffffff168152602001606081526020016000815260200160008152602001600073ffffffffffffffffffffffffffffffffffffffff16815260200160008152602001600081525090565b82805461085390610d41565b90600052602060002090601f01602090048101928261087557600085556108bc565b82601f1061088e57805160ff19168380011785556108bc565b828001600101855582156108bc579182015b828111156108bb5782518255916020019190600101906108a0565b5b5090506108c991906108cd565b5090565b5b808211156108e65760008160009055506001016108ce565b5090565b60008083601f8401126108fc57600080fd5b8235905067ffffffffffffffff81111561091557600080fd5b60208301915083600182028301111561092d57600080fd5b9250929050565b60008135905061094381610de2565b92915050565b6000806020838503121561095c57600080fd5b600083013567ffffffffffffffff81111561097657600080fd5b610982858286016108ea565b92509250509250929050565b6000602082840312156109a057600080fd5b60006109ae84828501610934565b91505092915050565b6109c081610cc3565b82525050565b60006109d28385610c28565b93506109df838584610cff565b6109e883610dd1565b840190509392505050565b60006109fe82610c0c565b610a088185610c17565b9350610a18818560208601610d0e565b610a2181610dd1565b840191505092915050565b6000610a39601983610c28565b91507f75736520646f6e617465206d6574686f6420696e7374656164000000000000006000830152602082019050919050565b60006060830160008301518482036000860152610a8982826109f3565b9150506020830151610a9e6020860182610b58565b506040830151610ab16040860182610b58565b508091505092915050565b600060e083016000830151610ad460008601826109b7565b5060208301518482036020860152610aec82826109f3565b9150506040830151610b016040860182610b58565b506060830151610b146060860182610b58565b506080830151610b2760808601826109b7565b5060a0830151610b3a60a0860182610b58565b5060c0830151610b4d60c0860182610b58565b508091505092915050565b610b6181610cf5565b82525050565b610b7081610cf5565b82525050565b60006040820190508181036000830152610b918185876109c6565b9050610ba06020830184610b67565b949350505050565b60006020820190508181036000830152610bc181610a2c565b9050919050565b60006020820190508181036000830152610be28184610a6c565b905092915050565b60006020820190508181036000830152610c048184610abc565b905092915050565b600081519050919050565b600082825260208201905092915050565b600082825260208201905092915050565b6000610c4482610cf5565b9150610c4f83610cf5565b9250827fffffffffffffffffffffffffffffffffffffffffffffffffffffffffffffffff03821115610c8457610c83610d73565b5b828201905092915050565b6000610c9a82610cf5565b9150610ca583610cf5565b925082821015610cb857610cb7610d73565b5b828203905092915050565b6000610cce82610cd5565b9050919050565b600073ffffffffffffffffffffffffffffffffffffffff82169050919050565b6000819050919050565b82818337600083830152505050565b60005b83811015610d2c578082015181840152602081019050610d11565b83811115610d3b576000848401525b50505050565b60006002820490506001821680610d5957607f821691505b60208210811415610d6d57610d6c610da2565b5b50919050565b7f4e487b7100000000000000000000000000000000000000000000000000000000600052601160045260246000fd5b7f4e487b7100000000000000000000000000000000000000000000000000000000600052602260045260246000fd5b6000601f19601f8301169050919050565b610deb81610cf5565b8114610df657600080fd5b5056fea2646970667358221220862717f052d216bfbb5b3477e98b3620bfbef00865a078fd5517cffd07972d7464736f6c63430008000033",
  "immutableReferences": {},
  "source": "// SPDX-License-Identifier: MIT\npragma solidity ^0.8.0;\n\nimport \"./ICrowdfunding.sol\";\n\ncontract Crowdfunding is ICrowdfunding {\n    address owner;\n    string description;\n    uint targetAmount;\n    address target;\n    mapping(address => Donation) donations;\n    uint startedAt;\n    uint expiresAt;\n\n    event NewDonation(string message, uint amount);\n\n    constructor(string memory _description, uint _targetAmount, address _target) {\n        require(_targetAmount > 0);\n        require(_target != address(0));\n\n        owner = msg.sender;\n        description = _description;\n        targetAmount = _targetAmount;\n        target = _target;\n    }\n\n    function start(uint _expiresIn) external {\n        require(msg.sender == owner);\n        require(_expiresIn > 0);\n\n        startedAt = block.timestamp;\n        expiresAt = startedAt + _expiresIn;\n    }\n\n    function getInfo() external view returns(Info memory) {\n        return Info({\n            owner: owner,\n            description: description,\n            currentAmount: address(this).balance,\n            targetAmount: targetAmount,\n            target: target,\n            startedAt: startedAt,\n            expiresAt: expiresAt\n        });\n    }\n\n    function donate(string calldata message) external payable {\n        require(msg.sender != target);\n        require(donations[msg.sender].createdAt == 0);\n        require(block.timestamp < expiresAt);\n\n        uint balance = address(this).balance;\n        require(balance < targetAmount);\n\n        uint rebate = balance - targetAmount;\n\n        if (rebate > 0) {\n            payable (msg.sender).transfer(rebate);\n        }\n\n        donations[msg.sender] = Donation({\n            message: message,\n            amount: msg.value,\n            createdAt: block.timestamp\n        });\n\n        emit NewDonation(message, msg.value);\n    }\n\n    function getDonation() external view returns(Donation memory) {\n        return donations[msg.sender];\n    }\n\n    function withdraw() external {\n        uint amount = 0;\n        uint balance = address(this).balance;\n\n        if (msg.sender == target) {\n            require(balance == targetAmount);\n\n            amount = balance;\n        } else {\n            require(balance < targetAmount);\n            require(block.timestamp >= expiresAt);\n            require(donations[msg.sender].createdAt > 0);\n\n            amount = donations[msg.sender].amount;\n        }\n\n        if (amount > 0) {\n            payable(msg.sender).transfer(amount);\n        }\n    }\n\n    receive() external payable {\n        revert(\"use donate method instead\");\n    }\n}\n",
  "sourcePath": "/home/void/ethereum/js/vue-material/contracts/Crowdfunding.sol",
  "compiler": {
    "name": "solc",
    "version": "0.8.0+commit.c7dfd78e.Emscripten.clang"
  },
  "schemaVersion": "3.4.3",
  "updatedAt": "2021-10-21T19:27:24.238Z",
  "devdoc": {
    "kind": "dev",
    "methods": {},
    "version": 1
  },
  "userdoc": {
    "kind": "user",
    "methods": {},
    "version": 1
  }
}