{
  "contractName": "Election",
  "abi": [
    {
      "inputs": [
        {
          "internalType": "address",
          "name": "_owner",
          "type": "address"
        },
        {
          "internalType": "string",
          "name": "_name",
          "type": "string"
        }
      ],
      "stateMutability": "nonpayable",
      "type": "constructor"
    },
    {
      "inputs": [
        {
          "internalType": "uint256",
          "name": "",
          "type": "uint256"
        }
      ],
      "name": "candidates",
      "outputs": [
        {
          "internalType": "string",
          "name": "name",
          "type": "string"
        },
        {
          "internalType": "string",
          "name": "surname",
          "type": "string"
        },
        {
          "internalType": "string",
          "name": "imageValue",
          "type": "string"
        },
        {
          "internalType": "uint256",
          "name": "votes",
          "type": "uint256"
        },
        {
          "internalType": "bool",
          "name": "active",
          "type": "bool"
        }
      ],
      "stateMutability": "view",
      "type": "function",
      "constant": true
    },
    {
      "inputs": [
        {
          "internalType": "uint256",
          "name": "_expiresIn",
          "type": "uint256"
        }
      ],
      "name": "start",
      "outputs": [
        {
          "internalType": "bool",
          "name": "",
          "type": "bool"
        }
      ],
      "stateMutability": "nonpayable",
      "type": "function"
    },
    {
      "inputs": [],
      "name": "getInfo",
      "outputs": [
        {
          "components": [
            {
              "internalType": "bool",
              "name": "started",
              "type": "bool"
            },
            {
              "internalType": "address",
              "name": "owner",
              "type": "address"
            },
            {
              "internalType": "string",
              "name": "name",
              "type": "string"
            },
            {
              "internalType": "uint256",
              "name": "expiresAt",
              "type": "uint256"
            },
            {
              "internalType": "uint256",
              "name": "votes",
              "type": "uint256"
            },
            {
              "components": [
                {
                  "internalType": "string",
                  "name": "name",
                  "type": "string"
                },
                {
                  "internalType": "string",
                  "name": "surname",
                  "type": "string"
                },
                {
                  "internalType": "string",
                  "name": "imageValue",
                  "type": "string"
                },
                {
                  "internalType": "uint256",
                  "name": "votes",
                  "type": "uint256"
                },
                {
                  "internalType": "bool",
                  "name": "active",
                  "type": "bool"
                }
              ],
              "internalType": "struct Candidate[]",
              "name": "candidates",
              "type": "tuple[]"
            }
          ],
          "internalType": "struct Info",
          "name": "",
          "type": "tuple"
        }
      ],
      "stateMutability": "view",
      "type": "function",
      "constant": true
    },
    {
      "inputs": [
        {
          "components": [
            {
              "internalType": "string",
              "name": "name",
              "type": "string"
            },
            {
              "internalType": "string",
              "name": "surname",
              "type": "string"
            },
            {
              "internalType": "string",
              "name": "imageValue",
              "type": "string"
            },
            {
              "internalType": "uint256",
              "name": "votes",
              "type": "uint256"
            },
            {
              "internalType": "bool",
              "name": "active",
              "type": "bool"
            }
          ],
          "internalType": "struct Candidate[]",
          "name": "_candidates",
          "type": "tuple[]"
        }
      ],
      "name": "addCandidates",
      "outputs": [
        {
          "internalType": "uint256",
          "name": "",
          "type": "uint256"
        }
      ],
      "stateMutability": "nonpayable",
      "type": "function"
    },
    {
      "inputs": [
        {
          "internalType": "uint256",
          "name": "_candidateId",
          "type": "uint256"
        }
      ],
      "name": "vote",
      "outputs": [
        {
          "internalType": "bool",
          "name": "",
          "type": "bool"
        }
      ],
      "stateMutability": "nonpayable",
      "type": "function"
    },
    {
      "inputs": [],
      "name": "getVote",
      "outputs": [
        {
          "components": [
            {
              "internalType": "uint256",
              "name": "candidateID",
              "type": "uint256"
            },
            {
              "internalType": "uint256",
              "name": "expiresAt",
              "type": "uint256"
            },
            {
              "internalType": "bool",
              "name": "exists",
              "type": "bool"
            }
          ],
          "internalType": "struct Vote",
          "name": "",
          "type": "tuple"
        }
      ],
      "stateMutability": "view",
      "type": "function",
      "constant": true
    },
    {
      "inputs": [],
      "name": "retract",
      "outputs": [
        {
          "internalType": "bool",
          "name": "",
          "type": "bool"
        }
      ],
      "stateMutability": "nonpayable",
      "type": "function"
    }
  ],
  "bytecode": "0x60806040523480156200001157600080fd5b5060405162001dfc38038062001dfc8339818101604052810190620000379190620001d1565b816000806101000a81548173ffffffffffffffffffffffffffffffffffffffff021916908373ffffffffffffffffffffffffffffffffffffffff16021790555080600190805190602001906200008f92919062000098565b505050620003aa565b828054620000a690620002fc565b90600052602060002090601f016020900481019282620000ca576000855562000116565b82601f10620000e557805160ff191683800117855562000116565b8280016001018555821562000116579182015b8281111562000115578251825591602001919060010190620000f8565b5b50905062000125919062000129565b5090565b5b80821115620001445760008160009055506001016200012a565b5090565b60006200015f62000159846200025f565b6200022b565b9050828152602081018484840111156200017857600080fd5b62000185848285620002c6565b509392505050565b6000815190506200019e8162000390565b92915050565b600082601f830112620001b657600080fd5b8151620001c884826020860162000148565b91505092915050565b60008060408385031215620001e557600080fd5b6000620001f5858286016200018d565b925050602083015167ffffffffffffffff8111156200021357600080fd5b6200022185828601620001a4565b9150509250929050565b6000604051905081810181811067ffffffffffffffff8211171562000255576200025462000361565b5b8060405250919050565b600067ffffffffffffffff8211156200027d576200027c62000361565b5b601f19601f8301169050602081019050919050565b60006200029f82620002a6565b9050919050565b600073ffffffffffffffffffffffffffffffffffffffff82169050919050565b60005b83811015620002e6578082015181840152602081019050620002c9565b83811115620002f6576000848401525b50505050565b600060028204905060018216806200031557607f821691505b602082108114156200032c576200032b62000332565b5b50919050565b7f4e487b7100000000000000000000000000000000000000000000000000000000600052602260045260246000fd5b7f4e487b7100000000000000000000000000000000000000000000000000000000600052604160045260246000fd5b6200039b8162000292565b8114620003a757600080fd5b50565b611a4280620003ba6000396000f3fe608060405234801561001057600080fd5b506004361061007d5760003560e01c806347f57b321161005b57806347f57b32146101045780635a9b0b891461012257806395805dad146101405780639bc90d00146101705761007d565b80630121b93f146100825780630242f351146100b25780633477ee2e146100d0575b600080fd5b61009c60048036038101906100979190610f35565b6101a0565b6040516100a991906111fa565b60405180910390f35b6100ba6103a9565b6040516100c7919061129f565b60405180910390f35b6100ea60048036038101906100e59190610f35565b61042f565b6040516100fb959493929190611215565b60405180910390f35b61010c61061a565b60405161011991906111fa565b60405180910390f35b61012a6107b3565b604051610137919061127d565b60405180910390f35b61015a60048036038101906101559190610f35565b610bc3565b60405161016791906111fa565b60405180910390f35b61018a60048036038101906101859190610ef0565b610c15565b60405161019791906112ba565b60405180910390f35b6000600360009054906101000a900460ff166101bb57600080fd5b60025442106101c957600080fd5b600560003373ffffffffffffffffffffffffffffffffffffffff1673ffffffffffffffffffffffffffffffffffffffff16815260200190815260200160002060020160009054906101000a900460ff161561022357600080fd5b600480549050821061023457600080fd5b6004828154811061026e577f4e487b7100000000000000000000000000000000000000000000000000000000600052603260045260246000fd5b906000526020600020906005020160040160009054906101000a900460ff1661029657600080fd5b6040518060600160405280838152602001610258426102b591906113d6565b815260200160011515815250600560003373ffffffffffffffffffffffffffffffffffffffff1673ffffffffffffffffffffffffffffffffffffffff168152602001908152602001600020600082015181600001556020820151816001015560408201518160020160006101000a81548160ff021916908315150217905550905050600060048381548110610373577f4e487b7100000000000000000000000000000000000000000000000000000000600052603260045260246000fd5b90600052602060002090600502019050600181600301600082825461039891906113d6565b925050819055506001915050919050565b6103b1610e20565b600560003373ffffffffffffffffffffffffffffffffffffffff1673ffffffffffffffffffffffffffffffffffffffff16815260200190815260200160002060405180606001604052908160008201548152602001600182015481526020016002820160009054906101000a900460ff161515151581525050905090565b6004818154811061043f57600080fd5b90600052602060002090600502016000915090508060000180546104629061162e565b80601f016020809104026020016040519081016040528092919081815260200182805461048e9061162e565b80156104db5780601f106104b0576101008083540402835291602001916104db565b820191906000526020600020905b8154815290600101906020018083116104be57829003601f168201915b5050505050908060010180546104f09061162e565b80601f016020809104026020016040519081016040528092919081815260200182805461051c9061162e565b80156105695780601f1061053e57610100808354040283529160200191610569565b820191906000526020600020905b81548152906001019060200180831161054c57829003601f168201915b50505050509080600201805461057e9061162e565b80601f01602080910402602001604051908101604052809291908181526020018280546105aa9061162e565b80156105f75780601f106105cc576101008083540402835291602001916105f7565b820191906000526020600020905b8154815290600101906020018083116105da57829003601f168201915b5050505050908060030154908060040160009054906101000a900460ff16905085565b6000600360009054906101000a900460ff1661063557600080fd5b600254421061064357600080fd5b6000600560003373ffffffffffffffffffffffffffffffffffffffff1673ffffffffffffffffffffffffffffffffffffffff16815260200190815260200160002060405180606001604052908160008201548152602001600182015481526020016002820160009054906101000a900460ff161515151581525050905080604001516106ce57600080fd5b806020015142106106de57600080fd5b6001600482600001518154811061071e577f4e487b7100000000000000000000000000000000000000000000000000000000600052603260045260246000fd5b9060005260206000209060050201600301600082825461073e919061142c565b92505081905550600560003373ffffffffffffffffffffffffffffffffffffffff1673ffffffffffffffffffffffffffffffffffffffff16815260200190815260200160002060008082016000905560018201600090556002820160006101000a81549060ff02191690555050600191505090565b6107bb610e43565b60006004805480602002602001604051908101604052809291908181526020016000905b828210156109ec57838290600052602060002090600502016040518060a00160405290816000820180546108129061162e565b80601f016020809104026020016040519081016040528092919081815260200182805461083e9061162e565b801561088b5780601f106108605761010080835404028352916020019161088b565b820191906000526020600020905b81548152906001019060200180831161086e57829003601f168201915b505050505081526020016001820180546108a49061162e565b80601f01602080910402602001604051908101604052809291908181526020018280546108d09061162e565b801561091d5780601f106108f25761010080835404028352916020019161091d565b820191906000526020600020905b81548152906001019060200180831161090057829003601f168201915b505050505081526020016002820180546109369061162e565b80601f01602080910402602001604051908101604052809291908181526020018280546109629061162e565b80156109af5780601f10610984576101008083540402835291602001916109af565b820191906000526020600020905b81548152906001019060200180831161099257829003601f168201915b50505050508152602001600382015481526020016004820160009054906101000a900460ff161515151581525050815260200190600101906107df565b5050505090506000600254421015610abc5760005b8251811015610aba57828181518110610a43577f4e487b7100000000000000000000000000000000000000000000000000000000600052603260045260246000fd5b60200260200101516060015182610a5a91906113d6565b91506000838281518110610a97577f4e487b7100000000000000000000000000000000000000000000000000000000600052603260045260246000fd5b602002602001015160600181815250508080610ab29061167c565b915050610a01565b505b6040518060c00160405280600360009054906101000a900460ff161515815260200160008054906101000a900473ffffffffffffffffffffffffffffffffffffffff1673ffffffffffffffffffffffffffffffffffffffff16815260200160018054610b279061162e565b80601f0160208091040260200160405190810160405280929190818152602001828054610b539061162e565b8015610ba05780601f10610b7557610100808354040283529160200191610ba0565b820191906000526020600020905b815481529060010190602001808311610b8357829003601f168201915b505050505081526020016002548152602001828152602001838152509250505090565b6000600360009054906101000a900460ff1615610bdf57600080fd5b8142610beb91906113d6565b6002819055506001600360006101000a81548160ff02191690831515021790555060019050919050565b60003373ffffffffffffffffffffffffffffffffffffffff1660008054906101000a900473ffffffffffffffffffffffffffffffffffffffff1673ffffffffffffffffffffffffffffffffffffffff1614610c6f57600080fd5b600360009054906101000a900460ff1615610c8957600080fd5b60005b83839050811015610e05576004848483818110610cd2577f4e487b7100000000000000000000000000000000000000000000000000000000600052603260045260246000fd5b9050602002810190610ce4919061132c565b90806001815401808255809150506001900390600052602060002090600502016000909190919091508181610d1991906118e8565b5050600060046001600480549050610d31919061142c565b81548110610d68577f4e487b7100000000000000000000000000000000000000000000000000000000600052603260045260246000fd5b906000526020600020906005020160030181905550600160046001600480549050610d93919061142c565b81548110610dca577f4e487b7100000000000000000000000000000000000000000000000000000000600052603260045260246000fd5b906000526020600020906005020160040160006101000a81548160ff0219169083151502179055508080610dfd9061167c565b915050610c8c565b506001600480549050610e18919061142c565b905092915050565b604051806060016040528060008152602001600081526020016000151581525090565b6040518060c00160405280600015158152602001600073ffffffffffffffffffffffffffffffffffffffff168152602001606081526020016000815260200160008152602001606081525090565b60008083601f840112610ea357600080fd5b8235905067ffffffffffffffff811115610ebc57600080fd5b602083019150836020820283011115610ed457600080fd5b9250929050565b600081359050610eea816119f0565b92915050565b60008060208385031215610f0357600080fd5b600083013567ffffffffffffffff811115610f1d57600080fd5b610f2985828601610e91565b92509250509250929050565b600060208284031215610f4757600080fd5b6000610f5584828501610edb565b91505092915050565b6000610f6a8383611086565b905092915050565b610f7b81611460565b82525050565b6000610f8c82611375565b610f9681856113a3565b935083602082028501610fa885611350565b8060005b85811015610fe45784840389528151610fc58582610f5e565b9450610fd083611396565b925060208a01995050600181019050610fac565b50829750879550505050505092915050565b610fff81611472565b82525050565b61100e81611472565b82525050565b600061101f8261138b565b61102981856113b4565b93506110398185602086016115fb565b611042816117b0565b840191505092915050565b60006110588261138b565b61106281856113c5565b93506110728185602086016115fb565b61107b816117b0565b840191505092915050565b600060a08301600083015184820360008601526110a38282611014565b915050602083015184820360208601526110bd8282611014565b915050604083015184820360408601526110d78282611014565b91505060608301516110ec60608601826111dc565b5060808301516110ff6080860182610ff6565b508091505092915050565b600060c0830160008301516111226000860182610ff6565b5060208301516111356020860182610f72565b506040830151848203604086015261114d8282611014565b915050606083015161116260608601826111dc565b50608083015161117560808601826111dc565b5060a083015184820360a086015261118d8282610f81565b9150508091505092915050565b6060820160008201516111b060008501826111dc565b5060208201516111c360208501826111dc565b5060408201516111d66040850182610ff6565b50505050565b6111e58161149e565b82525050565b6111f48161149e565b82525050565b600060208201905061120f6000830184611005565b92915050565b600060a082019050818103600083015261122f818861104d565b90508181036020830152611243818761104d565b90508181036040830152611257818661104d565b905061126660608301856111eb565b6112736080830184611005565b9695505050505050565b60006020820190508181036000830152611297818461110a565b905092915050565b60006060820190506112b4600083018461119a565b92915050565b60006020820190506112cf60008301846111eb565b92915050565b600080833560016020038436030381126112ee57600080fd5b80840192508235915067ffffffffffffffff82111561130c57600080fd5b60208301925060018202360383131561132457600080fd5b509250929050565b60008235600160a00383360303811261134457600080fd5b80830191505092915050565b6000819050602082019050919050565b60008190508160005260206000209050919050565b600081519050919050565b600082905092915050565b600081519050919050565b6000602082019050919050565b600082825260208201905092915050565b600082825260208201905092915050565b600082825260208201905092915050565b60006113e18261149e565b91506113ec8361149e565b9250827fffffffffffffffffffffffffffffffffffffffffffffffffffffffffffffffff03821115611421576114206116e3565b5b828201905092915050565b60006114378261149e565b91506114428361149e565b925082821015611455576114546116e3565b5b828203905092915050565b600061146b8261147e565b9050919050565b60008115159050919050565b600073ffffffffffffffffffffffffffffffffffffffff82169050919050565b6000819050919050565b5b818110156114c7576114bc6000826117e8565b6001810190506114a9565b5050565b60006114d682611472565b9050919050565b60006114e88261149e565b9050919050565b6114f98383611380565b67ffffffffffffffff81111561151257611511611741565b5b61151c825461162e565b600080601f8411601f841117156115395761153685611360565b90505b601f83111561156c576020601f85010481016020851015611558578190505b61156a6020601f8601048301826114a8565b505b601f8411600181146115995760008515611587578388013590505b6115918682611660565b8755506115f1565b601f1985168260005b828110156115c757858a013582556001820191506020860195506020810190506115a2565b878310156115e457858a01356115e0601f8a16826116c5565b8355505b6001600289020189555050505b5050505050505050565b60005b838110156116195780820151818401526020810190506115fe565b83811115611628576000848401525b50505050565b6000600282049050600182168061164657607f821691505b6020821081141561165a57611659611712565b5b50919050565b600061166c83836116c5565b9150826002028217905092915050565b60006116878261149e565b91507fffffffffffffffffffffffffffffffffffffffffffffffffffffffffffffffff8214156116ba576116b96116e3565b5b600182019050919050565b60006116d6600019846008026117db565b1980831691505092915050565b7f4e487b7100000000000000000000000000000000000000000000000000000000600052601160045260246000fd5b7f4e487b7100000000000000000000000000000000000000000000000000000000600052602260045260246000fd5b7f4e487b7100000000000000000000000000000000000000000000000000000000600052604160045260246000fd5b6000819050919050565b6000819050919050565b60008135611791816119d9565b80915050919050565b600081356117a7816119f0565b80915050919050565b6000601f19601f8301169050919050565b60008160001b9050919050565b600082821b905092915050565b600082821c905092915050565b6117fa6117f3611a07565b83836119b4565b5050565b600060ff61180b846117c1565b9350801983169250808416831791505092915050565b60007fffffffffffffffffffffffffffffffffffffffffffffffffffffffffffffffff61184d846117c1565b9350801983169250808416831791505092915050565b6000600883026118937fffffffffffffffffffffffffffffffffffffffffffffffffffffffffffffffff826117ce565b61189d86836117ce565b95508019841693508086168417925050509392505050565b6118be826114cb565b6118d16118ca82611770565b83546117fe565b8255505050565b6118e38383836114ef565b505050565b60008101600083016118fa81856112d5565b6119058183866118d8565b50505050600181016020830161191b81856112d5565b6119268183866118d8565b50505050600281016040830161193c81856112d5565b6119478183866118d8565b5050505060038101606083018061195d8161179a565b90506119698184611991565b50505060048101608083018061197e81611784565b905061198a81846118b5565b5050505050565b61199a826114dd565b6119ad6119a68261177a565b8354611821565b8255505050565b6119bd836114dd565b6119d16119c98261177a565b848454611863565b825550505050565b6119e281611472565b81146119ed57600080fd5b50565b6119f98161149e565b8114611a0457600080fd5b50565b60009056fea2646970667358221220e5bf95f332765d7ccd0309f8e1259563feed4045bf0df4ebc6546b53f8899be664736f6c63430008000033",
  "immutableReferences": {},
  "source": "// SPDX-License-Identifier: MIT\npragma solidity ^0.8.0;\n\nimport './IElection.sol';\n\ncontract Election is IElection {\n    address owner;\n    string name;\n    uint expiresAt;\n    bool started;\n\n    Candidate[] public candidates;\n    mapping(address => Vote) votes;\n\n    modifier ownerOnly() {\n        require(owner == msg.sender);\n        _;\n    }\n\n    constructor(address _owner, string memory _name) {\n        owner = _owner;\n        name = _name;\n    }\n\n    // @override\n    function start(uint _expiresIn) external override returns(bool) {\n        require(!started);\n\n        expiresAt = block.timestamp + _expiresIn;\n        started = true;\n        return true;\n    }\n\n    // @override\n    function getInfo() external override view returns(Info memory) {\n        Candidate[] memory tmp = candidates;\n\n        uint votes = 0;\n        if (block.timestamp < expiresAt) {\n            for (uint i = 0; i < tmp.length; i++) {\n                votes += tmp[i].votes;\n                tmp[i].votes = 0;\n            }\n        }\n\n        return Info({\n            started: started,\n            owner: owner,\n            name: name,\n            votes: votes,\n            expiresAt: expiresAt,\n            candidates: tmp\n        });\n    }\n\n    // @override\n    function addCandidates(Candidate[] calldata _candidates) external override ownerOnly returns(uint) {\n        require(!started);\n\n        for (uint i = 0; i < _candidates.length; i++) {\n            candidates.push(_candidates[i]);\n            candidates[candidates.length - 1].votes = 0;\n            candidates[candidates.length - 1].active = true;\n        }\n\n        return candidates.length - 1;\n    }\n\n    // @override\n    function vote(uint _candidateId) external override returns(bool) {\n        require(started);\n        require(block.timestamp < expiresAt);\n        require(!votes[msg.sender].exists);\n        require(_candidateId < candidates.length);\n        require(candidates[_candidateId].active);\n\n        votes[msg.sender] = Vote({\n            candidateID: _candidateId,\n            expiresAt: block.timestamp + 10 minutes,\n            exists: true\n        });\n\n        Candidate storage candidate = candidates[_candidateId];\n        candidate.votes += 1;\n\n        return true;\n    }\n\n    // @override\n    function getVote() external override view returns(Vote memory) {\n        return votes[msg.sender];\n    }\n\n    // @override\n    function retract() external override returns(bool) {\n        require(started);\n        require(block.timestamp < expiresAt);\n\n        Vote memory v = votes[msg.sender];\n\n        require(v.exists);\n        require(block.timestamp < v.expiresAt);\n\n        candidates[v.candidateID].votes -= 1;\n        delete votes[msg.sender];\n\n        return true;\n    }\n}",
  "sourcePath": "/home/void/ethereum/js/vue-material/contracts/Election.sol",
  "compiler": {
    "name": "solc",
    "version": "0.8.0+commit.c7dfd78e.Emscripten.clang"
  },
  "schemaVersion": "3.4.3",
  "updatedAt": "2021-10-15T07:35:15.407Z",
  "networkType": "ethereum",
  "devdoc": {
    "kind": "dev",
    "methods": {},
    "version": 1
  },
  "userdoc": {
    "kind": "user",
    "methods": {},
    "version": 1
  }
}