{
  "contractName": "Election",
  "abi": [
    {
      "inputs": [
        {
          "internalType": "address",
          "name": "_owner",
          "type": "address"
        },
        {
          "internalType": "string",
          "name": "_name",
          "type": "string"
        },
        {
          "internalType": "uint256",
          "name": "_expiresAfter",
          "type": "uint256"
        }
      ],
      "stateMutability": "nonpayable",
      "type": "constructor"
    },
    {
      "inputs": [
        {
          "internalType": "uint256",
          "name": "",
          "type": "uint256"
        }
      ],
      "name": "candidates",
      "outputs": [
        {
          "internalType": "string",
          "name": "name",
          "type": "string"
        },
        {
          "internalType": "string",
          "name": "surname",
          "type": "string"
        },
        {
          "internalType": "string",
          "name": "imageValue",
          "type": "string"
        },
        {
          "internalType": "uint256",
          "name": "votes",
          "type": "uint256"
        },
        {
          "internalType": "bool",
          "name": "active",
          "type": "bool"
        }
      ],
      "stateMutability": "view",
      "type": "function",
      "constant": true
    },
    {
      "inputs": [],
      "name": "getInfo",
      "outputs": [
        {
          "components": [
            {
              "internalType": "address",
              "name": "owner",
              "type": "address"
            },
            {
              "internalType": "string",
              "name": "name",
              "type": "string"
            },
            {
              "internalType": "uint256",
              "name": "expiresAt",
              "type": "uint256"
            },
            {
              "components": [
                {
                  "internalType": "uint256",
                  "name": "candidateID",
                  "type": "uint256"
                },
                {
                  "internalType": "uint256",
                  "name": "expiresAt",
                  "type": "uint256"
                },
                {
                  "internalType": "bool",
                  "name": "exists",
                  "type": "bool"
                }
              ],
              "internalType": "struct Vote",
              "name": "vote",
              "type": "tuple"
            },
            {
              "components": [
                {
                  "internalType": "string",
                  "name": "name",
                  "type": "string"
                },
                {
                  "internalType": "string",
                  "name": "surname",
                  "type": "string"
                },
                {
                  "internalType": "string",
                  "name": "imageValue",
                  "type": "string"
                },
                {
                  "internalType": "uint256",
                  "name": "votes",
                  "type": "uint256"
                },
                {
                  "internalType": "bool",
                  "name": "active",
                  "type": "bool"
                }
              ],
              "internalType": "struct Candidate[]",
              "name": "candidates",
              "type": "tuple[]"
            }
          ],
          "internalType": "struct Info",
          "name": "",
          "type": "tuple"
        }
      ],
      "stateMutability": "view",
      "type": "function",
      "constant": true
    },
    {
      "inputs": [
        {
          "components": [
            {
              "internalType": "string",
              "name": "name",
              "type": "string"
            },
            {
              "internalType": "string",
              "name": "surname",
              "type": "string"
            },
            {
              "internalType": "string",
              "name": "imageValue",
              "type": "string"
            },
            {
              "internalType": "uint256",
              "name": "votes",
              "type": "uint256"
            },
            {
              "internalType": "bool",
              "name": "active",
              "type": "bool"
            }
          ],
          "internalType": "struct Candidate[]",
          "name": "_candidates",
          "type": "tuple[]"
        }
      ],
      "name": "addCandidates",
      "outputs": [
        {
          "internalType": "uint256",
          "name": "",
          "type": "uint256"
        }
      ],
      "stateMutability": "nonpayable",
      "type": "function"
    },
    {
      "inputs": [
        {
          "internalType": "uint256",
          "name": "_candidateId",
          "type": "uint256"
        }
      ],
      "name": "vote",
      "outputs": [
        {
          "internalType": "bool",
          "name": "",
          "type": "bool"
        }
      ],
      "stateMutability": "nonpayable",
      "type": "function"
    },
    {
      "inputs": [],
      "name": "retract",
      "outputs": [
        {
          "internalType": "bool",
          "name": "",
          "type": "bool"
        }
      ],
      "stateMutability": "nonpayable",
      "type": "function"
    }
  ],
  "bytecode": "0x60806040523480156200001157600080fd5b5060405162001d3038038062001d308339818101604052810190620000379190620001fd565b826000806101000a81548173ffffffffffffffffffffffffffffffffffffffff021916908373ffffffffffffffffffffffffffffffffffffffff16021790555081600190805190602001906200008f929190620000ad565b5080426200009e9190620002d3565b6002819055505050506200049b565b828054620000bb90620003a4565b90600052602060002090601f016020900481019282620000df57600085556200012b565b82601f10620000fa57805160ff19168380011785556200012b565b828001600101855582156200012b579182015b828111156200012a5782518255916020019190600101906200010d565b5b5090506200013a91906200013e565b5090565b5b80821115620001595760008160009055506001016200013f565b5090565b6000620001746200016e84620002a0565b6200026c565b9050828152602081018484840111156200018d57600080fd5b6200019a8482856200036e565b509392505050565b600081519050620001b38162000467565b92915050565b600082601f830112620001cb57600080fd5b8151620001dd8482602086016200015d565b91505092915050565b600081519050620001f78162000481565b92915050565b6000806000606084860312156200021357600080fd5b60006200022386828701620001a2565b935050602084015167ffffffffffffffff8111156200024157600080fd5b6200024f86828701620001b9565b92505060406200026286828701620001e6565b9150509250925092565b6000604051905081810181811067ffffffffffffffff8211171562000296576200029562000438565b5b8060405250919050565b600067ffffffffffffffff821115620002be57620002bd62000438565b5b601f19601f8301169050602081019050919050565b6000620002e08262000364565b9150620002ed8362000364565b9250827fffffffffffffffffffffffffffffffffffffffffffffffffffffffffffffffff03821115620003255762000324620003da565b5b828201905092915050565b60006200033d8262000344565b9050919050565b600073ffffffffffffffffffffffffffffffffffffffff82169050919050565b6000819050919050565b60005b838110156200038e57808201518184015260208101905062000371565b838111156200039e576000848401525b50505050565b60006002820490506001821680620003bd57607f821691505b60208210811415620003d457620003d362000409565b5b50919050565b7f4e487b7100000000000000000000000000000000000000000000000000000000600052601160045260246000fd5b7f4e487b7100000000000000000000000000000000000000000000000000000000600052602260045260246000fd5b7f4e487b7100000000000000000000000000000000000000000000000000000000600052604160045260246000fd5b620004728162000330565b81146200047e57600080fd5b50565b6200048c8162000364565b81146200049857600080fd5b50565b61188580620004ab6000396000f3fe608060405234801561001057600080fd5b50600436106100575760003560e01c80630121b93f1461005c5780633477ee2e1461008c57806347f57b32146100c05780635a9b0b89146100de5780639bc90d00146100fc575b600080fd5b61007660048036038101906100719190610da6565b61012c565b6040516100839190611058565b60405180910390f35b6100a660048036038101906100a19190610da6565b61031c565b6040516100b7959493929190611073565b60405180910390f35b6100c8610507565b6040516100d59190611058565b60405180910390f35b6100e6610687565b6040516100f391906110db565b60405180910390f35b61011660048036038101906101119190610d61565b610aa3565b60405161012391906110fd565b60405180910390f35b6000600254421061013c57600080fd5b600460003373ffffffffffffffffffffffffffffffffffffffff1673ffffffffffffffffffffffffffffffffffffffff16815260200190815260200160002060020160009054906101000a900460ff161561019657600080fd5b60038054905082106101a757600080fd5b600382815481106101e1577f4e487b7100000000000000000000000000000000000000000000000000000000600052603260045260246000fd5b906000526020600020906005020160040160009054906101000a900460ff1661020957600080fd5b6040518060600160405280838152602001610258426102289190611219565b815260200160011515815250600460003373ffffffffffffffffffffffffffffffffffffffff1673ffffffffffffffffffffffffffffffffffffffff168152602001908152602001600020600082015181600001556020820151816001015560408201518160020160006101000a81548160ff0219169083151502179055509050506000600383815481106102e6577f4e487b7100000000000000000000000000000000000000000000000000000000600052603260045260246000fd5b90600052602060002090600502019050600181600301600082825461030b9190611219565b925050819055506001915050919050565b6003818154811061032c57600080fd5b906000526020600020906005020160009150905080600001805461034f90611471565b80601f016020809104026020016040519081016040528092919081815260200182805461037b90611471565b80156103c85780601f1061039d576101008083540402835291602001916103c8565b820191906000526020600020905b8154815290600101906020018083116103ab57829003601f168201915b5050505050908060010180546103dd90611471565b80601f016020809104026020016040519081016040528092919081815260200182805461040990611471565b80156104565780601f1061042b57610100808354040283529160200191610456565b820191906000526020600020905b81548152906001019060200180831161043957829003601f168201915b50505050509080600201805461046b90611471565b80601f016020809104026020016040519081016040528092919081815260200182805461049790611471565b80156104e45780601f106104b9576101008083540402835291602001916104e4565b820191906000526020600020905b8154815290600101906020018083116104c757829003601f168201915b5050505050908060030154908060040160009054906101000a900460ff16905085565b6000600254421061051757600080fd5b6000600460003373ffffffffffffffffffffffffffffffffffffffff1673ffffffffffffffffffffffffffffffffffffffff16815260200190815260200160002060405180606001604052908160008201548152602001600182015481526020016002820160009054906101000a900460ff161515151581525050905080604001516105a257600080fd5b806020015142106105b257600080fd5b600160038260000151815481106105f2577f4e487b7100000000000000000000000000000000000000000000000000000000600052603260045260246000fd5b90600052602060002090600502016003016000828254610612919061126f565b92505081905550600460003373ffffffffffffffffffffffffffffffffffffffff1673ffffffffffffffffffffffffffffffffffffffff16815260200190815260200160002060008082016000905560018201600090556002820160006101000a81549060ff02191690555050600191505090565b61068f610c94565b60006003805480602002602001604051908101604052809291908181526020016000905b828210156108c057838290600052602060002090600502016040518060a00160405290816000820180546106e690611471565b80601f016020809104026020016040519081016040528092919081815260200182805461071290611471565b801561075f5780601f106107345761010080835404028352916020019161075f565b820191906000526020600020905b81548152906001019060200180831161074257829003601f168201915b5050505050815260200160018201805461077890611471565b80601f01602080910402602001604051908101604052809291908181526020018280546107a490611471565b80156107f15780601f106107c6576101008083540402835291602001916107f1565b820191906000526020600020905b8154815290600101906020018083116107d457829003601f168201915b5050505050815260200160028201805461080a90611471565b80601f016020809104026020016040519081016040528092919081815260200182805461083690611471565b80156108835780601f1061085857610100808354040283529160200191610883565b820191906000526020600020905b81548152906001019060200180831161086657829003601f168201915b50505050508152602001600382015481526020016004820160009054906101000a900460ff161515151581525050815260200190600101906106b3565b50505050905060025442101561093c5760005b815181101561093a576000828281518110610917577f4e487b7100000000000000000000000000000000000000000000000000000000600052603260045260246000fd5b602002602001015160600181815250508080610932906114bf565b9150506108d3565b505b6040518060a0016040528060008054906101000a900473ffffffffffffffffffffffffffffffffffffffff1673ffffffffffffffffffffffffffffffffffffffff1681526020016001805461099090611471565b80601f01602080910402602001604051908101604052809291908181526020018280546109bc90611471565b8015610a095780601f106109de57610100808354040283529160200191610a09565b820191906000526020600020905b8154815290600101906020018083116109ec57829003601f168201915b505050505081526020016002548152602001600460003373ffffffffffffffffffffffffffffffffffffffff1673ffffffffffffffffffffffffffffffffffffffff16815260200190815260200160002060405180606001604052908160008201548152602001600182015481526020016002820160009054906101000a900460ff16151515158152505081526020018281525091505090565b60003373ffffffffffffffffffffffffffffffffffffffff1660008054906101000a900473ffffffffffffffffffffffffffffffffffffffff1673ffffffffffffffffffffffffffffffffffffffff1614610afd57600080fd5b60005b83839050811015610c79576003848483818110610b46577f4e487b7100000000000000000000000000000000000000000000000000000000600052603260045260246000fd5b9050602002810190610b58919061116f565b90806001815401808255809150506001900390600052602060002090600502016000909190919091508181610b8d919061172b565b5050600060036001600380549050610ba5919061126f565b81548110610bdc577f4e487b7100000000000000000000000000000000000000000000000000000000600052603260045260246000fd5b906000526020600020906005020160030181905550600160036001600380549050610c07919061126f565b81548110610c3e577f4e487b7100000000000000000000000000000000000000000000000000000000600052603260045260246000fd5b906000526020600020906005020160040160006101000a81548160ff0219169083151502179055508080610c71906114bf565b915050610b00565b506001600380549050610c8c919061126f565b905092915050565b6040518060a00160405280600073ffffffffffffffffffffffffffffffffffffffff1681526020016060815260200160008152602001610cd2610cdf565b8152602001606081525090565b604051806060016040528060008152602001600081526020016000151581525090565b60008083601f840112610d1457600080fd5b8235905067ffffffffffffffff811115610d2d57600080fd5b602083019150836020820283011115610d4557600080fd5b9250929050565b600081359050610d5b81611833565b92915050565b60008060208385031215610d7457600080fd5b600083013567ffffffffffffffff811115610d8e57600080fd5b610d9a85828601610d02565b92509250509250929050565b600060208284031215610db857600080fd5b6000610dc684828501610d4c565b91505092915050565b6000610ddb8383610ef7565b905092915050565b610dec816112a3565b82525050565b6000610dfd826111b8565b610e0781856111e6565b935083602082028501610e1985611193565b8060005b85811015610e555784840389528151610e368582610dcf565b9450610e41836111d9565b925060208a01995050600181019050610e1d565b50829750879550505050505092915050565b610e70816112b5565b82525050565b610e7f816112b5565b82525050565b6000610e90826111ce565b610e9a81856111f7565b9350610eaa81856020860161143e565b610eb3816115f3565b840191505092915050565b6000610ec9826111ce565b610ed38185611208565b9350610ee381856020860161143e565b610eec816115f3565b840191505092915050565b600060a0830160008301518482036000860152610f148282610e85565b91505060208301518482036020860152610f2e8282610e85565b91505060408301518482036040860152610f488282610e85565b9150506060830151610f5d606086018261103a565b506080830151610f706080860182610e67565b508091505092915050565b600060e083016000830151610f936000860182610de3565b5060208301518482036020860152610fab8282610e85565b9150506040830151610fc0604086018261103a565b506060830151610fd36060860182610ff8565b50608083015184820360c0860152610feb8282610df2565b9150508091505092915050565b60608201600082015161100e600085018261103a565b506020820151611021602085018261103a565b5060408201516110346040850182610e67565b50505050565b611043816112e1565b82525050565b611052816112e1565b82525050565b600060208201905061106d6000830184610e76565b92915050565b600060a082019050818103600083015261108d8188610ebe565b905081810360208301526110a18187610ebe565b905081810360408301526110b58186610ebe565b90506110c46060830185611049565b6110d16080830184610e76565b9695505050505050565b600060208201905081810360008301526110f58184610f7b565b905092915050565b60006020820190506111126000830184611049565b92915050565b6000808335600160200384360303811261113157600080fd5b80840192508235915067ffffffffffffffff82111561114f57600080fd5b60208301925060018202360383131561116757600080fd5b509250929050565b60008235600160a00383360303811261118757600080fd5b80830191505092915050565b6000819050602082019050919050565b60008190508160005260206000209050919050565b600081519050919050565b600082905092915050565b600081519050919050565b6000602082019050919050565b600082825260208201905092915050565b600082825260208201905092915050565b600082825260208201905092915050565b6000611224826112e1565b915061122f836112e1565b9250827fffffffffffffffffffffffffffffffffffffffffffffffffffffffffffffffff0382111561126457611263611526565b5b828201905092915050565b600061127a826112e1565b9150611285836112e1565b92508282101561129857611297611526565b5b828203905092915050565b60006112ae826112c1565b9050919050565b60008115159050919050565b600073ffffffffffffffffffffffffffffffffffffffff82169050919050565b6000819050919050565b5b8181101561130a576112ff60008261162b565b6001810190506112ec565b5050565b6000611319826112b5565b9050919050565b600061132b826112e1565b9050919050565b61133c83836111c3565b67ffffffffffffffff81111561135557611354611584565b5b61135f8254611471565b600080601f8411601f8411171561137c57611379856111a3565b90505b601f8311156113af576020601f8501048101602085101561139b578190505b6113ad6020601f8601048301826112eb565b505b601f8411600181146113dc57600085156113ca578388013590505b6113d486826114a3565b875550611434565b601f1985168260005b8281101561140a57858a013582556001820191506020860195506020810190506113e5565b8783101561142757858a0135611423601f8a1682611508565b8355505b6001600289020189555050505b5050505050505050565b60005b8381101561145c578082015181840152602081019050611441565b8381111561146b576000848401525b50505050565b6000600282049050600182168061148957607f821691505b6020821081141561149d5761149c611555565b5b50919050565b60006114af8383611508565b9150826002028217905092915050565b60006114ca826112e1565b91507fffffffffffffffffffffffffffffffffffffffffffffffffffffffffffffffff8214156114fd576114fc611526565b5b600182019050919050565b60006115196000198460080261161e565b1980831691505092915050565b7f4e487b7100000000000000000000000000000000000000000000000000000000600052601160045260246000fd5b7f4e487b7100000000000000000000000000000000000000000000000000000000600052602260045260246000fd5b7f4e487b7100000000000000000000000000000000000000000000000000000000600052604160045260246000fd5b6000819050919050565b6000819050919050565b600081356115d48161181c565b80915050919050565b600081356115ea81611833565b80915050919050565b6000601f19601f8301169050919050565b60008160001b9050919050565b600082821b905092915050565b600082821c905092915050565b61163d61163661184a565b83836117f7565b5050565b600060ff61164e84611604565b9350801983169250808416831791505092915050565b60007fffffffffffffffffffffffffffffffffffffffffffffffffffffffffffffffff61169084611604565b9350801983169250808416831791505092915050565b6000600883026116d67fffffffffffffffffffffffffffffffffffffffffffffffffffffffffffffffff82611611565b6116e08683611611565b95508019841693508086168417925050509392505050565b6117018261130e565b61171461170d826115b3565b8354611641565b8255505050565b611726838383611332565b505050565b600081016000830161173d8185611118565b61174881838661171b565b50505050600181016020830161175e8185611118565b61176981838661171b565b50505050600281016040830161177f8185611118565b61178a81838661171b565b505050506003810160608301806117a0816115dd565b90506117ac81846117d4565b5050506004810160808301806117c1816115c7565b90506117cd81846116f8565b5050505050565b6117dd82611320565b6117f06117e9826115bd565b8354611664565b8255505050565b61180083611320565b61181461180c826115bd565b8484546116a6565b825550505050565b611825816112b5565b811461183057600080fd5b50565b61183c816112e1565b811461184757600080fd5b50565b60009056fea2646970667358221220fff758b00f46d956e1eb5438d8da127ed5515c2c84a5e0248e9c55b1e8cbc37264736f6c63430008000033",
  "immutableReferences": {},
  "source": "// SPDX-License-Identifier: MIT\npragma solidity ^0.8.0;\n\nimport './IElection.sol';\n\ncontract Election is IElection {\n    address owner;\n    string name;\n    uint expiresAt;\n\n    Candidate[] public candidates;\n    mapping(address => Vote) votes;\n\n    modifier ownerOnly() {\n        require(owner == msg.sender);\n        _;\n    }\n\n    constructor(address _owner, string memory _name, uint _expiresAfter) {\n        owner = _owner;\n        name = _name;\n        expiresAt = block.timestamp + _expiresAfter;\n    }\n\n    // @override\n    function getInfo() external override view returns(Info memory) {\n        Candidate[] memory tmp = candidates;\n\n        if (block.timestamp < expiresAt) {\n            for (uint i = 0; i < tmp.length; i++) {\n                tmp[i].votes = 0;\n            }\n        }\n\n        return Info({\n            owner: owner,\n            name: name,\n            expiresAt: expiresAt,\n            vote: votes[msg.sender],\n            candidates: tmp\n        });\n    }\n\n    // @override\n    function addCandidates(Candidate[] calldata _candidates) external override ownerOnly returns(uint) {\n        for (uint i = 0; i < _candidates.length; i++) {\n            candidates.push(_candidates[i]);\n            candidates[candidates.length - 1].votes = 0;\n            candidates[candidates.length - 1].active = true;\n        }\n\n        return candidates.length - 1;\n    }\n\n    // @override\n    function vote(uint _candidateId) external override returns(bool) {\n        require(block.timestamp < expiresAt);\n        require(!votes[msg.sender].exists);\n        require(_candidateId < candidates.length);\n        require(candidates[_candidateId].active);\n\n        votes[msg.sender] = Vote({\n            candidateID: _candidateId,\n            expiresAt: block.timestamp + 10 minutes,\n            exists: true\n        });\n\n        Candidate storage candidate = candidates[_candidateId];\n        candidate.votes += 1;\n\n        return true;\n    }\n\n    // @override\n    function retract() external override returns(bool) {\n        require(block.timestamp < expiresAt);\n\n        Vote memory v = votes[msg.sender];\n\n        require(v.exists);\n        require(block.timestamp < v.expiresAt);\n\n        candidates[v.candidateID].votes -= 1;\n        delete votes[msg.sender];\n\n        return true;\n    }\n}",
  "sourcePath": "/home/void/ethereum/js/vue-material/contracts/Election.sol",
  "compiler": {
    "name": "solc",
    "version": "0.8.0+commit.c7dfd78e.Emscripten.clang"
  },
  "schemaVersion": "3.4.3",
  "updatedAt": "2021-10-02T04:55:23.774Z",
  "networkType": "ethereum",
  "devdoc": {
    "kind": "dev",
    "methods": {},
    "version": 1
  },
  "userdoc": {
    "kind": "user",
    "methods": {},
    "version": 1
  }
}