{
  "contractName": "Factory",
  "abi": [
    {
      "inputs": [],
      "stateMutability": "nonpayable",
      "type": "constructor"
    },
    {
      "inputs": [
        {
          "internalType": "string",
          "name": "_name",
          "type": "string"
        }
      ],
      "name": "createElection",
      "outputs": [],
      "stateMutability": "nonpayable",
      "type": "function"
    },
    {
      "inputs": [
        {
          "internalType": "string",
          "name": "_name",
          "type": "string"
        },
        {
          "internalType": "string",
          "name": "_description",
          "type": "string"
        },
        {
          "internalType": "uint256",
          "name": "_targetAmount",
          "type": "uint256"
        },
        {
          "internalType": "address",
          "name": "target",
          "type": "address"
        }
      ],
      "name": "createCrowdfunding",
      "outputs": [],
      "stateMutability": "nonpayable",
      "type": "function"
    },
    {
      "inputs": [],
      "name": "getElections",
      "outputs": [
        {
          "internalType": "contract IElection[]",
          "name": "",
          "type": "address[]"
        }
      ],
      "stateMutability": "view",
      "type": "function",
      "constant": true
    },
    {
      "inputs": [],
      "name": "getCrowdfunding",
      "outputs": [
        {
          "internalType": "contract ICrowdfunding[]",
          "name": "",
          "type": "address[]"
        }
      ],
      "stateMutability": "view",
      "type": "function",
      "constant": true
    }
  ],
  "bytecode": "0x608060405234801561001057600080fd5b50614285806100206000396000f3fe60806040523480156200001157600080fd5b5060043610620000525760003560e01c80630d3b77be146200005757806315cf4a5f14620000775780633b7a045214620000975780639f3a7f5214620000b9575b600080fd5b6200007560048036038101906200006f91906200042b565b620000db565b005b6200009560048036038101906200008f9190620003e2565b62000188565b005b620000a16200022b565b604051620000b0919062000686565b60405180910390f35b620000c3620002bb565b604051620000d29190620006aa565b60405180910390f35b6001868686868686604051620000f1906200034b565b6200010296959493929190620006ce565b604051809103906000f0801580156200011f573d6000803e3d6000fd5b509080600181540180825580915050600190039060005260206000200160009091909190916101000a81548173ffffffffffffffffffffffffffffffffffffffff021916908373ffffffffffffffffffffffffffffffffffffffff160217905550505050505050565b60003383836040516200019b9062000359565b620001a99392919062000650565b604051809103906000f080158015620001c6573d6000803e3d6000fd5b509080600181540180825580915050600190039060005260206000200160009091909190916101000a81548173ffffffffffffffffffffffffffffffffffffffff021916908373ffffffffffffffffffffffffffffffffffffffff1602179055505050565b60606001805480602002602001604051908101604052809291908181526020018280548015620002b157602002820191906000526020600020905b8160009054906101000a900473ffffffffffffffffffffffffffffffffffffffff1673ffffffffffffffffffffffffffffffffffffffff168152602001906001019080831162000266575b5050505050905090565b606060008054806020026020016040519081016040528092919081815260200182805480156200034157602002820191906000526020600020905b8160009054906101000a900473ffffffffffffffffffffffffffffffffffffffff1673ffffffffffffffffffffffffffffffffffffffff1681526020019060010190808311620002f6575b5050505050905090565b611bc0806200088283390190565b611e0e806200244283390190565b60008135905062000378816200084d565b92915050565b60008083601f8401126200039157600080fd5b8235905067ffffffffffffffff811115620003ab57600080fd5b602083019150836001820283011115620003c457600080fd5b9250929050565b600081359050620003dc8162000867565b92915050565b60008060208385031215620003f657600080fd5b600083013567ffffffffffffffff8111156200041157600080fd5b6200041f858286016200037e565b92509250509250929050565b600080600080600080608087890312156200044557600080fd5b600087013567ffffffffffffffff8111156200046057600080fd5b6200046e89828a016200037e565b9650965050602087013567ffffffffffffffff8111156200048e57600080fd5b6200049c89828a016200037e565b94509450506040620004b189828a01620003cb565b9250506060620004c489828a0162000367565b9150509295509295509295565b6000620004df8383620005ea565b60208301905092915050565b6000620004f98383620005fb565b60208301905092915050565b62000510816200079f565b82525050565b600062000523826200074d565b6200052f81856200077d565b93506200053c836200072d565b8060005b8381101562000573578151620005578882620004d1565b9750620005648362000763565b92505060018101905062000540565b5085935050505092915050565b60006200058d8262000758565b6200059981856200077d565b9350620005a6836200073d565b8060005b83811015620005dd578151620005c18882620004eb565b9750620005ce8362000770565b925050600181019050620005aa565b5085935050505092915050565b620005f581620007dd565b82525050565b620006068162000805565b82525050565b60006200061a83856200078e565b9350620006298385846200082d565b62000634836200083c565b840190509392505050565b6200064a81620007d3565b82525050565b600060408201905062000667600083018662000505565b81810360208301526200067c8184866200060c565b9050949350505050565b60006020820190508181036000830152620006a2818462000516565b905092915050565b60006020820190508181036000830152620006c6818462000580565b905092915050565b60006080820190508181036000830152620006eb81888a6200060c565b90508181036020830152620007028186886200060c565b90506200071360408301856200063f565b62000722606083018462000505565b979650505050505050565b6000819050602082019050919050565b6000819050602082019050919050565b600081519050919050565b600081519050919050565b6000602082019050919050565b6000602082019050919050565b600082825260208201905092915050565b600082825260208201905092915050565b6000620007ac82620007b3565b9050919050565b600073ffffffffffffffffffffffffffffffffffffffff82169050919050565b6000819050919050565b6000620007ea82620007f1565b9050919050565b6000620007fe82620007b3565b9050919050565b6000620008128262000819565b9050919050565b60006200082682620007b3565b9050919050565b82818337600083830152505050565b6000601f19601f8301169050919050565b62000858816200079f565b81146200086457600080fd5b50565b6200087281620007d3565b81146200087e57600080fd5b5056fe60806040523480156200001157600080fd5b5060405162001bc038038062001bc0833981810160405281019062000037919062000294565b600082116200004557600080fd5b600073ffffffffffffffffffffffffffffffffffffffff168173ffffffffffffffffffffffffffffffffffffffff1614156200008057600080fd5b336000806101000a81548173ffffffffffffffffffffffffffffffffffffffff021916908373ffffffffffffffffffffffffffffffffffffffff1602179055508360019080519060200190620000d892919062000144565b508260029080519060200190620000f192919062000144565b508160048190555080600560006101000a81548173ffffffffffffffffffffffffffffffffffffffff021916908373ffffffffffffffffffffffffffffffffffffffff16021790555050505050620004d5565b82805462000152906200040d565b90600052602060002090601f016020900481019282620001765760008555620001c2565b82601f106200019157805160ff1916838001178555620001c2565b82800160010185558215620001c2579182015b82811115620001c1578251825591602001919060010190620001a4565b5b509050620001d19190620001d5565b5090565b5b80821115620001f0576000816000905550600101620001d6565b5090565b60006200020b620002058462000366565b62000332565b9050828152602081018484840111156200022457600080fd5b62000231848285620003d7565b509392505050565b6000815190506200024a81620004a1565b92915050565b600082601f8301126200026257600080fd5b815162000274848260208601620001f4565b91505092915050565b6000815190506200028e81620004bb565b92915050565b60008060008060808587031215620002ab57600080fd5b600085015167ffffffffffffffff811115620002c657600080fd5b620002d48782880162000250565b945050602085015167ffffffffffffffff811115620002f257600080fd5b620003008782880162000250565b935050604062000313878288016200027d565b9250506060620003268782880162000239565b91505092959194509250565b6000604051905081810181811067ffffffffffffffff821117156200035c576200035b62000472565b5b8060405250919050565b600067ffffffffffffffff82111562000384576200038362000472565b5b601f19601f8301169050602081019050919050565b6000620003a682620003ad565b9050919050565b600073ffffffffffffffffffffffffffffffffffffffff82169050919050565b6000819050919050565b60005b83811015620003f7578082015181840152602081019050620003da565b8381111562000407576000848401525b50505050565b600060028204905060018216806200042657607f821691505b602082108114156200043d576200043c62000443565b5b50919050565b7f4e487b7100000000000000000000000000000000000000000000000000000000600052602260045260246000fd5b7f4e487b7100000000000000000000000000000000000000000000000000000000600052604160045260246000fd5b620004ac8162000399565b8114620004b857600080fd5b50565b620004c681620003cd565b8114620004d257600080fd5b50565b6116db80620004e56000396000f3fe60806040526004361061004e5760003560e01c80633ccfd60b146100935780634bf71729146100aa5780635a9b0b89146100d557806395805dad14610100578063b5aebc80146101295761008e565b3661008e576040517f08c379a000000000000000000000000000000000000000000000000000000000815260040161008590611368565b60405180910390fd5b600080fd5b34801561009f57600080fd5b506100a8610145565b005b3480156100b657600080fd5b506100bf6103c3565b6040516100cc919061148a565b60405180910390f35b3480156100e157600080fd5b506100ea6104c0565b6040516100f79190611468565b60405180910390f35b34801561010c57600080fd5b5061012760048036038101906101229190610dcf565b6106a8565b005b610143600480360381019061013e9190610d8a565b6107dc565b005b6000600560009054906101000a900473ffffffffffffffffffffffffffffffffffffffff1673ffffffffffffffffffffffffffffffffffffffff163373ffffffffffffffffffffffffffffffffffffffff1614156101f657600960009054906101000a900460ff166101ec576040517f08c379a00000000000000000000000000000000000000000000000000000000081526004016101e3906112e8565b60405180910390fd5b6003549050610356565b600960009054906101000a900460ff1615610246576040517f08c379a000000000000000000000000000000000000000000000000000000000815260040161023d906113c8565b60405180910390fd5b60085442101561028b576040517f08c379a000000000000000000000000000000000000000000000000000000000815260040161028290611388565b60405180910390fd5b6000600660003373ffffffffffffffffffffffffffffffffffffffff1673ffffffffffffffffffffffffffffffffffffffff1681526020019081526020016000206002015411610310576040517f08c379a0000000000000000000000000000000000000000000000000000000008152600401610307906113a8565b60405180910390fd5b600660003373ffffffffffffffffffffffffffffffffffffffff1673ffffffffffffffffffffffffffffffffffffffff1681526020019081526020016000206001015490505b60008111156103c0578060036000828254610371919061152f565b925050819055503373ffffffffffffffffffffffffffffffffffffffff166108fc829081150290604051600060405180830381858888f193505050501580156103be573d6000803e3d6000fd5b505b50565b6103cb610bed565b600660003373ffffffffffffffffffffffffffffffffffffffff1673ffffffffffffffffffffffffffffffffffffffff168152602001908152602001600020604051806060016040529081600082018054610425906115ed565b80601f0160208091040260200160405190810160405280929190818152602001828054610451906115ed565b801561049e5780601f106104735761010080835404028352916020019161049e565b820191906000526020600020905b81548152906001019060200180831161048157829003601f168201915b5050505050815260200160018201548152602001600282015481525050905090565b6104c8610c0e565b60405180610120016040528060008054906101000a900473ffffffffffffffffffffffffffffffffffffffff1673ffffffffffffffffffffffffffffffffffffffff1681526020016001805461051d906115ed565b80601f0160208091040260200160405190810160405280929190818152602001828054610549906115ed565b80156105965780601f1061056b57610100808354040283529160200191610596565b820191906000526020600020905b81548152906001019060200180831161057957829003601f168201915b50505050508152602001600280546105ad906115ed565b80601f01602080910402602001604051908101604052809291908181526020018280546105d9906115ed565b80156106265780601f106105fb57610100808354040283529160200191610626565b820191906000526020600020905b81548152906001019060200180831161060957829003601f168201915b5050505050815260200160035481526020016004548152602001600560009054906101000a900473ffffffffffffffffffffffffffffffffffffffff1673ffffffffffffffffffffffffffffffffffffffff16815260200160075481526020016008548152602001600960009054906101000a900460ff161515815250905090565b60008054906101000a900473ffffffffffffffffffffffffffffffffffffffff1673ffffffffffffffffffffffffffffffffffffffff163373ffffffffffffffffffffffffffffffffffffffff1614610736576040517f08c379a000000000000000000000000000000000000000000000000000000000815260040161072d90611448565b60405180910390fd5b60008111610779576040517f08c379a000000000000000000000000000000000000000000000000000000000815260040161077090611428565b60405180910390fd5b6000600854146107be576040517f08c379a00000000000000000000000000000000000000000000000000000000081526004016107b590611308565b60405180910390fd5b42600781905550806007546107d391906114d9565b60088190555050565b600560009054906101000a900473ffffffffffffffffffffffffffffffffffffffff1673ffffffffffffffffffffffffffffffffffffffff163373ffffffffffffffffffffffffffffffffffffffff16141561086d576040517f08c379a000000000000000000000000000000000000000000000000000000000815260040161086490611448565b60405180910390fd5b6000600660003373ffffffffffffffffffffffffffffffffffffffff1673ffffffffffffffffffffffffffffffffffffffff16815260200190815260200160002060020154146108f2576040517f08c379a00000000000000000000000000000000000000000000000000000000081526004016108e9906113e8565b60405180910390fd5b60006008541415610938576040517f08c379a000000000000000000000000000000000000000000000000000000000815260040161092f90611348565b60405180910390fd5b600854421061097c576040517f08c379a000000000000000000000000000000000000000000000000000000000815260040161097390611408565b60405180910390fd5b600034116109bf576040517f08c379a00000000000000000000000000000000000000000000000000000000081526004016109b690611328565b60405180910390fd5b60045460035410610a05576040517f08c379a00000000000000000000000000000000000000000000000000000000081526004016109fc906113c8565b60405180910390fd5b60003490508060036000828254610a1c91906114d9565b925050819055506004546003541115610ab3576000600454600354610a41919061152f565b90508082610a4f919061152f565b91508060036000828254610a63919061152f565b925050819055503373ffffffffffffffffffffffffffffffffffffffff166108fc829081150290604051600060405180830381858888f19350505050158015610ab0573d6000803e3d6000fd5b50505b6004546003541415610adb576001600960006101000a81548160ff0219169083151502179055505b604051806060016040528084848080601f016020809104026020016040519081016040528093929190818152602001838380828437600081840152601f19601f82011690508083019250505050505050815260200182815260200142815250600660003373ffffffffffffffffffffffffffffffffffffffff1673ffffffffffffffffffffffffffffffffffffffff1681526020019081526020016000206000820151816000019080519060200190610b95929190610c88565b5060208201518160010155604082015181600201559050507f4e0389c0d7ed837c1c99f31c66694ab042fa67bdf25d7f2f40d01273a65971ec838383604051610be0939291906112b6565b60405180910390a1505050565b60405180606001604052806060815260200160008152602001600081525090565b604051806101200160405280600073ffffffffffffffffffffffffffffffffffffffff16815260200160608152602001606081526020016000815260200160008152602001600073ffffffffffffffffffffffffffffffffffffffff16815260200160008152602001600081526020016000151581525090565b828054610c94906115ed565b90600052602060002090601f016020900481019282610cb65760008555610cfd565b82601f10610ccf57805160ff1916838001178555610cfd565b82800160010185558215610cfd579182015b82811115610cfc578251825591602001919060010190610ce1565b5b509050610d0a9190610d0e565b5090565b5b80821115610d27576000816000905550600101610d0f565b5090565b60008083601f840112610d3d57600080fd5b8235905067ffffffffffffffff811115610d5657600080fd5b602083019150836001820283011115610d6e57600080fd5b9250929050565b600081359050610d848161168e565b92915050565b60008060208385031215610d9d57600080fd5b600083013567ffffffffffffffff811115610db757600080fd5b610dc385828601610d2b565b92509250509250929050565b600060208284031215610de157600080fd5b6000610def84828501610d75565b91505092915050565b610e0181611563565b82525050565b610e1081611575565b82525050565b6000610e2283856114c8565b9350610e2f8385846115ab565b610e388361167d565b840190509392505050565b6000610e4e826114ac565b610e5881856114b7565b9350610e688185602086016115ba565b610e718161167d565b840191505092915050565b6000610e89601a836114c8565b91507f43463a20616d6f756e742069736e277420636f6c6c65637465640000000000006000830152602082019050919050565b6000610ec96013836114c8565b91507f43463a20616c72656164792073746172746564000000000000000000000000006000830152602082019050919050565b6000610f09600e836114c8565b91507f43463a2076616c756520697320300000000000000000000000000000000000006000830152602082019050919050565b6000610f49600f836114c8565b91507f43463a206e6f74207374617274656400000000000000000000000000000000006000830152602082019050919050565b6000610f896019836114c8565b91507f75736520646f6e617465206d6574686f6420696e7374656164000000000000006000830152602082019050919050565b6000610fc9601a836114c8565b91507f43463a20636f6e74726163742069736e277420657870697265640000000000006000830152602082019050919050565b60006110096016836114c8565b91507f43463a20646f6e6174696f6e206e6f7420666f756e64000000000000000000006000830152602082019050919050565b60006110496017836114c8565b91507f43463a20616d6f756e7420697320636f6c6c65637465640000000000000000006000830152602082019050919050565b60006110896013836114c8565b91507f43463a20616c726561647920646f6e61746564000000000000000000000000006000830152602082019050919050565b60006110c9600b836114c8565b91507f43463a20657870697265640000000000000000000000000000000000000000006000830152602082019050919050565b60006111096012836114c8565b91507f43463a2077726f6e67206475726174696f6e00000000000000000000000000006000830152602082019050919050565b60006111496011836114c8565b91507f43463a2077726f6e6720616464726573730000000000000000000000000000006000830152602082019050919050565b6000610120830160008301516111956000860182610df8565b50602083015184820360208601526111ad8282610e43565b915050604083015184820360408601526111c78282610e43565b91505060608301516111dc6060860182611298565b5060808301516111ef6080860182611298565b5060a083015161120260a0860182610df8565b5060c083015161121560c0860182611298565b5060e083015161122860e0860182611298565b5061010083015161123d610100860182610e07565b508091505092915050565b600060608301600083015184820360008601526112658282610e43565b915050602083015161127a6020860182611298565b50604083015161128d6040860182611298565b508091505092915050565b6112a1816115a1565b82525050565b6112b0816115a1565b82525050565b600060408201905081810360008301526112d1818587610e16565b90506112e060208301846112a7565b949350505050565b6000602082019050818103600083015261130181610e7c565b9050919050565b6000602082019050818103600083015261132181610ebc565b9050919050565b6000602082019050818103600083015261134181610efc565b9050919050565b6000602082019050818103600083015261136181610f3c565b9050919050565b6000602082019050818103600083015261138181610f7c565b9050919050565b600060208201905081810360008301526113a181610fbc565b9050919050565b600060208201905081810360008301526113c181610ffc565b9050919050565b600060208201905081810360008301526113e18161103c565b9050919050565b600060208201905081810360008301526114018161107c565b9050919050565b60006020820190508181036000830152611421816110bc565b9050919050565b60006020820190508181036000830152611441816110fc565b9050919050565b600060208201905081810360008301526114618161113c565b9050919050565b60006020820190508181036000830152611482818461117c565b905092915050565b600060208201905081810360008301526114a48184611248565b905092915050565b600081519050919050565b600082825260208201905092915050565b600082825260208201905092915050565b60006114e4826115a1565b91506114ef836115a1565b9250827fffffffffffffffffffffffffffffffffffffffffffffffffffffffffffffffff038211156115245761152361161f565b5b828201905092915050565b600061153a826115a1565b9150611545836115a1565b9250828210156115585761155761161f565b5b828203905092915050565b600061156e82611581565b9050919050565b60008115159050919050565b600073ffffffffffffffffffffffffffffffffffffffff82169050919050565b6000819050919050565b82818337600083830152505050565b60005b838110156115d85780820151818401526020810190506115bd565b838111156115e7576000848401525b50505050565b6000600282049050600182168061160557607f821691505b602082108114156116195761161861164e565b5b50919050565b7f4e487b7100000000000000000000000000000000000000000000000000000000600052601160045260246000fd5b7f4e487b7100000000000000000000000000000000000000000000000000000000600052602260045260246000fd5b6000601f19601f8301169050919050565b611697816115a1565b81146116a257600080fd5b5056fea264697066735822122043fbd4d4b09ae3e885156f70852f3f8718b24b043bf11897c78fc6b93d275bb664736f6c6343000800003360806040523480156200001157600080fd5b5060405162001e0e38038062001e0e8339818101604052810190620000379190620001d1565b816000806101000a81548173ffffffffffffffffffffffffffffffffffffffff021916908373ffffffffffffffffffffffffffffffffffffffff16021790555080600190805190602001906200008f92919062000098565b505050620003aa565b828054620000a690620002fc565b90600052602060002090601f016020900481019282620000ca576000855562000116565b82601f10620000e557805160ff191683800117855562000116565b8280016001018555821562000116579182015b8281111562000115578251825591602001919060010190620000f8565b5b50905062000125919062000129565b5090565b5b80821115620001445760008160009055506001016200012a565b5090565b60006200015f62000159846200025f565b6200022b565b9050828152602081018484840111156200017857600080fd5b62000185848285620002c6565b509392505050565b6000815190506200019e8162000390565b92915050565b600082601f830112620001b657600080fd5b8151620001c884826020860162000148565b91505092915050565b60008060408385031215620001e557600080fd5b6000620001f5858286016200018d565b925050602083015167ffffffffffffffff8111156200021357600080fd5b6200022185828601620001a4565b9150509250929050565b6000604051905081810181811067ffffffffffffffff8211171562000255576200025462000361565b5b8060405250919050565b600067ffffffffffffffff8211156200027d576200027c62000361565b5b601f19601f8301169050602081019050919050565b60006200029f82620002a6565b9050919050565b600073ffffffffffffffffffffffffffffffffffffffff82169050919050565b60005b83811015620002e6578082015181840152602081019050620002c9565b83811115620002f6576000848401525b50505050565b600060028204905060018216806200031557607f821691505b602082108114156200032c576200032b62000332565b5b50919050565b7f4e487b7100000000000000000000000000000000000000000000000000000000600052602260045260246000fd5b7f4e487b7100000000000000000000000000000000000000000000000000000000600052604160045260246000fd5b6200039b8162000292565b8114620003a757600080fd5b50565b611a5480620003ba6000396000f3fe608060405234801561001057600080fd5b506004361061007d5760003560e01c806347f57b321161005b57806347f57b32146101045780635a9b0b891461012257806395805dad146101405780639bc90d00146101705761007d565b80630121b93f146100825780630242f351146100b25780633477ee2e146100d0575b600080fd5b61009c60048036038101906100979190610f47565b6101a0565b6040516100a9919061120c565b60405180910390f35b6100ba6103a9565b6040516100c791906112b1565b60405180910390f35b6100ea60048036038101906100e59190610f47565b61042f565b6040516100fb959493929190611227565b60405180910390f35b61010c61061a565b604051610119919061120c565b60405180910390f35b61012a6107b3565b604051610137919061128f565b60405180910390f35b61015a60048036038101906101559190610f47565b610bc3565b604051610167919061120c565b60405180910390f35b61018a60048036038101906101859190610f02565b610c27565b60405161019791906112cc565b60405180910390f35b6000600360009054906101000a900460ff166101bb57600080fd5b60025442106101c957600080fd5b600560003373ffffffffffffffffffffffffffffffffffffffff1673ffffffffffffffffffffffffffffffffffffffff16815260200190815260200160002060020160009054906101000a900460ff161561022357600080fd5b600480549050821061023457600080fd5b6004828154811061026e577f4e487b7100000000000000000000000000000000000000000000000000000000600052603260045260246000fd5b906000526020600020906005020160040160009054906101000a900460ff1661029657600080fd5b6040518060600160405280838152602001610258426102b591906113e8565b815260200160011515815250600560003373ffffffffffffffffffffffffffffffffffffffff1673ffffffffffffffffffffffffffffffffffffffff168152602001908152602001600020600082015181600001556020820151816001015560408201518160020160006101000a81548160ff021916908315150217905550905050600060048381548110610373577f4e487b7100000000000000000000000000000000000000000000000000000000600052603260045260246000fd5b90600052602060002090600502019050600181600301600082825461039891906113e8565b925050819055506001915050919050565b6103b1610e32565b600560003373ffffffffffffffffffffffffffffffffffffffff1673ffffffffffffffffffffffffffffffffffffffff16815260200190815260200160002060405180606001604052908160008201548152602001600182015481526020016002820160009054906101000a900460ff161515151581525050905090565b6004818154811061043f57600080fd5b906000526020600020906005020160009150905080600001805461046290611640565b80601f016020809104026020016040519081016040528092919081815260200182805461048e90611640565b80156104db5780601f106104b0576101008083540402835291602001916104db565b820191906000526020600020905b8154815290600101906020018083116104be57829003601f168201915b5050505050908060010180546104f090611640565b80601f016020809104026020016040519081016040528092919081815260200182805461051c90611640565b80156105695780601f1061053e57610100808354040283529160200191610569565b820191906000526020600020905b81548152906001019060200180831161054c57829003601f168201915b50505050509080600201805461057e90611640565b80601f01602080910402602001604051908101604052809291908181526020018280546105aa90611640565b80156105f75780601f106105cc576101008083540402835291602001916105f7565b820191906000526020600020905b8154815290600101906020018083116105da57829003601f168201915b5050505050908060030154908060040160009054906101000a900460ff16905085565b6000600360009054906101000a900460ff1661063557600080fd5b600254421061064357600080fd5b6000600560003373ffffffffffffffffffffffffffffffffffffffff1673ffffffffffffffffffffffffffffffffffffffff16815260200190815260200160002060405180606001604052908160008201548152602001600182015481526020016002820160009054906101000a900460ff161515151581525050905080604001516106ce57600080fd5b806020015142106106de57600080fd5b6001600482600001518154811061071e577f4e487b7100000000000000000000000000000000000000000000000000000000600052603260045260246000fd5b9060005260206000209060050201600301600082825461073e919061143e565b92505081905550600560003373ffffffffffffffffffffffffffffffffffffffff1673ffffffffffffffffffffffffffffffffffffffff16815260200190815260200160002060008082016000905560018201600090556002820160006101000a81549060ff02191690555050600191505090565b6107bb610e55565b60006004805480602002602001604051908101604052809291908181526020016000905b828210156109ec57838290600052602060002090600502016040518060a001604052908160008201805461081290611640565b80601f016020809104026020016040519081016040528092919081815260200182805461083e90611640565b801561088b5780601f106108605761010080835404028352916020019161088b565b820191906000526020600020905b81548152906001019060200180831161086e57829003601f168201915b505050505081526020016001820180546108a490611640565b80601f01602080910402602001604051908101604052809291908181526020018280546108d090611640565b801561091d5780601f106108f25761010080835404028352916020019161091d565b820191906000526020600020905b81548152906001019060200180831161090057829003601f168201915b5050505050815260200160028201805461093690611640565b80601f016020809104026020016040519081016040528092919081815260200182805461096290611640565b80156109af5780601f10610984576101008083540402835291602001916109af565b820191906000526020600020905b81548152906001019060200180831161099257829003601f168201915b50505050508152602001600382015481526020016004820160009054906101000a900460ff161515151581525050815260200190600101906107df565b5050505090506000600254421015610abc5760005b8251811015610aba57828181518110610a43577f4e487b7100000000000000000000000000000000000000000000000000000000600052603260045260246000fd5b60200260200101516060015182610a5a91906113e8565b91506000838281518110610a97577f4e487b7100000000000000000000000000000000000000000000000000000000600052603260045260246000fd5b602002602001015160600181815250508080610ab29061168e565b915050610a01565b505b6040518060c00160405280600360009054906101000a900460ff161515815260200160008054906101000a900473ffffffffffffffffffffffffffffffffffffffff1673ffffffffffffffffffffffffffffffffffffffff16815260200160018054610b2790611640565b80601f0160208091040260200160405190810160405280929190818152602001828054610b5390611640565b8015610ba05780601f10610b7557610100808354040283529160200191610ba0565b820191906000526020600020905b815481529060010190602001808311610b8357829003601f168201915b505050505081526020016002548152602001828152602001838152509250505090565b6000600360009054906101000a900460ff1615610bdf57600080fd5b600060048054905011610bf157600080fd5b8142610bfd91906113e8565b6002819055506001600360006101000a81548160ff02191690831515021790555060019050919050565b60003373ffffffffffffffffffffffffffffffffffffffff1660008054906101000a900473ffffffffffffffffffffffffffffffffffffffff1673ffffffffffffffffffffffffffffffffffffffff1614610c8157600080fd5b600360009054906101000a900460ff1615610c9b57600080fd5b60005b83839050811015610e17576004848483818110610ce4577f4e487b7100000000000000000000000000000000000000000000000000000000600052603260045260246000fd5b9050602002810190610cf6919061133e565b90806001815401808255809150506001900390600052602060002090600502016000909190919091508181610d2b91906118fa565b5050600060046001600480549050610d43919061143e565b81548110610d7a577f4e487b7100000000000000000000000000000000000000000000000000000000600052603260045260246000fd5b906000526020600020906005020160030181905550600160046001600480549050610da5919061143e565b81548110610ddc577f4e487b7100000000000000000000000000000000000000000000000000000000600052603260045260246000fd5b906000526020600020906005020160040160006101000a81548160ff0219169083151502179055508080610e0f9061168e565b915050610c9e565b506001600480549050610e2a919061143e565b905092915050565b604051806060016040528060008152602001600081526020016000151581525090565b6040518060c00160405280600015158152602001600073ffffffffffffffffffffffffffffffffffffffff168152602001606081526020016000815260200160008152602001606081525090565b60008083601f840112610eb557600080fd5b8235905067ffffffffffffffff811115610ece57600080fd5b602083019150836020820283011115610ee657600080fd5b9250929050565b600081359050610efc81611a02565b92915050565b60008060208385031215610f1557600080fd5b600083013567ffffffffffffffff811115610f2f57600080fd5b610f3b85828601610ea3565b92509250509250929050565b600060208284031215610f5957600080fd5b6000610f6784828501610eed565b91505092915050565b6000610f7c8383611098565b905092915050565b610f8d81611472565b82525050565b6000610f9e82611387565b610fa881856113b5565b935083602082028501610fba85611362565b8060005b85811015610ff65784840389528151610fd78582610f70565b9450610fe2836113a8565b925060208a01995050600181019050610fbe565b50829750879550505050505092915050565b61101181611484565b82525050565b61102081611484565b82525050565b60006110318261139d565b61103b81856113c6565b935061104b81856020860161160d565b611054816117c2565b840191505092915050565b600061106a8261139d565b61107481856113d7565b935061108481856020860161160d565b61108d816117c2565b840191505092915050565b600060a08301600083015184820360008601526110b58282611026565b915050602083015184820360208601526110cf8282611026565b915050604083015184820360408601526110e98282611026565b91505060608301516110fe60608601826111ee565b5060808301516111116080860182611008565b508091505092915050565b600060c0830160008301516111346000860182611008565b5060208301516111476020860182610f84565b506040830151848203604086015261115f8282611026565b915050606083015161117460608601826111ee565b50608083015161118760808601826111ee565b5060a083015184820360a086015261119f8282610f93565b9150508091505092915050565b6060820160008201516111c260008501826111ee565b5060208201516111d560208501826111ee565b5060408201516111e86040850182611008565b50505050565b6111f7816114b0565b82525050565b611206816114b0565b82525050565b60006020820190506112216000830184611017565b92915050565b600060a0820190508181036000830152611241818861105f565b90508181036020830152611255818761105f565b90508181036040830152611269818661105f565b905061127860608301856111fd565b6112856080830184611017565b9695505050505050565b600060208201905081810360008301526112a9818461111c565b905092915050565b60006060820190506112c660008301846111ac565b92915050565b60006020820190506112e160008301846111fd565b92915050565b6000808335600160200384360303811261130057600080fd5b80840192508235915067ffffffffffffffff82111561131e57600080fd5b60208301925060018202360383131561133657600080fd5b509250929050565b60008235600160a00383360303811261135657600080fd5b80830191505092915050565b6000819050602082019050919050565b60008190508160005260206000209050919050565b600081519050919050565b600082905092915050565b600081519050919050565b6000602082019050919050565b600082825260208201905092915050565b600082825260208201905092915050565b600082825260208201905092915050565b60006113f3826114b0565b91506113fe836114b0565b9250827fffffffffffffffffffffffffffffffffffffffffffffffffffffffffffffffff03821115611433576114326116f5565b5b828201905092915050565b6000611449826114b0565b9150611454836114b0565b925082821015611467576114666116f5565b5b828203905092915050565b600061147d82611490565b9050919050565b60008115159050919050565b600073ffffffffffffffffffffffffffffffffffffffff82169050919050565b6000819050919050565b5b818110156114d9576114ce6000826117fa565b6001810190506114bb565b5050565b60006114e882611484565b9050919050565b60006114fa826114b0565b9050919050565b61150b8383611392565b67ffffffffffffffff81111561152457611523611753565b5b61152e8254611640565b600080601f8411601f8411171561154b5761154885611372565b90505b601f83111561157e576020601f8501048101602085101561156a578190505b61157c6020601f8601048301826114ba565b505b601f8411600181146115ab5760008515611599578388013590505b6115a38682611672565b875550611603565b601f1985168260005b828110156115d957858a013582556001820191506020860195506020810190506115b4565b878310156115f657858a01356115f2601f8a16826116d7565b8355505b6001600289020189555050505b5050505050505050565b60005b8381101561162b578082015181840152602081019050611610565b8381111561163a576000848401525b50505050565b6000600282049050600182168061165857607f821691505b6020821081141561166c5761166b611724565b5b50919050565b600061167e83836116d7565b9150826002028217905092915050565b6000611699826114b0565b91507fffffffffffffffffffffffffffffffffffffffffffffffffffffffffffffffff8214156116cc576116cb6116f5565b5b600182019050919050565b60006116e8600019846008026117ed565b1980831691505092915050565b7f4e487b7100000000000000000000000000000000000000000000000000000000600052601160045260246000fd5b7f4e487b7100000000000000000000000000000000000000000000000000000000600052602260045260246000fd5b7f4e487b7100000000000000000000000000000000000000000000000000000000600052604160045260246000fd5b6000819050919050565b6000819050919050565b600081356117a3816119eb565b80915050919050565b600081356117b981611a02565b80915050919050565b6000601f19601f8301169050919050565b60008160001b9050919050565b600082821b905092915050565b600082821c905092915050565b61180c611805611a19565b83836119c6565b5050565b600060ff61181d846117d3565b9350801983169250808416831791505092915050565b60007fffffffffffffffffffffffffffffffffffffffffffffffffffffffffffffffff61185f846117d3565b9350801983169250808416831791505092915050565b6000600883026118a57fffffffffffffffffffffffffffffffffffffffffffffffffffffffffffffffff826117e0565b6118af86836117e0565b95508019841693508086168417925050509392505050565b6118d0826114dd565b6118e36118dc82611782565b8354611810565b8255505050565b6118f5838383611501565b505050565b600081016000830161190c81856112e7565b6119178183866118ea565b50505050600181016020830161192d81856112e7565b6119388183866118ea565b50505050600281016040830161194e81856112e7565b6119598183866118ea565b5050505060038101606083018061196f816117ac565b905061197b81846119a3565b50505060048101608083018061199081611796565b905061199c81846118c7565b5050505050565b6119ac826114ef565b6119bf6119b88261178c565b8354611833565b8255505050565b6119cf836114ef565b6119e36119db8261178c565b848454611875565b825550505050565b6119f481611484565b81146119ff57600080fd5b50565b611a0b816114b0565b8114611a1657600080fd5b50565b60009056fea264697066735822122045271c25cfebc5c86b8b147ca56c0a9001faeaabc79036a748c6b1d00e134aed64736f6c63430008000033a26469706673582212200a798c9f6ab84170ec66968a378c986f8918c7ec344af4a6a85012dcff11cf4864736f6c63430008000033",
  "immutableReferences": {},
  "source": "// SPDX-License-Identifier: MIT\npragma solidity ^0.8.0;\n\nimport './IElection.sol';\nimport './Election.sol';\nimport './ICrowdfunding.sol';\nimport './Crowdfunding.sol';\n\ncontract Factory {\n    IElection[] elections;\n    ICrowdfunding[] crowdfunding;\n\n    constructor() {\n    }\n\n    function createElection(string calldata _name) external {\n        elections.push(new Election(msg.sender, _name));\n    }\n\n    function createCrowdfunding(string calldata _name, string calldata _description, uint _targetAmount, address target) external{\n        crowdfunding.push(new Crowdfunding(_name, _description, _targetAmount, target));\n    }\n\n    function getElections() public view returns (IElection[] memory) {\n        return elections;\n    }\n\n    function getCrowdfunding() public view returns (ICrowdfunding[] memory) {\n        return crowdfunding;\n    }\n}\n",
  "sourcePath": "/home/void/ethereum/js/vue-material/contracts/Factory.sol",
  "compiler": {
    "name": "solc",
    "version": "0.8.0+commit.c7dfd78e.Emscripten.clang"
  },
  "schemaVersion": "3.4.3",
  "updatedAt": "2021-10-28T20:01:21.529Z",
  "networkType": "ethereum",
  "devdoc": {
    "kind": "dev",
    "methods": {},
    "version": 1
  },
  "userdoc": {
    "kind": "user",
    "methods": {},
    "version": 1
  }
}