{
  "contractName": "Factory",
  "abi": [
    {
      "inputs": [],
      "stateMutability": "nonpayable",
      "type": "constructor"
    },
    {
      "inputs": [
        {
          "internalType": "string",
          "name": "_name",
          "type": "string"
        }
      ],
      "name": "createElection",
      "outputs": [],
      "stateMutability": "nonpayable",
      "type": "function"
    },
    {
      "inputs": [
        {
          "internalType": "string",
          "name": "_name",
          "type": "string"
        },
        {
          "internalType": "string",
          "name": "_description",
          "type": "string"
        },
        {
          "internalType": "uint256",
          "name": "_targetAmount",
          "type": "uint256"
        },
        {
          "internalType": "address",
          "name": "target",
          "type": "address"
        }
      ],
      "name": "createCrowdfunding",
      "outputs": [],
      "stateMutability": "nonpayable",
      "type": "function"
    },
    {
      "inputs": [],
      "name": "getElections",
      "outputs": [
        {
          "internalType": "contract IElection[]",
          "name": "",
          "type": "address[]"
        }
      ],
      "stateMutability": "view",
      "type": "function",
      "constant": true
    },
    {
      "inputs": [],
      "name": "getCrowdfunding",
      "outputs": [
        {
          "internalType": "contract ICrowdfunding[]",
          "name": "",
          "type": "address[]"
        }
      ],
      "stateMutability": "view",
      "type": "function",
      "constant": true
    }
  ],
  "bytecode": "0x608060405234801561001057600080fd5b5061449d806100206000396000f3fe60806040523480156200001157600080fd5b5060043610620000525760003560e01c80630d3b77be146200005757806315cf4a5f14620000775780633b7a045214620000975780639f3a7f5214620000b9575b600080fd5b6200007560048036038101906200006f91906200042d565b620000db565b005b6200009560048036038101906200008f9190620003e4565b6200018a565b005b620000a16200022d565b604051620000b09190620006f7565b60405180910390f35b620000c3620002bd565b604051620000d291906200071b565b60405180910390f35b600133878787878787604051620000f2906200034d565b62000104979695949392919062000688565b604051809103906000f08015801562000121573d6000803e3d6000fd5b509080600181540180825580915050600190039060005260206000200160009091909190916101000a81548173ffffffffffffffffffffffffffffffffffffffff021916908373ffffffffffffffffffffffffffffffffffffffff160217905550505050505050565b60003383836040516200019d906200035b565b620001ab9392919062000652565b604051809103906000f080158015620001c8573d6000803e3d6000fd5b509080600181540180825580915050600190039060005260206000200160009091909190916101000a81548173ffffffffffffffffffffffffffffffffffffffff021916908373ffffffffffffffffffffffffffffffffffffffff1602179055505050565b60606001805480602002602001604051908101604052809291908181526020018280548015620002b357602002820191906000526020600020905b8160009054906101000a900473ffffffffffffffffffffffffffffffffffffffff1673ffffffffffffffffffffffffffffffffffffffff168152602001906001019080831162000268575b5050505050905090565b606060008054806020026020016040519081016040528092919081815260200182805480156200034357602002820191906000526020600020905b8160009054906101000a900473ffffffffffffffffffffffffffffffffffffffff1673ffffffffffffffffffffffffffffffffffffffff1681526020019060010190808311620002f8575b5050505050905090565b611dc6806200089483390190565b611e0e806200265a83390190565b6000813590506200037a816200085f565b92915050565b60008083601f8401126200039357600080fd5b8235905067ffffffffffffffff811115620003ad57600080fd5b602083019150836001820283011115620003c657600080fd5b9250929050565b600081359050620003de8162000879565b92915050565b60008060208385031215620003f857600080fd5b600083013567ffffffffffffffff8111156200041357600080fd5b620004218582860162000380565b92509250509250929050565b600080600080600080608087890312156200044757600080fd5b600087013567ffffffffffffffff8111156200046257600080fd5b6200047089828a0162000380565b9650965050602087013567ffffffffffffffff8111156200049057600080fd5b6200049e89828a0162000380565b94509450506040620004b389828a01620003cd565b9250506060620004c689828a0162000369565b9150509295509295509295565b6000620004e18383620005ec565b60208301905092915050565b6000620004fb8383620005fd565b60208301905092915050565b6200051281620007b1565b82525050565b600062000525826200075f565b6200053181856200078f565b93506200053e836200073f565b8060005b8381101562000575578151620005598882620004d3565b9750620005668362000775565b92505060018101905062000542565b5085935050505092915050565b60006200058f826200076a565b6200059b81856200078f565b9350620005a8836200074f565b8060005b83811015620005df578151620005c38882620004ed565b9750620005d08362000782565b925050600181019050620005ac565b5085935050505092915050565b620005f781620007ef565b82525050565b620006088162000817565b82525050565b60006200061c8385620007a0565b93506200062b8385846200083f565b62000636836200084e565b840190509392505050565b6200064c81620007e5565b82525050565b600060408201905062000669600083018662000507565b81810360208301526200067e8184866200060e565b9050949350505050565b600060a0820190506200069f600083018a62000507565b8181036020830152620006b481888a6200060e565b90508181036040830152620006cb8186886200060e565b9050620006dc606083018562000641565b620006eb608083018462000507565b98975050505050505050565b6000602082019050818103600083015262000713818462000518565b905092915050565b6000602082019050818103600083015262000737818462000582565b905092915050565b6000819050602082019050919050565b6000819050602082019050919050565b600081519050919050565b600081519050919050565b6000602082019050919050565b6000602082019050919050565b600082825260208201905092915050565b600082825260208201905092915050565b6000620007be82620007c5565b9050919050565b600073ffffffffffffffffffffffffffffffffffffffff82169050919050565b6000819050919050565b6000620007fc8262000803565b9050919050565b60006200081082620007c5565b9050919050565b600062000824826200082b565b9050919050565b60006200083882620007c5565b9050919050565b82818337600083830152505050565b6000601f19601f8301169050919050565b6200086a81620007b1565b81146200087657600080fd5b50565b6200088481620007e5565b81146200089057600080fd5b5056fe60806040523480156200001157600080fd5b5060405162001dc638038062001dc68339818101604052810190620000379190620002d0565b600073ffffffffffffffffffffffffffffffffffffffff168573ffffffffffffffffffffffffffffffffffffffff1614156200007257600080fd5b600082116200008057600080fd5b600073ffffffffffffffffffffffffffffffffffffffff168173ffffffffffffffffffffffffffffffffffffffff161415620000bb57600080fd5b846000806101000a81548173ffffffffffffffffffffffffffffffffffffffff021916908373ffffffffffffffffffffffffffffffffffffffff16021790555083600190805190602001906200011392919062000180565b5082600290805190602001906200012c92919062000180565b508160048190555080600560006101000a81548173ffffffffffffffffffffffffffffffffffffffff021916908373ffffffffffffffffffffffffffffffffffffffff160217905550505050505062000527565b8280546200018e906200045f565b90600052602060002090601f016020900481019282620001b25760008555620001fe565b82601f10620001cd57805160ff1916838001178555620001fe565b82800160010185558215620001fe579182015b82811115620001fd578251825591602001919060010190620001e0565b5b5090506200020d919062000211565b5090565b5b808211156200022c57600081600090555060010162000212565b5090565b6000620002476200024184620003b8565b62000384565b9050828152602081018484840111156200026057600080fd5b6200026d84828562000429565b509392505050565b6000815190506200028681620004f3565b92915050565b600082601f8301126200029e57600080fd5b8151620002b084826020860162000230565b91505092915050565b600081519050620002ca816200050d565b92915050565b600080600080600060a08688031215620002e957600080fd5b6000620002f98882890162000275565b955050602086015167ffffffffffffffff8111156200031757600080fd5b62000325888289016200028c565b945050604086015167ffffffffffffffff8111156200034357600080fd5b62000351888289016200028c565b93505060606200036488828901620002b9565b9250506080620003778882890162000275565b9150509295509295909350565b6000604051905081810181811067ffffffffffffffff82111715620003ae57620003ad620004c4565b5b8060405250919050565b600067ffffffffffffffff821115620003d657620003d5620004c4565b5b601f19601f8301169050602081019050919050565b6000620003f882620003ff565b9050919050565b600073ffffffffffffffffffffffffffffffffffffffff82169050919050565b6000819050919050565b60005b83811015620004495780820151818401526020810190506200042c565b8381111562000459576000848401525b50505050565b600060028204905060018216806200047857607f821691505b602082108114156200048f576200048e62000495565b5b50919050565b7f4e487b7100000000000000000000000000000000000000000000000000000000600052602260045260246000fd5b7f4e487b7100000000000000000000000000000000000000000000000000000000600052604160045260246000fd5b620004fe81620003eb565b81146200050a57600080fd5b50565b62000518816200041f565b81146200052457600080fd5b50565b61188f80620005376000396000f3fe60806040526004361061004e5760003560e01c80633ccfd60b146100935780634bf71729146100aa5780635a9b0b89146100d557806395805dad14610100578063b5aebc80146101295761008e565b3661008e576040517f08c379a0000000000000000000000000000000000000000000000000000000008152600401610085906114fc565b60405180910390fd5b600080fd5b34801561009f57600080fd5b506100a8610145565b005b3480156100b657600080fd5b506100bf610477565b6040516100cc919061163e565b60405180910390f35b3480156100e157600080fd5b506100ea610574565b6040516100f7919061161c565b60405180910390f35b34801561010c57600080fd5b5061012760048036038101906101229190610ef9565b61077b565b005b610143600480360381019061013e9190610eb4565b6108b6565b005b6000600560009054906101000a900473ffffffffffffffffffffffffffffffffffffffff1673ffffffffffffffffffffffffffffffffffffffff163373ffffffffffffffffffffffffffffffffffffffff16141561026157600a60009054906101000a900460ff166101ec576040517f08c379a00000000000000000000000000000000000000000000000000000000081526004016101e39061147c565b60405180910390fd5b600a60019054906101000a900460ff161561023c576040517f08c379a00000000000000000000000000000000000000000000000000000000081526004016102339061153c565b60405180910390fd5b60035490506001600a60016101000a81548160ff021916908315150217905550610423565b600a60009054906101000a900460ff16156102b1576040517f08c379a00000000000000000000000000000000000000000000000000000000081526004016102a89061157c565b60405180910390fd5b6009544210156102f6576040517f08c379a00000000000000000000000000000000000000000000000000000000081526004016102ed9061151c565b60405180910390fd5b6000600660003373ffffffffffffffffffffffffffffffffffffffff1673ffffffffffffffffffffffffffffffffffffffff168152602001908152602001600020600201541161037b576040517f08c379a00000000000000000000000000000000000000000000000000000000081526004016103729061155c565b60405180910390fd5b600660003373ffffffffffffffffffffffffffffffffffffffff1673ffffffffffffffffffffffffffffffffffffffff168152602001908152602001600020600101549050600660003373ffffffffffffffffffffffffffffffffffffffff1673ffffffffffffffffffffffffffffffffffffffff168152602001908152602001600020600080820160006104109190610cc7565b6001820160009055600282016000905550505b6000811115610474573373ffffffffffffffffffffffffffffffffffffffff166108fc829081150290604051600060405180830381858888f19350505050158015610472573d6000803e3d6000fd5b505b50565b61047f610d07565b600660003373ffffffffffffffffffffffffffffffffffffffff1673ffffffffffffffffffffffffffffffffffffffff1681526020019081526020016000206040518060600160405290816000820180546104d9906117a1565b80601f0160208091040260200160405190810160405280929190818152602001828054610505906117a1565b80156105525780601f1061052757610100808354040283529160200191610552565b820191906000526020600020905b81548152906001019060200180831161053557829003601f168201915b5050505050815260200160018201548152602001600282015481525050905090565b61057c610d28565b60405180610160016040528060008054906101000a900473ffffffffffffffffffffffffffffffffffffffff1673ffffffffffffffffffffffffffffffffffffffff168152602001600180546105d1906117a1565b80601f01602080910402602001604051908101604052809291908181526020018280546105fd906117a1565b801561064a5780601f1061061f5761010080835404028352916020019161064a565b820191906000526020600020905b81548152906001019060200180831161062d57829003601f168201915b5050505050815260200160028054610661906117a1565b80601f016020809104026020016040519081016040528092919081815260200182805461068d906117a1565b80156106da5780601f106106af576101008083540402835291602001916106da565b820191906000526020600020905b8154815290600101906020018083116106bd57829003601f168201915b5050505050815260200160035481526020016004548152602001600560009054906101000a900473ffffffffffffffffffffffffffffffffffffffff1673ffffffffffffffffffffffffffffffffffffffff168152602001600754815260200160085481526020016009548152602001600a60009054906101000a900460ff1615158152602001600a60019054906101000a900460ff161515815250905090565b60008054906101000a900473ffffffffffffffffffffffffffffffffffffffff1673ffffffffffffffffffffffffffffffffffffffff163373ffffffffffffffffffffffffffffffffffffffff1614610809576040517f08c379a0000000000000000000000000000000000000000000000000000000008152600401610800906115fc565b60405180910390fd5b6000811161084c576040517f08c379a0000000000000000000000000000000000000000000000000000000008152600401610843906115dc565b60405180910390fd5b600060095414610891576040517f08c379a00000000000000000000000000000000000000000000000000000000081526004016108889061149c565b60405180910390fd5b4360078190555042600881905550806008546108ad919061168d565b60098190555050565b600560009054906101000a900473ffffffffffffffffffffffffffffffffffffffff1673ffffffffffffffffffffffffffffffffffffffff163373ffffffffffffffffffffffffffffffffffffffff161415610947576040517f08c379a000000000000000000000000000000000000000000000000000000000815260040161093e906115fc565b60405180910390fd5b6000600660003373ffffffffffffffffffffffffffffffffffffffff1673ffffffffffffffffffffffffffffffffffffffff16815260200190815260200160002060020154146109cc576040517f08c379a00000000000000000000000000000000000000000000000000000000081526004016109c39061159c565b60405180910390fd5b60006009541415610a12576040517f08c379a0000000000000000000000000000000000000000000000000000000008152600401610a09906114dc565b60405180910390fd5b6009544210610a56576040517f08c379a0000000000000000000000000000000000000000000000000000000008152600401610a4d906115bc565b60405180910390fd5b60003411610a99576040517f08c379a0000000000000000000000000000000000000000000000000000000008152600401610a90906114bc565b60405180910390fd5b60045460035410610adf576040517f08c379a0000000000000000000000000000000000000000000000000000000008152600401610ad69061157c565b60405180910390fd5b60003490508060036000828254610af6919061168d565b925050819055506004546003541115610b8d576000600454600354610b1b91906116e3565b90508082610b2991906116e3565b91508060036000828254610b3d91906116e3565b925050819055503373ffffffffffffffffffffffffffffffffffffffff166108fc829081150290604051600060405180830381858888f19350505050158015610b8a573d6000803e3d6000fd5b50505b6004546003541415610bb5576001600a60006101000a81548160ff0219169083151502179055505b604051806060016040528084848080601f016020809104026020016040519081016040528093929190818152602001838380828437600081840152601f19601f82011690508083019250505050505050815260200182815260200142815250600660003373ffffffffffffffffffffffffffffffffffffffff1673ffffffffffffffffffffffffffffffffffffffff1681526020019081526020016000206000820151816000019080519060200190610c6f929190610db2565b5060208201518160010155604082015181600201559050507f4e0389c0d7ed837c1c99f31c66694ab042fa67bdf25d7f2f40d01273a65971ec838383604051610cba9392919061144a565b60405180910390a1505050565b508054610cd3906117a1565b6000825580601f10610ce55750610d04565b601f016020900490600052602060002090810190610d039190610e38565b5b50565b60405180606001604052806060815260200160008152602001600081525090565b604051806101600160405280600073ffffffffffffffffffffffffffffffffffffffff16815260200160608152602001606081526020016000815260200160008152602001600073ffffffffffffffffffffffffffffffffffffffff1681526020016000815260200160008152602001600081526020016000151581526020016000151581525090565b828054610dbe906117a1565b90600052602060002090601f016020900481019282610de05760008555610e27565b82601f10610df957805160ff1916838001178555610e27565b82800160010185558215610e27579182015b82811115610e26578251825591602001919060010190610e0b565b5b509050610e349190610e38565b5090565b5b80821115610e51576000816000905550600101610e39565b5090565b60008083601f840112610e6757600080fd5b8235905067ffffffffffffffff811115610e8057600080fd5b602083019150836001820283011115610e9857600080fd5b9250929050565b600081359050610eae81611842565b92915050565b60008060208385031215610ec757600080fd5b600083013567ffffffffffffffff811115610ee157600080fd5b610eed85828601610e55565b92509250509250929050565b600060208284031215610f0b57600080fd5b6000610f1984828501610e9f565b91505092915050565b610f2b81611717565b82525050565b610f3a81611729565b82525050565b6000610f4c838561167c565b9350610f5983858461175f565b610f6283611831565b840190509392505050565b6000610f7882611660565b610f82818561166b565b9350610f9281856020860161176e565b610f9b81611831565b840191505092915050565b6000610fb3601a8361167c565b91507f43463a20616d6f756e742069736e277420636f6c6c65637465640000000000006000830152602082019050919050565b6000610ff360138361167c565b91507f43463a20616c72656164792073746172746564000000000000000000000000006000830152602082019050919050565b6000611033600e8361167c565b91507f43463a2076616c756520697320300000000000000000000000000000000000006000830152602082019050919050565b6000611073600f8361167c565b91507f43463a206e6f74207374617274656400000000000000000000000000000000006000830152602082019050919050565b60006110b360198361167c565b91507f75736520646f6e617465206d6574686f6420696e7374656164000000000000006000830152602082019050919050565b60006110f3601a8361167c565b91507f43463a20636f6e74726163742069736e277420657870697265640000000000006000830152602082019050919050565b6000611133601f8361167c565b91507f43463a20616d6f756e7420697320616c72656164792077697468647261776e006000830152602082019050919050565b600061117360168361167c565b91507f43463a20646f6e6174696f6e206e6f7420666f756e64000000000000000000006000830152602082019050919050565b60006111b360178361167c565b91507f43463a20616d6f756e7420697320636f6c6c65637465640000000000000000006000830152602082019050919050565b60006111f360138361167c565b91507f43463a20616c726561647920646f6e61746564000000000000000000000000006000830152602082019050919050565b6000611233600b8361167c565b91507f43463a20657870697265640000000000000000000000000000000000000000006000830152602082019050919050565b600061127360128361167c565b91507f43463a2077726f6e67206475726174696f6e00000000000000000000000000006000830152602082019050919050565b60006112b360118361167c565b91507f43463a2077726f6e6720616464726573730000000000000000000000000000006000830152602082019050919050565b6000610160830160008301516112ff6000860182610f22565b50602083015184820360208601526113178282610f6d565b915050604083015184820360408601526113318282610f6d565b9150506060830151611346606086018261142c565b506080830151611359608086018261142c565b5060a083015161136c60a0860182610f22565b5060c083015161137f60c086018261142c565b5060e083015161139260e086018261142c565b506101008301516113a761010086018261142c565b506101208301516113bc610120860182610f31565b506101408301516113d1610140860182610f31565b508091505092915050565b600060608301600083015184820360008601526113f98282610f6d565b915050602083015161140e602086018261142c565b506040830151611421604086018261142c565b508091505092915050565b61143581611755565b82525050565b61144481611755565b82525050565b60006040820190508181036000830152611465818587610f40565b9050611474602083018461143b565b949350505050565b6000602082019050818103600083015261149581610fa6565b9050919050565b600060208201905081810360008301526114b581610fe6565b9050919050565b600060208201905081810360008301526114d581611026565b9050919050565b600060208201905081810360008301526114f581611066565b9050919050565b60006020820190508181036000830152611515816110a6565b9050919050565b60006020820190508181036000830152611535816110e6565b9050919050565b6000602082019050818103600083015261155581611126565b9050919050565b6000602082019050818103600083015261157581611166565b9050919050565b60006020820190508181036000830152611595816111a6565b9050919050565b600060208201905081810360008301526115b5816111e6565b9050919050565b600060208201905081810360008301526115d581611226565b9050919050565b600060208201905081810360008301526115f581611266565b9050919050565b60006020820190508181036000830152611615816112a6565b9050919050565b6000602082019050818103600083015261163681846112e6565b905092915050565b6000602082019050818103600083015261165881846113dc565b905092915050565b600081519050919050565b600082825260208201905092915050565b600082825260208201905092915050565b600061169882611755565b91506116a383611755565b9250827fffffffffffffffffffffffffffffffffffffffffffffffffffffffffffffffff038211156116d8576116d76117d3565b5b828201905092915050565b60006116ee82611755565b91506116f983611755565b92508282101561170c5761170b6117d3565b5b828203905092915050565b600061172282611735565b9050919050565b60008115159050919050565b600073ffffffffffffffffffffffffffffffffffffffff82169050919050565b6000819050919050565b82818337600083830152505050565b60005b8381101561178c578082015181840152602081019050611771565b8381111561179b576000848401525b50505050565b600060028204905060018216806117b957607f821691505b602082108114156117cd576117cc611802565b5b50919050565b7f4e487b7100000000000000000000000000000000000000000000000000000000600052601160045260246000fd5b7f4e487b7100000000000000000000000000000000000000000000000000000000600052602260045260246000fd5b6000601f19601f8301169050919050565b61184b81611755565b811461185657600080fd5b5056fea26469706673582212207977fb0a42ae8e2ec11660f9f78a3fb4737ad31c843b74183ef937c381e08dea64736f6c6343000800003360806040523480156200001157600080fd5b5060405162001e0e38038062001e0e8339818101604052810190620000379190620001d1565b816000806101000a81548173ffffffffffffffffffffffffffffffffffffffff021916908373ffffffffffffffffffffffffffffffffffffffff16021790555080600190805190602001906200008f92919062000098565b505050620003aa565b828054620000a690620002fc565b90600052602060002090601f016020900481019282620000ca576000855562000116565b82601f10620000e557805160ff191683800117855562000116565b8280016001018555821562000116579182015b8281111562000115578251825591602001919060010190620000f8565b5b50905062000125919062000129565b5090565b5b80821115620001445760008160009055506001016200012a565b5090565b60006200015f62000159846200025f565b6200022b565b9050828152602081018484840111156200017857600080fd5b62000185848285620002c6565b509392505050565b6000815190506200019e8162000390565b92915050565b600082601f830112620001b657600080fd5b8151620001c884826020860162000148565b91505092915050565b60008060408385031215620001e557600080fd5b6000620001f5858286016200018d565b925050602083015167ffffffffffffffff8111156200021357600080fd5b6200022185828601620001a4565b9150509250929050565b6000604051905081810181811067ffffffffffffffff8211171562000255576200025462000361565b5b8060405250919050565b600067ffffffffffffffff8211156200027d576200027c62000361565b5b601f19601f8301169050602081019050919050565b60006200029f82620002a6565b9050919050565b600073ffffffffffffffffffffffffffffffffffffffff82169050919050565b60005b83811015620002e6578082015181840152602081019050620002c9565b83811115620002f6576000848401525b50505050565b600060028204905060018216806200031557607f821691505b602082108114156200032c576200032b62000332565b5b50919050565b7f4e487b7100000000000000000000000000000000000000000000000000000000600052602260045260246000fd5b7f4e487b7100000000000000000000000000000000000000000000000000000000600052604160045260246000fd5b6200039b8162000292565b8114620003a757600080fd5b50565b611a5480620003ba6000396000f3fe608060405234801561001057600080fd5b506004361061007d5760003560e01c806347f57b321161005b57806347f57b32146101045780635a9b0b891461012257806395805dad146101405780639bc90d00146101705761007d565b80630121b93f146100825780630242f351146100b25780633477ee2e146100d0575b600080fd5b61009c60048036038101906100979190610f47565b6101a0565b6040516100a9919061120c565b60405180910390f35b6100ba6103a9565b6040516100c791906112b1565b60405180910390f35b6100ea60048036038101906100e59190610f47565b61042f565b6040516100fb959493929190611227565b60405180910390f35b61010c61061a565b604051610119919061120c565b60405180910390f35b61012a6107b3565b604051610137919061128f565b60405180910390f35b61015a60048036038101906101559190610f47565b610bc3565b604051610167919061120c565b60405180910390f35b61018a60048036038101906101859190610f02565b610c27565b60405161019791906112cc565b60405180910390f35b6000600360009054906101000a900460ff166101bb57600080fd5b60025442106101c957600080fd5b600560003373ffffffffffffffffffffffffffffffffffffffff1673ffffffffffffffffffffffffffffffffffffffff16815260200190815260200160002060020160009054906101000a900460ff161561022357600080fd5b600480549050821061023457600080fd5b6004828154811061026e577f4e487b7100000000000000000000000000000000000000000000000000000000600052603260045260246000fd5b906000526020600020906005020160040160009054906101000a900460ff1661029657600080fd5b6040518060600160405280838152602001610258426102b591906113e8565b815260200160011515815250600560003373ffffffffffffffffffffffffffffffffffffffff1673ffffffffffffffffffffffffffffffffffffffff168152602001908152602001600020600082015181600001556020820151816001015560408201518160020160006101000a81548160ff021916908315150217905550905050600060048381548110610373577f4e487b7100000000000000000000000000000000000000000000000000000000600052603260045260246000fd5b90600052602060002090600502019050600181600301600082825461039891906113e8565b925050819055506001915050919050565b6103b1610e32565b600560003373ffffffffffffffffffffffffffffffffffffffff1673ffffffffffffffffffffffffffffffffffffffff16815260200190815260200160002060405180606001604052908160008201548152602001600182015481526020016002820160009054906101000a900460ff161515151581525050905090565b6004818154811061043f57600080fd5b906000526020600020906005020160009150905080600001805461046290611640565b80601f016020809104026020016040519081016040528092919081815260200182805461048e90611640565b80156104db5780601f106104b0576101008083540402835291602001916104db565b820191906000526020600020905b8154815290600101906020018083116104be57829003601f168201915b5050505050908060010180546104f090611640565b80601f016020809104026020016040519081016040528092919081815260200182805461051c90611640565b80156105695780601f1061053e57610100808354040283529160200191610569565b820191906000526020600020905b81548152906001019060200180831161054c57829003601f168201915b50505050509080600201805461057e90611640565b80601f01602080910402602001604051908101604052809291908181526020018280546105aa90611640565b80156105f75780601f106105cc576101008083540402835291602001916105f7565b820191906000526020600020905b8154815290600101906020018083116105da57829003601f168201915b5050505050908060030154908060040160009054906101000a900460ff16905085565b6000600360009054906101000a900460ff1661063557600080fd5b600254421061064357600080fd5b6000600560003373ffffffffffffffffffffffffffffffffffffffff1673ffffffffffffffffffffffffffffffffffffffff16815260200190815260200160002060405180606001604052908160008201548152602001600182015481526020016002820160009054906101000a900460ff161515151581525050905080604001516106ce57600080fd5b806020015142106106de57600080fd5b6001600482600001518154811061071e577f4e487b7100000000000000000000000000000000000000000000000000000000600052603260045260246000fd5b9060005260206000209060050201600301600082825461073e919061143e565b92505081905550600560003373ffffffffffffffffffffffffffffffffffffffff1673ffffffffffffffffffffffffffffffffffffffff16815260200190815260200160002060008082016000905560018201600090556002820160006101000a81549060ff02191690555050600191505090565b6107bb610e55565b60006004805480602002602001604051908101604052809291908181526020016000905b828210156109ec57838290600052602060002090600502016040518060a001604052908160008201805461081290611640565b80601f016020809104026020016040519081016040528092919081815260200182805461083e90611640565b801561088b5780601f106108605761010080835404028352916020019161088b565b820191906000526020600020905b81548152906001019060200180831161086e57829003601f168201915b505050505081526020016001820180546108a490611640565b80601f01602080910402602001604051908101604052809291908181526020018280546108d090611640565b801561091d5780601f106108f25761010080835404028352916020019161091d565b820191906000526020600020905b81548152906001019060200180831161090057829003601f168201915b5050505050815260200160028201805461093690611640565b80601f016020809104026020016040519081016040528092919081815260200182805461096290611640565b80156109af5780601f10610984576101008083540402835291602001916109af565b820191906000526020600020905b81548152906001019060200180831161099257829003601f168201915b50505050508152602001600382015481526020016004820160009054906101000a900460ff161515151581525050815260200190600101906107df565b5050505090506000600254421015610abc5760005b8251811015610aba57828181518110610a43577f4e487b7100000000000000000000000000000000000000000000000000000000600052603260045260246000fd5b60200260200101516060015182610a5a91906113e8565b91506000838281518110610a97577f4e487b7100000000000000000000000000000000000000000000000000000000600052603260045260246000fd5b602002602001015160600181815250508080610ab29061168e565b915050610a01565b505b6040518060c00160405280600360009054906101000a900460ff161515815260200160008054906101000a900473ffffffffffffffffffffffffffffffffffffffff1673ffffffffffffffffffffffffffffffffffffffff16815260200160018054610b2790611640565b80601f0160208091040260200160405190810160405280929190818152602001828054610b5390611640565b8015610ba05780601f10610b7557610100808354040283529160200191610ba0565b820191906000526020600020905b815481529060010190602001808311610b8357829003601f168201915b505050505081526020016002548152602001828152602001838152509250505090565b6000600360009054906101000a900460ff1615610bdf57600080fd5b600060048054905011610bf157600080fd5b8142610bfd91906113e8565b6002819055506001600360006101000a81548160ff02191690831515021790555060019050919050565b60003373ffffffffffffffffffffffffffffffffffffffff1660008054906101000a900473ffffffffffffffffffffffffffffffffffffffff1673ffffffffffffffffffffffffffffffffffffffff1614610c8157600080fd5b600360009054906101000a900460ff1615610c9b57600080fd5b60005b83839050811015610e17576004848483818110610ce4577f4e487b7100000000000000000000000000000000000000000000000000000000600052603260045260246000fd5b9050602002810190610cf6919061133e565b90806001815401808255809150506001900390600052602060002090600502016000909190919091508181610d2b91906118fa565b5050600060046001600480549050610d43919061143e565b81548110610d7a577f4e487b7100000000000000000000000000000000000000000000000000000000600052603260045260246000fd5b906000526020600020906005020160030181905550600160046001600480549050610da5919061143e565b81548110610ddc577f4e487b7100000000000000000000000000000000000000000000000000000000600052603260045260246000fd5b906000526020600020906005020160040160006101000a81548160ff0219169083151502179055508080610e0f9061168e565b915050610c9e565b506001600480549050610e2a919061143e565b905092915050565b604051806060016040528060008152602001600081526020016000151581525090565b6040518060c00160405280600015158152602001600073ffffffffffffffffffffffffffffffffffffffff168152602001606081526020016000815260200160008152602001606081525090565b60008083601f840112610eb557600080fd5b8235905067ffffffffffffffff811115610ece57600080fd5b602083019150836020820283011115610ee657600080fd5b9250929050565b600081359050610efc81611a02565b92915050565b60008060208385031215610f1557600080fd5b600083013567ffffffffffffffff811115610f2f57600080fd5b610f3b85828601610ea3565b92509250509250929050565b600060208284031215610f5957600080fd5b6000610f6784828501610eed565b91505092915050565b6000610f7c8383611098565b905092915050565b610f8d81611472565b82525050565b6000610f9e82611387565b610fa881856113b5565b935083602082028501610fba85611362565b8060005b85811015610ff65784840389528151610fd78582610f70565b9450610fe2836113a8565b925060208a01995050600181019050610fbe565b50829750879550505050505092915050565b61101181611484565b82525050565b61102081611484565b82525050565b60006110318261139d565b61103b81856113c6565b935061104b81856020860161160d565b611054816117c2565b840191505092915050565b600061106a8261139d565b61107481856113d7565b935061108481856020860161160d565b61108d816117c2565b840191505092915050565b600060a08301600083015184820360008601526110b58282611026565b915050602083015184820360208601526110cf8282611026565b915050604083015184820360408601526110e98282611026565b91505060608301516110fe60608601826111ee565b5060808301516111116080860182611008565b508091505092915050565b600060c0830160008301516111346000860182611008565b5060208301516111476020860182610f84565b506040830151848203604086015261115f8282611026565b915050606083015161117460608601826111ee565b50608083015161118760808601826111ee565b5060a083015184820360a086015261119f8282610f93565b9150508091505092915050565b6060820160008201516111c260008501826111ee565b5060208201516111d560208501826111ee565b5060408201516111e86040850182611008565b50505050565b6111f7816114b0565b82525050565b611206816114b0565b82525050565b60006020820190506112216000830184611017565b92915050565b600060a0820190508181036000830152611241818861105f565b90508181036020830152611255818761105f565b90508181036040830152611269818661105f565b905061127860608301856111fd565b6112856080830184611017565b9695505050505050565b600060208201905081810360008301526112a9818461111c565b905092915050565b60006060820190506112c660008301846111ac565b92915050565b60006020820190506112e160008301846111fd565b92915050565b6000808335600160200384360303811261130057600080fd5b80840192508235915067ffffffffffffffff82111561131e57600080fd5b60208301925060018202360383131561133657600080fd5b509250929050565b60008235600160a00383360303811261135657600080fd5b80830191505092915050565b6000819050602082019050919050565b60008190508160005260206000209050919050565b600081519050919050565b600082905092915050565b600081519050919050565b6000602082019050919050565b600082825260208201905092915050565b600082825260208201905092915050565b600082825260208201905092915050565b60006113f3826114b0565b91506113fe836114b0565b9250827fffffffffffffffffffffffffffffffffffffffffffffffffffffffffffffffff03821115611433576114326116f5565b5b828201905092915050565b6000611449826114b0565b9150611454836114b0565b925082821015611467576114666116f5565b5b828203905092915050565b600061147d82611490565b9050919050565b60008115159050919050565b600073ffffffffffffffffffffffffffffffffffffffff82169050919050565b6000819050919050565b5b818110156114d9576114ce6000826117fa565b6001810190506114bb565b5050565b60006114e882611484565b9050919050565b60006114fa826114b0565b9050919050565b61150b8383611392565b67ffffffffffffffff81111561152457611523611753565b5b61152e8254611640565b600080601f8411601f8411171561154b5761154885611372565b90505b601f83111561157e576020601f8501048101602085101561156a578190505b61157c6020601f8601048301826114ba565b505b601f8411600181146115ab5760008515611599578388013590505b6115a38682611672565b875550611603565b601f1985168260005b828110156115d957858a013582556001820191506020860195506020810190506115b4565b878310156115f657858a01356115f2601f8a16826116d7565b8355505b6001600289020189555050505b5050505050505050565b60005b8381101561162b578082015181840152602081019050611610565b8381111561163a576000848401525b50505050565b6000600282049050600182168061165857607f821691505b6020821081141561166c5761166b611724565b5b50919050565b600061167e83836116d7565b9150826002028217905092915050565b6000611699826114b0565b91507fffffffffffffffffffffffffffffffffffffffffffffffffffffffffffffffff8214156116cc576116cb6116f5565b5b600182019050919050565b60006116e8600019846008026117ed565b1980831691505092915050565b7f4e487b7100000000000000000000000000000000000000000000000000000000600052601160045260246000fd5b7f4e487b7100000000000000000000000000000000000000000000000000000000600052602260045260246000fd5b7f4e487b7100000000000000000000000000000000000000000000000000000000600052604160045260246000fd5b6000819050919050565b6000819050919050565b600081356117a3816119eb565b80915050919050565b600081356117b981611a02565b80915050919050565b6000601f19601f8301169050919050565b60008160001b9050919050565b600082821b905092915050565b600082821c905092915050565b61180c611805611a19565b83836119c6565b5050565b600060ff61181d846117d3565b9350801983169250808416831791505092915050565b60007fffffffffffffffffffffffffffffffffffffffffffffffffffffffffffffffff61185f846117d3565b9350801983169250808416831791505092915050565b6000600883026118a57fffffffffffffffffffffffffffffffffffffffffffffffffffffffffffffffff826117e0565b6118af86836117e0565b95508019841693508086168417925050509392505050565b6118d0826114dd565b6118e36118dc82611782565b8354611810565b8255505050565b6118f5838383611501565b505050565b600081016000830161190c81856112e7565b6119178183866118ea565b50505050600181016020830161192d81856112e7565b6119388183866118ea565b50505050600281016040830161194e81856112e7565b6119598183866118ea565b5050505060038101606083018061196f816117ac565b905061197b81846119a3565b50505060048101608083018061199081611796565b905061199c81846118c7565b5050505050565b6119ac826114ef565b6119bf6119b88261178c565b8354611833565b8255505050565b6119cf836114ef565b6119e36119db8261178c565b848454611875565b825550505050565b6119f481611484565b81146119ff57600080fd5b50565b611a0b816114b0565b8114611a1657600080fd5b50565b60009056fea264697066735822122045271c25cfebc5c86b8b147ca56c0a9001faeaabc79036a748c6b1d00e134aed64736f6c63430008000033a264697066735822122025b3de80fb58da736ed0f3bdd01b288195de9beb1e82f3ef79abaaa15dd0365064736f6c63430008000033",
  "immutableReferences": {},
  "source": "// SPDX-License-Identifier: MIT\npragma solidity ^0.8.0;\n\nimport './IElection.sol';\nimport './Election.sol';\nimport './ICrowdfunding.sol';\nimport './Crowdfunding.sol';\n\ncontract Factory {\n    IElection[] elections;\n    ICrowdfunding[] crowdfunding;\n\n    constructor() {\n    }\n\n    function createElection(string calldata _name) external {\n        elections.push(new Election(msg.sender, _name));\n    }\n\n    function createCrowdfunding(string calldata _name, string calldata _description, uint _targetAmount, address target) external{\n        crowdfunding.push(new Crowdfunding(msg.sender, _name, _description, _targetAmount, target));\n    }\n\n    function getElections() public view returns (IElection[] memory) {\n        return elections;\n    }\n\n    function getCrowdfunding() public view returns (ICrowdfunding[] memory) {\n        return crowdfunding;\n    }\n}\n",
  "sourcePath": "/home/void/ethereum/js/vue-material/contracts/Factory.sol",
  "compiler": {
    "name": "solc",
    "version": "0.8.0+commit.c7dfd78e.Emscripten.clang"
  },
  "schemaVersion": "3.4.3",
  "updatedAt": "2021-11-20T16:30:54.158Z",
  "networkType": "ethereum",
  "devdoc": {
    "kind": "dev",
    "methods": {},
    "version": 1
  },
  "userdoc": {
    "kind": "user",
    "methods": {},
    "version": 1
  }
}