{
  "contractName": "Factory",
  "abi": [
    {
      "inputs": [],
      "stateMutability": "nonpayable",
      "type": "constructor"
    },
    {
      "inputs": [
        {
          "internalType": "address",
          "name": "_owner",
          "type": "address"
        },
        {
          "internalType": "string",
          "name": "_name",
          "type": "string"
        }
      ],
      "name": "createElection",
      "outputs": [],
      "stateMutability": "nonpayable",
      "type": "function"
    },
    {
      "inputs": [],
      "name": "getElections",
      "outputs": [
        {
          "internalType": "contract IElection[]",
          "name": "",
          "type": "address[]"
        }
      ],
      "stateMutability": "view",
      "type": "function",
      "constant": true
    }
  ],
  "bytecode": "0x608060405234801561001057600080fd5b50612290806100206000396000f3fe60806040523480156200001157600080fd5b50600436106200003a5760003560e01c80639f3a7f52146200003f578063bb2dfe1f1462000061575b600080fd5b6200004962000081565b604051620000589190620003cf565b60405180910390f35b6200007f600480360381019062000079919062000262565b62000111565b005b606060008054806020026020016040519081016040528092919081815260200182805480156200010757602002820191906000526020600020905b8160009054906101000a900473ffffffffffffffffffffffffffffffffffffffff1673ffffffffffffffffffffffffffffffffffffffff1681526020019060010190808311620000bc575b5050505050905090565b600073ffffffffffffffffffffffffffffffffffffffff168373ffffffffffffffffffffffffffffffffffffffff1614156200014c57600080fd5b60008383836040516200015f90620001f0565b6200016d9392919062000399565b604051809103906000f0801580156200018a573d6000803e3d6000fd5b509080600181540180825580915050600190039060005260206000200160009091909190916101000a81548173ffffffffffffffffffffffffffffffffffffffff021916908373ffffffffffffffffffffffffffffffffffffffff160217905550505050565b611d8780620004d483390190565b6000813590506200020f81620004b9565b92915050565b60008083601f8401126200022857600080fd5b8235905067ffffffffffffffff8111156200024257600080fd5b6020830191508360018202830111156200025b57600080fd5b9250929050565b6000806000604084860312156200027857600080fd5b60006200028886828701620001fe565b935050602084013567ffffffffffffffff811115620002a657600080fd5b620002b48682870162000215565b92509250509250925092565b6000620002ce838362000355565b60208301905092915050565b620002e5816200043d565b82525050565b6000620002f88262000403565b6200030481856200041b565b93506200031183620003f3565b8060005b83811015620003485781516200032c8882620002c0565b975062000339836200040e565b92505060018101905062000315565b5085935050505092915050565b620003608162000471565b82525050565b60006200037483856200042c565b93506200038383858462000499565b6200038e83620004a8565b840190509392505050565b6000604082019050620003b06000830186620002da565b8181036020830152620003c581848662000366565b9050949350505050565b60006020820190508181036000830152620003eb8184620002eb565b905092915050565b6000819050602082019050919050565b600081519050919050565b6000602082019050919050565b600082825260208201905092915050565b600082825260208201905092915050565b60006200044a8262000451565b9050919050565b600073ffffffffffffffffffffffffffffffffffffffff82169050919050565b60006200047e8262000485565b9050919050565b6000620004928262000451565b9050919050565b82818337600083830152505050565b6000601f19601f8301169050919050565b620004c4816200043d565b8114620004d057600080fd5b5056fe60806040523480156200001157600080fd5b5060405162001d8738038062001d878339818101604052810190620000379190620001d1565b816000806101000a81548173ffffffffffffffffffffffffffffffffffffffff021916908373ffffffffffffffffffffffffffffffffffffffff16021790555080600190805190602001906200008f92919062000098565b505050620003aa565b828054620000a690620002fc565b90600052602060002090601f016020900481019282620000ca576000855562000116565b82601f10620000e557805160ff191683800117855562000116565b8280016001018555821562000116579182015b8281111562000115578251825591602001919060010190620000f8565b5b50905062000125919062000129565b5090565b5b80821115620001445760008160009055506001016200012a565b5090565b60006200015f62000159846200025f565b6200022b565b9050828152602081018484840111156200017857600080fd5b62000185848285620002c6565b509392505050565b6000815190506200019e8162000390565b92915050565b600082601f830112620001b657600080fd5b8151620001c884826020860162000148565b91505092915050565b60008060408385031215620001e557600080fd5b6000620001f5858286016200018d565b925050602083015167ffffffffffffffff8111156200021357600080fd5b6200022185828601620001a4565b9150509250929050565b6000604051905081810181811067ffffffffffffffff8211171562000255576200025462000361565b5b8060405250919050565b600067ffffffffffffffff8211156200027d576200027c62000361565b5b601f19601f8301169050602081019050919050565b60006200029f82620002a6565b9050919050565b600073ffffffffffffffffffffffffffffffffffffffff82169050919050565b60005b83811015620002e6578082015181840152602081019050620002c9565b83811115620002f6576000848401525b50505050565b600060028204905060018216806200031557607f821691505b602082108114156200032c576200032b62000332565b5b50919050565b7f4e487b7100000000000000000000000000000000000000000000000000000000600052602260045260246000fd5b7f4e487b7100000000000000000000000000000000000000000000000000000000600052604160045260246000fd5b6200039b8162000292565b8114620003a757600080fd5b50565b6119cd80620003ba6000396000f3fe608060405234801561001057600080fd5b506004361061007d5760003560e01c806347f57b321161005b57806347f57b32146101045780635a9b0b891461012257806395805dad146101405780639bc90d00146101705761007d565b80630121b93f146100825780630242f351146100b25780633477ee2e146100d0575b600080fd5b61009c60048036038101906100979190610ed3565b6101a0565b6040516100a99190611185565b60405180910390f35b6100ba6103a9565b6040516100c7919061122a565b60405180910390f35b6100ea60048036038101906100e59190610ed3565b61042f565b6040516100fb9594939291906111a0565b60405180910390f35b61010c61061a565b6040516101199190611185565b60405180910390f35b61012a6107b3565b6040516101379190611208565b60405180910390f35b61015a60048036038101906101559190610ed3565b610b68565b6040516101679190611185565b60405180910390f35b61018a60048036038101906101859190610e8e565b610bba565b6040516101979190611245565b60405180910390f35b6000600360009054906101000a900460ff166101bb57600080fd5b60025442106101c957600080fd5b600560003373ffffffffffffffffffffffffffffffffffffffff1673ffffffffffffffffffffffffffffffffffffffff16815260200190815260200160002060020160009054906101000a900460ff161561022357600080fd5b600480549050821061023457600080fd5b6004828154811061026e577f4e487b7100000000000000000000000000000000000000000000000000000000600052603260045260246000fd5b906000526020600020906005020160040160009054906101000a900460ff1661029657600080fd5b6040518060600160405280838152602001610258426102b59190611361565b815260200160011515815250600560003373ffffffffffffffffffffffffffffffffffffffff1673ffffffffffffffffffffffffffffffffffffffff168152602001908152602001600020600082015181600001556020820151816001015560408201518160020160006101000a81548160ff021916908315150217905550905050600060048381548110610373577f4e487b7100000000000000000000000000000000000000000000000000000000600052603260045260246000fd5b9060005260206000209060050201905060018160030160008282546103989190611361565b925050819055506001915050919050565b6103b1610dc5565b600560003373ffffffffffffffffffffffffffffffffffffffff1673ffffffffffffffffffffffffffffffffffffffff16815260200190815260200160002060405180606001604052908160008201548152602001600182015481526020016002820160009054906101000a900460ff161515151581525050905090565b6004818154811061043f57600080fd5b9060005260206000209060050201600091509050806000018054610462906115b9565b80601f016020809104026020016040519081016040528092919081815260200182805461048e906115b9565b80156104db5780601f106104b0576101008083540402835291602001916104db565b820191906000526020600020905b8154815290600101906020018083116104be57829003601f168201915b5050505050908060010180546104f0906115b9565b80601f016020809104026020016040519081016040528092919081815260200182805461051c906115b9565b80156105695780601f1061053e57610100808354040283529160200191610569565b820191906000526020600020905b81548152906001019060200180831161054c57829003601f168201915b50505050509080600201805461057e906115b9565b80601f01602080910402602001604051908101604052809291908181526020018280546105aa906115b9565b80156105f75780601f106105cc576101008083540402835291602001916105f7565b820191906000526020600020905b8154815290600101906020018083116105da57829003601f168201915b5050505050908060030154908060040160009054906101000a900460ff16905085565b6000600360009054906101000a900460ff1661063557600080fd5b600254421061064357600080fd5b6000600560003373ffffffffffffffffffffffffffffffffffffffff1673ffffffffffffffffffffffffffffffffffffffff16815260200190815260200160002060405180606001604052908160008201548152602001600182015481526020016002820160009054906101000a900460ff161515151581525050905080604001516106ce57600080fd5b806020015142106106de57600080fd5b6001600482600001518154811061071e577f4e487b7100000000000000000000000000000000000000000000000000000000600052603260045260246000fd5b9060005260206000209060050201600301600082825461073e91906113b7565b92505081905550600560003373ffffffffffffffffffffffffffffffffffffffff1673ffffffffffffffffffffffffffffffffffffffff16815260200190815260200160002060008082016000905560018201600090556002820160006101000a81549060ff02191690555050600191505090565b6107bb610de8565b60006004805480602002602001604051908101604052809291908181526020016000905b828210156109ec57838290600052602060002090600502016040518060a0016040529081600082018054610812906115b9565b80601f016020809104026020016040519081016040528092919081815260200182805461083e906115b9565b801561088b5780601f106108605761010080835404028352916020019161088b565b820191906000526020600020905b81548152906001019060200180831161086e57829003601f168201915b505050505081526020016001820180546108a4906115b9565b80601f01602080910402602001604051908101604052809291908181526020018280546108d0906115b9565b801561091d5780601f106108f25761010080835404028352916020019161091d565b820191906000526020600020905b81548152906001019060200180831161090057829003601f168201915b50505050508152602001600282018054610936906115b9565b80601f0160208091040260200160405190810160405280929190818152602001828054610962906115b9565b80156109af5780601f10610984576101008083540402835291602001916109af565b820191906000526020600020905b81548152906001019060200180831161099257829003601f168201915b50505050508152602001600382015481526020016004820160009054906101000a900460ff161515151581525050815260200190600101906107df565b505050509050600254421015610a685760005b8151811015610a66576000828281518110610a43577f4e487b7100000000000000000000000000000000000000000000000000000000600052603260045260246000fd5b602002602001015160600181815250508080610a5e90611607565b9150506109ff565b505b6040518060a00160405280600360009054906101000a900460ff161515815260200160008054906101000a900473ffffffffffffffffffffffffffffffffffffffff1673ffffffffffffffffffffffffffffffffffffffff16815260200160018054610ad3906115b9565b80601f0160208091040260200160405190810160405280929190818152602001828054610aff906115b9565b8015610b4c5780601f10610b2157610100808354040283529160200191610b4c565b820191906000526020600020905b815481529060010190602001808311610b2f57829003601f168201915b5050505050815260200160025481526020018281525091505090565b6000600360009054906101000a900460ff1615610b8457600080fd5b8142610b909190611361565b6002819055506001600360006101000a81548160ff02191690831515021790555060019050919050565b60003373ffffffffffffffffffffffffffffffffffffffff1660008054906101000a900473ffffffffffffffffffffffffffffffffffffffff1673ffffffffffffffffffffffffffffffffffffffff1614610c1457600080fd5b600360009054906101000a900460ff1615610c2e57600080fd5b60005b83839050811015610daa576004848483818110610c77577f4e487b7100000000000000000000000000000000000000000000000000000000600052603260045260246000fd5b9050602002810190610c8991906112b7565b90806001815401808255809150506001900390600052602060002090600502016000909190919091508181610cbe9190611873565b5050600060046001600480549050610cd691906113b7565b81548110610d0d577f4e487b7100000000000000000000000000000000000000000000000000000000600052603260045260246000fd5b906000526020600020906005020160030181905550600160046001600480549050610d3891906113b7565b81548110610d6f577f4e487b7100000000000000000000000000000000000000000000000000000000600052603260045260246000fd5b906000526020600020906005020160040160006101000a81548160ff0219169083151502179055508080610da290611607565b915050610c31565b506001600480549050610dbd91906113b7565b905092915050565b604051806060016040528060008152602001600081526020016000151581525090565b6040518060a00160405280600015158152602001600073ffffffffffffffffffffffffffffffffffffffff1681526020016060815260200160008152602001606081525090565b60008083601f840112610e4157600080fd5b8235905067ffffffffffffffff811115610e5a57600080fd5b602083019150836020820283011115610e7257600080fd5b9250929050565b600081359050610e888161197b565b92915050565b60008060208385031215610ea157600080fd5b600083013567ffffffffffffffff811115610ebb57600080fd5b610ec785828601610e2f565b92509250509250929050565b600060208284031215610ee557600080fd5b6000610ef384828501610e79565b91505092915050565b6000610f088383611024565b905092915050565b610f19816113eb565b82525050565b6000610f2a82611300565b610f34818561132e565b935083602082028501610f46856112db565b8060005b85811015610f825784840389528151610f638582610efc565b9450610f6e83611321565b925060208a01995050600181019050610f4a565b50829750879550505050505092915050565b610f9d816113fd565b82525050565b610fac816113fd565b82525050565b6000610fbd82611316565b610fc7818561133f565b9350610fd7818560208601611586565b610fe08161173b565b840191505092915050565b6000610ff682611316565b6110008185611350565b9350611010818560208601611586565b6110198161173b565b840191505092915050565b600060a08301600083015184820360008601526110418282610fb2565b9150506020830151848203602086015261105b8282610fb2565b915050604083015184820360408601526110758282610fb2565b915050606083015161108a6060860182611167565b50608083015161109d6080860182610f94565b508091505092915050565b600060a0830160008301516110c06000860182610f94565b5060208301516110d36020860182610f10565b50604083015184820360408601526110eb8282610fb2565b91505060608301516111006060860182611167565b50608083015184820360808601526111188282610f1f565b9150508091505092915050565b60608201600082015161113b6000850182611167565b50602082015161114e6020850182611167565b5060408201516111616040850182610f94565b50505050565b61117081611429565b82525050565b61117f81611429565b82525050565b600060208201905061119a6000830184610fa3565b92915050565b600060a08201905081810360008301526111ba8188610feb565b905081810360208301526111ce8187610feb565b905081810360408301526111e28186610feb565b90506111f16060830185611176565b6111fe6080830184610fa3565b9695505050505050565b6000602082019050818103600083015261122281846110a8565b905092915050565b600060608201905061123f6000830184611125565b92915050565b600060208201905061125a6000830184611176565b92915050565b6000808335600160200384360303811261127957600080fd5b80840192508235915067ffffffffffffffff82111561129757600080fd5b6020830192506001820236038313156112af57600080fd5b509250929050565b60008235600160a0038336030381126112cf57600080fd5b80830191505092915050565b6000819050602082019050919050565b60008190508160005260206000209050919050565b600081519050919050565b600082905092915050565b600081519050919050565b6000602082019050919050565b600082825260208201905092915050565b600082825260208201905092915050565b600082825260208201905092915050565b600061136c82611429565b915061137783611429565b9250827fffffffffffffffffffffffffffffffffffffffffffffffffffffffffffffffff038211156113ac576113ab61166e565b5b828201905092915050565b60006113c282611429565b91506113cd83611429565b9250828210156113e0576113df61166e565b5b828203905092915050565b60006113f682611409565b9050919050565b60008115159050919050565b600073ffffffffffffffffffffffffffffffffffffffff82169050919050565b6000819050919050565b5b8181101561145257611447600082611773565b600181019050611434565b5050565b6000611461826113fd565b9050919050565b600061147382611429565b9050919050565b611484838361130b565b67ffffffffffffffff81111561149d5761149c6116cc565b5b6114a782546115b9565b600080601f8411601f841117156114c4576114c1856112eb565b90505b601f8311156114f7576020601f850104810160208510156114e3578190505b6114f56020601f860104830182611433565b505b601f8411600181146115245760008515611512578388013590505b61151c86826115eb565b87555061157c565b601f1985168260005b8281101561155257858a0135825560018201915060208601955060208101905061152d565b8783101561156f57858a013561156b601f8a1682611650565b8355505b6001600289020189555050505b5050505050505050565b60005b838110156115a4578082015181840152602081019050611589565b838111156115b3576000848401525b50505050565b600060028204905060018216806115d157607f821691505b602082108114156115e5576115e461169d565b5b50919050565b60006115f78383611650565b9150826002028217905092915050565b600061161282611429565b91507fffffffffffffffffffffffffffffffffffffffffffffffffffffffffffffffff8214156116455761164461166e565b5b600182019050919050565b600061166160001984600802611766565b1980831691505092915050565b7f4e487b7100000000000000000000000000000000000000000000000000000000600052601160045260246000fd5b7f4e487b7100000000000000000000000000000000000000000000000000000000600052602260045260246000fd5b7f4e487b7100000000000000000000000000000000000000000000000000000000600052604160045260246000fd5b6000819050919050565b6000819050919050565b6000813561171c81611964565b80915050919050565b600081356117328161197b565b80915050919050565b6000601f19601f8301169050919050565b60008160001b9050919050565b600082821b905092915050565b600082821c905092915050565b61178561177e611992565b838361193f565b5050565b600060ff6117968461174c565b9350801983169250808416831791505092915050565b60007fffffffffffffffffffffffffffffffffffffffffffffffffffffffffffffffff6117d88461174c565b9350801983169250808416831791505092915050565b60006008830261181e7fffffffffffffffffffffffffffffffffffffffffffffffffffffffffffffffff82611759565b6118288683611759565b95508019841693508086168417925050509392505050565b61184982611456565b61185c611855826116fb565b8354611789565b8255505050565b61186e83838361147a565b505050565b60008101600083016118858185611260565b611890818386611863565b5050505060018101602083016118a68185611260565b6118b1818386611863565b5050505060028101604083016118c78185611260565b6118d2818386611863565b505050506003810160608301806118e881611725565b90506118f4818461191c565b5050506004810160808301806119098161170f565b90506119158184611840565b5050505050565b61192582611468565b61193861193182611705565b83546117ac565b8255505050565b61194883611468565b61195c61195482611705565b8484546117ee565b825550505050565b61196d816113fd565b811461197857600080fd5b50565b61198481611429565b811461198f57600080fd5b50565b60009056fea26469706673582212207ca12f824e33801707fa9308ea40d2b10fcc5915c09e2026dcea7d68028aba9b64736f6c63430008000033a264697066735822122044677c2bd118d6ea9d7006470a41358979da36791f0b7d0a8e2528751292d6d264736f6c63430008000033",
  "immutableReferences": {},
  "source": "// SPDX-License-Identifier: MIT\npragma solidity ^0.8.0;\n\nimport './IElection.sol';\nimport './Election.sol';\n\ncontract Factory {\n    IElection[] elections;\n\n    constructor() {\n    }\n\n    function createElection(address _owner, string calldata _name) external {\n        require(_owner != address(0));\n        elections.push(new Election(_owner, _name));\n    }\n\n    function getElections() public view returns (IElection[] memory) {\n        return elections;\n    }\n}\n",
  "sourcePath": "/home/void/ethereum/js/vue-material/contracts/Factory.sol",
  "compiler": {
    "name": "solc",
    "version": "0.8.0+commit.c7dfd78e.Emscripten.clang"
  },
  "schemaVersion": "3.4.3",
  "updatedAt": "2021-10-14T07:47:29.893Z",
  "networkType": "ethereum",
  "devdoc": {
    "kind": "dev",
    "methods": {},
    "version": 1
  },
  "userdoc": {
    "kind": "user",
    "methods": {},
    "version": 1
  }
}